:020000040800F2
:1000000050370020C5020008CD020008CF020008CA
:10001000D1020008D3020008D50200080000000049
:1000200000000000000000000000000005020008C1
:10003000D902000800000000610200080525000840
:10004000DF020008DF020008DF020008DF0200080C
:10005000DF020008DF020008DF020008DF020008FC
:10006000DF020008DF020008DF020008DF020008EC
:10007000DF020008DF020008DF020008DF020008DC
:10008000DF020008DF020008DF020008DF020008CC
:10009000DF020008DF020008DF020008DF020008BC
:1000A000DF020008DF020008DF020008DF020008AC
:1000B000DF020008DF020008DF020008DF0200089C
:1000C000DF020008DF020008DF020008DF0200088C
:1000D000DF020008D5250008DF020008DF02000863
:1000E000DF020008DF020008DF020008DF0200086C
:1000F000DF020008DF020008DF020008DF0200085C
:10010000DF020008DF020008DF020008DF0200084B
:10011000A9250008DF020008DF020008DF0200084E
:10012000DF020008DF020008DF020008DF0200082B
:1001300000F002F800F052F80AA090E8000C8244A7
:100140008344AAF10107DA4501D100F047F8AFF284
:10015000090EBAE80F0013F0010F18BFFB1A43F0A5
:10016000010318478C4F0000AC4F0000103A24BF29
:1001700078C878C1FAD8520724BF30C830C144BF0C
:1001800004680C607047000000230024002500264E
:10019000103A28BF78C1FBD8520728BF30C148BFEA
:1001A0000B607047662904F03987642900F0E88005
:1001B000782900F02181732900F03F8500207047E5
:1001C0001FB504F021FF00F06EFD040000200021A7
:1001D00004F0D8FCE0601FBD10B510BD00F064FE57
:1001E000114603B402F0AFFA03BCFFF7E9FF02F0D7
:1001F00005FB00F07EFE03B4FFF7EEFF03BC00F04A
:10020000C1FE00002C4B19680868B0E8F04F80F37D
:100210000988BFF36F8F4FF0000080F3118870479B
:100220000000000008480068006880F308884FF06C
:10023000000080F3148862B661B6BFF34F8FBFF33E
:100240006F8F00DF00BF00BF08ED00E0DFF80C009B
:10025000016841F470010160704700BF88ED00E063
:10026000EFF30980BFF36F8F134B1A681EF0100F66
:1002700008BF20ED108A20E9F04F106009B44FF05C
:10028000100080F31188BFF34F8FBFF36F8F03F01F
:100290003BFD4FF0000080F3118809BC1968086825
:1002A000B0E8F04F1EF0100F08BFB0EC108A80F3DA
:1002B0000988BFF36F8F704740000020EFF305807F
:1002C000704700000948804709480047FEE7FEE7FD
:1002D000FEE7FEE7FEE7FEE7FEE7FEE7FEE7FEE7F6
:1002E00004480549054A064B704700001D250008D3
:1002F00031010008502F00205037002050330020DB
:10030000503300200FB41CB5074B06AA7B44694646
:100310000090059800F067FC0020694600F076FC2C
:100320001CBC5DF814FB0000FD08000070B50C4615
:100330000546012A05D02878800600D5EA69002301
:1003400002E0012305E05B1C934202D2E05C00283E
:10035000F9D1A869E618C01AA861286A1844286269
:100360002846AFF3008004E0D5E9012114F8010B21
:100370009047B442F8D32846AFF3008070BD000028
:100380002DE9F0410646002410687529314616A56E
:1003900010D0AFF30080002802DA404213A507E036
:1003A00031688A0701D512A502E0490704D511A5D5
:1003B000012401E0AFF3008000210A2206F12407A6
:1003C00009E0B0FBF2FCB0FBF2F302FB1C003030A2
:1003D00078541846491C0028F3D123462A46304653
:1003E000BDE8F04100F091B9000000002D000000D0
:1003F0002B0000002000000070B504460D46214689
:100400001068AFF300802188090502D50F4A7A44AD
:1004100002E00E4A7A440E32002104F1240305E082
:1004200000F00F060009965D5E54491C0028F7D1C4
:1004300020780023000704D5702D02D009B10223D3
:1004400011322046BDE8704000F05FB90E4C00004C
:100450002DE9F05F894604464FF0000ADFF874B1D9
:10046000FB44C0F820A02046E1688847002874D0EB
:10047000252806D0D4E901219047206A401C20623B
:10048000F1E700265F462046E168884720280546B8
:1004900007DB312D05D2781910F8200C08B106437E
:1004A000F1E7B00701D526F00406C4F81CA0002728
:1004B000C4F818A02A2D09D0284602F0CFF838B386
:1004C00004EB8708303DC8F8185019E059F8041BB0
:1004D000204604EB87029161E1688847012F0546B9
:1004E00018D1E069002820DA26F020061DE0D8F8AF
:1004F000180000EB800005EB40003038C8F8180009
:100500002046E1688847054602F0A8F80028EED1A9
:10051000012F0AD02E2D08D12046E16888477F1C84
:100520000546022F46F02006C4DBA069002803DA46
:10053000404246F00106A061F00701D026F0100607
:100540006C2D0BD0682D09D04C2D39D06A2D35D0AB
:10055000742D35D07A2D33D016E038E0E1682F467F
:1005600020468847B842054609D16C2F26D04FF463
:100570008060E168064320468847054604E06C2F0A
:100580001AD04FF4807006430DB3A5F1410019282D
:1005900002D8203546F400664A46294620462660A1
:1005A0004E46FFF7FFFD80B101280BD0F61D26F067
:1005B000070000F1080956E74020E4E78020D8E76B
:1005C0000020D6E706F104094DE7284652E7206AE5
:1005D000BDE8F09FE44B0000032A40F2308010F0A9
:1005E000030C00F0158011F8013BBCF1020F6244CE
:1005F00098BF11F801CB00F8013B38BF11F8013B5F
:10060000A2F1040298BF00F801CB38BF00F8013B0B
:1006100011F0030300F01583083AC0F0088051F888
:10062000043B083A51F804CBA0E80810F5E7121D86
:100630005CBF51F8043B40F8043BAFF30080D207A5
:1006400024BF11F8013B11F801CB48BF11F8012B71
:1006500024BF00F8013B00F801CB48BF00F8012B94
:10066000704702F0FF0343EA032242EA024200F02D
:1006700002B84FF000020429C0F0128010F0030C01
:1006800000F01B80CCF1040CBCF1020F18BF00F885
:10069000012BA8BF20F8022BA1EB0C0100F00DB834
:1006A0005FEAC17C24BF00F8012B00F8012B48BF92
:1006B00000F8012B70474FF0000200B51346944636
:1006C0009646203922BFA0E80C50A0E80C50B1F1AA
:1006D0002001BFF4F7AF090728BFA0E80C5048BFBE
:1006E0000CC05DF804EB890028BF40F8042B08BF5C
:1006F000704748BF20F8022B11F0804F18BF00F858
:10070000012B70477047704770472DE9F0470D4641
:1007100099469246044600F124080168880604D5EB
:10072000E06921F01001216000E00120A84201DD14
:10073000471B00E00027A1697A1902EB0900081A9B
:10074000A0612078C00602D42046AFF300800026C6
:1007500008E0D4E901211AF806009047206A401CFD
:10076000761C20624E45F4DB2078C0060AD5204670
:10077000AFF3008006E0D4E9012130209047206AE1
:10078000401C2062381EA7F10107F4DC07E0D4E921
:10079000012118F805009047206A401C2062281E9D
:1007A000A5F10105F3DC2046AFF3008020780006B8
:1007B00002D50220BDE8F0870120FBE770472DE954
:1007C000FF4F0C461E464FF0FF378BB0D2E90001B9
:1007D000DDF860800A908A46C1F30A5505B93D46A6
:1007E000002108464FF00000BAF1000F00F440006D
:1007F00005DA00EB80004FF4400101EA50004FEAB7
:100800009059B9F1010F00DDB9460A9850EA4A0043
:100810000ED044F61050A5F2FF3545432F14B8F121
:10082000000F1ED07542291E1EDDC9F100021CE01A
:10083000B8F1010F4FF0000001D0302103E0F24386
:1008400005E02154401CB042FBDB30460022002171
:1008500021540B99C1F80880C1E900200FB0BDE810
:10086000F08FBD1B6D1CDEE74A4600DA694206A820
:1008700000F0A4FA06AB93E8070003AB83E8070097
:1008800050460A9900F085FB8DE80700A0F500505E
:100890001F3800900398002D0ADD42F21F014A46DE
:1008A0000844002303A90390684600F0EEFD09E028
:1008B000A0F500504A461F38002303A9039068465C
:1008C00000F0F8FD8DE807000004000C03D04FF0A5
:1008D000FF30410800E01046B8F1000F03D00022BD
:1008E000009215461EE0751E05D400F0E1F9303285
:1008F00062556D1EF9D5B3460122084302D000228D
:100900007F1C04E02078302801D100227F1E002ABD
:10091000099784D01DE0112D07DA00F0C9F93032B3
:1009200062556D1C50EA0102F5D1084302D00098CF
:10093000C8B10EE00021681E05E0235C625C6354D0
:100940002254401E491C8142F7DBAB46A81B401EC7
:100950000990002004F80B000B98099AC0F8088051
:10096000C0E9002B7AE711264FF0000857E72DE980
:10097000F04F88460446D21D22F0070191B0D1E91C
:100980000001CDE90A0101F051FE02460B98C00FAB
:1009900001D02D2007E02068810701D52B2002E03F
:1009A000202101EAC000032A099001D0072A05DBB3
:1009B00003464146204600F0C1F90BE1207880064D
:1009C00001D5E06900E00620B8F1650F814606D048
:1009D000B8F1660F18D0B8F1670F70D131E0002080
:1009E000B9F1110F009001DB112301E009F10103BE
:1009F0000AAA01A90CA8FFF7E2FEDDE90C700026A7
:100A000009F10105834647E001204B4600904FF075
:100A100000470AAA01A90CA8FFF7D1FEDDE90DB035
:100A20000C995D46002610B909F101000D18B9EBCB
:100A3000050003D4C0F1FF3609F10105A5EB09005B
:100A40002BE0B9F1010F01DA4FF001090020B9F1F3
:100A5000110F0090484601DD112300E003460AAA69
:100A600001A90CA8FFF7ABFEDDE90C704D4600268E
:100A70008346207800070AD4AB4500DA5D4601A81A
:100A8000012D04DD411911F8011C302907D04F4513
:100A900002DA17F1040F04DA012082460FE06D1E1E
:100AA000EEE7002F02DCED1B3E4403E0781CA84279
:100AB00000DD7D1CB81B00F1010A4FF000472078D3
:100AC000000703D4AA4501DB4FF0FF3A0021B7F13C
:100AD000004F0DF143088DF8431024D002202B2342
:100AE000002F01DA7F422D230A21021EA0F101000E
:100AF00000DC5FB197FBF1FC97FBF1F201FB1C7C82
:100B000017460CF1300C08F801CDEEE7A8F1010012
:100B100003702188090501D5452100E06521A0F178
:100B2000010800F8011C09980FA9A1EB0807FF1D97
:100B300000B10120411901EBEA70A1693844081A9B
:100B4000401EA0612078C00602D42046AFF300808A
:100B5000099828B1D4E901219047206A401C2062FD
:100B60002078C00622D52046AFF300801EE0002E7C
:100B700004DBB34502DD01A8805D00E03020D4E94C
:100B800001219047206A401C2062761CAAF10100D6
:100B90005FEA000A0AD100F086F8C0680168405C8C
:100BA000D4E901219047206A401C2062281EA5F14B
:100BB0000105DCDC07E0D4E9012118F8010B9047BE
:100BC000206A401C2062381EA7F10107F3DC204692
:100BD000AFF30080032011B041E6000001694A1C18
:100BE00002610878704700B58FB0CDE9013100216E
:100BF000059105497944CDE9031011466846FFF790
:100C000027FC0FB000BD0000E5FFFFFF0A6802F8F7
:100C1000010B0A60704710B5436913B1AFF3008050
:100C200001E0FFF783FB012010BD127800F12401E1
:100C30000A7000224A700122EDE711684FF0FF327E
:100C4000E9E710B5203AC0F00B80B1E81850203A1F
:100C5000A0E81850B1E81850A0E81850BFF4F5AF5C
:100C60005FEA027C24BFB1E81850A0E8185044BFE6
:100C700018C918C0BDE810405FEA827C24BF51F853
:100C8000043B40F8043B08BF7047D20728BF31F847
:100C9000023B48BF11F8012B28BF20F8023B48BF98
:100CA00000F8012B704710B500F0FAF8203010BDA5
:100CB00030B5B0F10A024FEA900E71F100034EEA2E
:100CC000817EB0EB0E0061EB91014FEA101E4EEAFF
:100CD000017E10EB0E0041EB11114FEA102E4EEA8F
:100CE000016E10EB0E0041EB11214FEA104E4EEA5F
:100CF000014E10EB0E0041EB1141401841F1000193
:100D00004FEAD00040EA41704FEAD10110EB800574
:100D10004FEA810444EA907444EB01046D1944EBFA
:100D20000404521BA3414FF0000348BF0A3200D510
:100D300030BD401C41F1000130BD00002DE9F04103
:100D40001F46044603260168072A01F4006004DBFD
:100D500008B116A505E016A503E008B115A500E049
:100D600015A521F010002060A069C01EA0610FB180
:100D7000401EA0612046AFF300804FB1D4E90121AD
:100D800038469047206A401C2062C01C206206E062
:100D9000206AFAE7D4E9012115F8010B9047761E85
:100DA000F8D22046AFF30080BDE8F0814E414E00FE
:100DB0006E616E00494E4600696E66002DE9F0478F
:100DC000814616468AB0354878440DC88DE80D0036
:100DD00032487844801C03AC0DC884E80D0041F60D
:100DE0009B300844372190FBF1F290FBF1F5A5F11F
:100DF000800501FB12041B3C02D56442012000E087
:100E00000020DFF898A080460027FA44AAF1BE0A25
:100E10000EE0E0070AD03246684607EB470101239F
:100E20000AEB810100F046FB8DE8070064107F1C8F
:100E3000002CEED1194F7F44AE3F19E0E80715D0E2
:100E400007EB04100DF1180A90E80E008AE80E0076
:100E5000C068F04201D1981908903246012306A9D2
:100E600003A800F027FB03AB83E807006D10641CA8
:100E7000002DE3D14FF0010332466946B8F1000F6F
:100E800003A802D000F001FB01E000F013FBC9E968
:100E90000001C9F808200AB0BDE8F0870C43000043
:100EA00000487047EC2E00207546FFF7F9FFAE466C
:100EB00005006946534620F00700854618B020B566
:100EC000FFF70EFABDE820404FF000064FF0000794
:100ED0004FF000084FF0000B21F00701AC46ACE8E2
:100EE000C009ACE8C009ACE8C009ACE8C0098D464F
:100EF000704710B50446AFF300802046BDE81040AF
:100F0000FFF779B94FF0013C50F8042B51F8043B3E
:100F10009A4221D1A2EB0C03934313EACC1317D1CD
:100F200050F8042B51F8043B9A4215D1A2EB0C0364
:100F3000934313EACC130BD150F8042B51F8043B24
:100F40009A4209D1A2EB0C03934313EACC13DBD0F2
:100F50004FF00000704700BFD01A01BAB1FA81F11A
:100F600001F0180122FA01F0CB40C1F12001DBB2FF
:100F7000C0B2C01A2CFA01F3D11A914311EAC3117D
:100F8000E6D1704701491820ABBEFEE726000200FB
:100F900070475FEA400C08BF91F0000F4FEA8C23C6
:100FA0004FEAC12243EA51514FEA1C5018BF00F5E5
:100FB000F0404FEA300018BF41F000415FEA6C5C3E
:100FC00000F02980BCF1FF3F08BF40F0804070472F
:100FD000130C06BF12044FF0100C4FF0000C130E50
:100FE00004BF12020CF1080C130F04BF12010CF124
:100FF000040C930F04BF92000CF1020CD30F04BF3A
:1010000052000CF1010C11464FF00002A0F11F003C
:10101000A0EB0C00704711F0004F08BF704731F093
:1010200000413FF4D5AF0B0C06BF09044FF0100C84
:101030004FF0000C0B0E04BF09020CF1080C0B0F53
:1010400004BF09010CF1040C8B0F04BF89000CF1E3
:10105000020CCB0F04BF49000CF1010CCCF12003B2
:10106000A0EB0C0022FA03F302FA0CF241EA0301AE
:1010700000F10100704720F07F4C80EA030023F06C
:101080007F47ACEB070303F57C5300F0004003F10E
:10109000FF032DE980494FEA154B09B44FEA144389
:1010A00025EA0B4E24EA03480FF2042606EB132729
:1010B00049083E785FEA320203FB0667C7F500077E
:1010C00007FB06F64FEA54374FEAD64606F102060A
:1010D00007FB066CCCF1005C4FEA1C472CEA074C7E
:1010E00007FB06F40CFB06F504EB15464FEA9616D3
:1010F00034BF00204FF000404FEAD13706FB07FC19
:101100004FEA1C4C0CFB0BF7D21B03FB0CF761EBFB
:1011100007010CFB0EF7B0EB074072EB17420CFB1C
:1011200008F734BFA2EB0742B2EB074261EB17416D
:101130004FEA0C444FEA910706FB07FC4FEA1C4CB0
:101140000CFB0BF7B0EBC74072EB573203FB0CF70D
:1011500034BFA2EBC742B2EBC74261EB57310CFB85
:101160000EF7B0EBC70072EB57720CFB08F734BFF9
:10117000A2EBC702B2EBC70261EB5771039F4FEAC4
:10118000816141EA921104EBCC044FEAD1374FEA76
:10119000826206FB07FC42EA90124FEA80604FEA47
:1011A0001C4C0CFB0BF7D21B03FB0CF761EB07018C
:1011B0000CFB0EF7B0EB074072EB17420CFB08F785
:1011C00034BFA2EB0742B2EB074261EB17414FEA93
:1011D0008C554FEA910704EB9C2406FB07FC4FEA71
:1011E0001C4C0CFB0BF7B0EBC74072EB573203FB08
:1011F0000CF734BFA2EBC742B2EBC74261EB5731E9
:101200000CFB0EF7B0EBC70072EB57720CFB08F744
:1012100034BFA2EBC702B2EBC70261EB577115EB0B
:101220004C254FEA816141EA92114FEA82624FEA0E
:10123000D13742EA901206FB07FC44F100044FEA62
:1012400080604FEA1C4C0CFB0BF7D21B03FB0CF726
:1012500061EB07010CFB0EF7B0EB074072EB174296
:101260000CFB08F734BFA2EB0742B2EB074261EB7D
:10127000174115EB1C154FEA813141EA92414FEAC3
:10128000823242EA90424FEA80304FEA0C7644F1D3
:10129000000448EA03434EEA0B484FF0000EB2EB5D
:1012A000080C71EB030724BF624639464EEB0E0E65
:1012B0004FF0000B0018524149414BEB0B0BB2EBC6
:1012C000080C71EB03077BF1000B24BF6246394623
:1012D0004EEB0E0E4FF0000B0018524149414BEB04
:1012E0000B0BB2EB080C71EB03077BF1000B24BF77
:1012F000624639464EEB0E0E51EA020718BF46F021
:10130000010616EB0E7655F1000254F1000103D5EB
:10131000BDE88901BDE80088BDE88901BDE8004855
:10132000B619524141EB0101A3F1010370478080DE
:101330007F7E7D7C7B7A797877767675747372712F
:1013400071706F6E6E6D6C6C6B6A6A6968686766E7
:1013500066656464636362616160605F5F5E5E5D79
:101360005D5C5C5B5B5A5A595958585757565655ED
:1013700055555454535352525251515050504F4F4F
:101380004F4E4E4D4D4D4C4C4C4B4B4B4A4A4A499F
:1013900049494848484747474746464645454544E2
:1013A0004444444343434342424242414141002B6F
:1013B0009C4630D477002BD01CB54FEA370703B4D6
:1013C0004FF010004FF01001BAF1000F06D0BCF141
:1013D000000FDCBF40F0080040F008014FF00000B3
:1013E0000FBCBDE810400BF1010BBBF1010F08BFB2
:1013F0005FEA170722BF12F1010211F101014FF05C
:10140000004143F1000300F0004043EA0000704750
:10141000F9D35708D0E746EA064613F1400F4FEAE2
:1014200016461FDD13F1200FDFBF16430A460021C9
:1014300020335B42BED0C3F1200746EA064602FADB
:1014400007F74FEA164646EA0706C3F1200722FAD5
:1014500003F201FA07F721FA03F14FF0000342EA21
:101460000702A7E746EA020646EA06464FEA16469C
:1014700046EA0106BCBF46EA0646360C4FF00003BA
:101480004FF000024FF0000194E72DE9804C9A469E
:10149000934670B491E8380007C831EA400C48BF61
:1014A00034EA430C03D5FFF7E6FDFFF780FFF0BCFD
:1014B000BDE8008C2DE9804C9A46934670B491E8C3
:1014C000380007C810F0804F08BF13F0804F03D1D9
:1014D00000F005F8FFF76BFFF0BCBDE8008C20F0D2
:1014E0007F4780EA030023F07F4C07EB0C03A3F552
:1014F0007C5300F00040A3F1FE0392F0000F00F0D7
:10150000B38095F0000F00F077802DE901494FEA94
:1015100011404FEA144621EA004800FB06FC24EA89
:10152000064708FB06F607FB08F800FB07F718EB71
:1015300006484CEB164C4FEA124B18EB07484FEAA3
:1015400015464CEB174022EA0B4E0BFB06FC25EA36
:1015500006470EFB06F607FB0EFE0BFB07F71EEB1E
:10156000064E4CEB164C4FF000061EEB074E4CEBB4
:10157000174B18EB0B0840F1000018EB0E0B58EB63
:10158000000840F100008F1A4FF000013CBFC94332
:10159000661B14BFB5EB040C00213CBFC943F61B0E
:1015A0004FEA17444EEA8E0E27EA04454FEA1C47DD
:1015B00004FB07622CEA074C05FB07F70CFB05F65A
:1015C00004FB0CFC16EB074642EB174216EB0C46ED
:1015D00042EB1C421BEB060658EB0202414146EA75
:1015E0009E0601D5BDE80189B619524141EB0101C2
:1015F000A3F10103BDE801894FEA14454FEA114701
:1016000024EA054621EA074C05FB07F406FB07F729
:101610000CFB06F105FB0CFC11EB074144EB1744F6
:101620004FEA124711EB0C4144EB1C4422EA074CF1
:1016300005FB07F206FB07F70CFB06F605FB0CFCA7
:1016400016EB074642EB174216EB0C4642EB1C45E5
:101650006A1854F1000148BF7047B619524141EB76
:101660000101A3F10103704795F0000F37D04FEA55
:1016700011424FEA144721EA024624EA074C02FBD2
:1016800007F106FB07F70CFB06F402FB0CFC14EB5E
:10169000074441EB17414FEA154714EB0C4441EB6B
:1016A0001C4125EA074C02FB07F506FB07F70CFB7C
:1016B00006F602FB0CFC16EB074645EB174516EB4E
:1016C0000C4645EB1C42121951F1000148BF70470E
:1016D000B619524141EB0101A3F1010370474FEAF2
:1016E00014454FEA114724EA054621EA074C05FB59
:1016F00007F106FB07F70CFB06F24FF0000605FBAF
:101700000CFC12EB074241EB174112EB0C4251EB80
:101710001C4148BF7047921841EB0101A3F101033E
:101720007047F0B58CB007460D4600246E464AF669
:101730005520ADF800000220ADF8020000BF04E023
:101740000DF106000455601C84B2282CF8DB2A2019
:10175000ADF80400BDF80400001DC1B2304600F031
:1017600019FAADF82E00002403E0305D2855601C06
:1017700084B2BDF80400001DA042F6DCBDF82E00C6
:101780002855BDF82E00010A601C2954A01C84B203
:1017900020B20CB0F0BD00002DE9F0412DED048B1E
:1017A0008EB080460D46002402AF4AF65520ADF8B3
:1017B00008000120ADF80A00002624E0304603F0BE
:1017C000D1FA41EC190B9FED240B53EC102B03F0D5
:1017D00021FA41EC180B03F0EBF901909DF807108A
:1017E0000DF10E0001559DF80620611C42549DF834
:1017F0000520A11C42549DF80420E11C4254201DE8
:1018000084B2701C86B20A2ED8DB2A20ADF80C00F8
:10181000BDF80C00001DC1B2384600F0BBF9ADF8B0
:101820003600002403E0385D2855601C84B2BDF802
:101830000C00001DA042F6DCBDF836002855BDF8AE
:101840003600010A601C2954A01C84B220B20EB0DC
:10185000BDEC048BBDE8F081000000000080344046
:1018600070B505460C4600202C49086001202C4923
:1018700008602C48007820B101281DD002284BD1E7
:1018800030E029480088255427480088401C264914
:1018900008800846008804280DD16178207800F07F
:1018A00070F94AF65521884202D000F093F902E01F
:1018B00001201C4908702FE01B48008825541A4855
:1018C0000088401C1849088008460088062808D16E
:1018D0006179207900F055F91449088002201149F6
:1018E000087019E01048008825540F480088401CF3
:1018F0000D490880084601880C480088801D8142F7
:1019000009D101200A4908700748008800B2094936
:10191000088000F05FF900BF00BF70BD100000201C
:1019200014000020180000200C0000200E000020F1
:101930000A0000200800002008B5002000900DE0FB
:10194000BDF80000401C80B20090684600F058F9D5
:10195000204600F0B3FA012002F030F8F0E70AE088
:1019600000F08EFB204600F05DFB204600F0D2FA2E
:10197000012002F023F8F3E70BE0204600F02AFBF9
:10198000204600F071FA204600F0FAFA012002F039
:1019900015F8F2E710B5012002F00AFB06490860CD
:1019A000012002F005FB04498860012002F000FBE1
:1019B0000149C86010BD0000180100200FB400B537
:1019C00087B009A8019054E008980078252849D1EB
:1019D0000898401C089008980078642806D066286B
:1019E0001AD073280DD0782837D12BE0019804C87D
:1019F00024A1019002A8FEF785FC02A800F0AAF835
:101A00002FE0019804C820A1019002A8FEF77AFCFB
:101A100002A800F09FF824E00198C01D20F0070004
:101A20000190B0EC021BB0EE410AF0EE610A53ECFB
:101A3000102B16A1019002A8FEF764FC02A800F08A
:101A400089F80EE0019804C812A1019002A8FEF7DF
:101A500059FC02A800F07EF803E00FA000F07AF82D
:101A600000BF03E00899087800F05EF80898401C71
:101A70000890089800780028A6D1019007B05DF87A
:101A800014FB0000256400002573000025302E3172
:101A90006C660000257800007072696E74662065BF
:101AA00072726F722121210A0000000010B502F04D
:101AB00083F90F490860012008710220487102F083
:101AC0007BF90B49886001210948017302F074F920
:101AD0000749086101210648017502F06DF90449C2
:101AE00088610121024801770221417710BD000081
:101AF000F800002010B5FFF74DFFFFF7D7FF00F00B
:101B000001F810BD10B5002202210A2002F076FA79
:101B100004498860002228210A2002F06FFA014956
:101B2000086110BD2801002010B504460849086866
:101B30004FF0FF3102F008FC204600F073FC04492E
:101B4000086800231A46194602F0F0FA10BD00009A
:101B50001801002010B5044603E02078FFF7E4FFE9
:101B6000641C20780028F8D110BD08B58DF803005A
:101B70008DF802108DF801208DF800309DED000ADF
:101B800008BD08B502468DF800208DF80110BDF89B
:101B9000000008BD30B502460B464FF6FF7000212D
:101BA000002400BF12E0555C684008240AE000F001
:101BB000010525B140104AF20105684000E04010DF
:101BC000651EACB2002CF2D14D1CA9B29942EADBE1
:101BD00030BD0000002005490880054908800549FE
:101BE0000860054908600549087070470C0000202E
:101BF0000E0000201000002014000020180000201B
:101C000010B504462088B0F5FA6F03D100F016FB3A
:101C10000020208010BD00002DE9F0438DB0074664
:101C20000024002501A9384600F0A8F886B2314604
:101C300037A0FFF7C3FEBDF8041039A0FFF7BEFEC2
:101C4000BDF8061039A0FFF7B9FEBDF8060001285F
:101C500032D139A0FFF7B2FE00BF21E00DF10A0C2E
:101C600005F103091CF8093005F102091CF80920E7
:101C700005F101091CF809101CF80500FFF775FFB4
:101C8000DFED300A20EE200ABDEEC00A10EE108A09
:101C900041462DA0FFF792FE281D85B2601CC4B2FC
:101CA000A6F10800C11700EB9171B4EBA10FD5DBD1
:101CB00026A0FFF783FE22E0BDF80600022814D11B
:101CC0001DA0FFF77BFE002407E00DF10A00015D77
:101CD0001DA0FFF773FE601CC4B2A6F10800A0426D
:101CE000F3DC1AA0FFF76AFE09E09DF80A1018A0BD
:101CF000FFF764FE9DF80B1019A0FFF75FFEBDF81B
:101D000032101AA0FFF75AFE00200DB0BDE8F08394
:101D10000A2D2853697A653A202564292D0A000086
:101D200053746172093A2025780A0000547970656D
:101D3000093A2025780A000056616C7565203A2022
:101D4000000000000000C842256420000A000000D6
:101D50004E616D65204456203A2025640A0000003B
:101D600056616C7565203A2025640A0043686563F6
:101D70006B2073756D203A2025780A002DE9F0411B
:101D800006460D4600240027A046621CB15C305D6B
:101D9000FFF7F7FE288028884AF65521884202D0AE
:101DA000601EBDE8F081A01CC4B2621CB15C305D55
:101DB000FFF7E7FE6880A01CC4B26888012804D041
:101DC000022803D0032833D116E000BF621CB15CA7
:101DD000305DFFF7D6FEA880A01CC4B2002706E045
:101DE000315DA81DC155601CC4B2781CC7B2A8885B
:101DF000801EB842F4DC1EE0621CB15C305DFFF76F
:101E0000C0FEA880A01CC4B200270CE0012F03DC98
:101E1000315DA81DC15502E00021A81DC155601CFF
:101E2000C4B2781CC7B2A888801EB842EEDC02E0BB
:101E30004FF0FF30B5E700BF2879001DC1B2304632
:101E4000FFF7A8FE8046621CB15C305DFFF799FE8B
:101E5000E885E88D404502D04FF0FF30A1E7A01C97
:101E6000C4B220469DE7000038B504460520094A63
:101E70000090117F90690023012201F0F5FF0446D4
:101E80000448007F204020B103A0FFF797FD00F039
:101E9000C1F938BDF80000204576656E7420436FA7
:101EA0006E74726F6C20494F20746F2053595354D5
:101EB000454D20646F6E650A0000000038B5044689
:101EC00005200A4A0090117B90680023012201F04E
:101ED000CBFF04460548007B204030B104A0FFF74B
:101EE0006DFD00F049F900F07DF938BDF8000020E3
:101EF0004576656E7420436F6E74726F6C20535913
:101F00005354454D20746F20494F20646F6E650A0D
:101F10000000000038B5044605200C4A00901179F5
:101F200010680023012201F09FFF04460748007952
:101F3000204048B106A0FFF741FD00F0CBF800F0CB
:101F4000EFF80CA0FFF73AFD38BD0000F8000020C4
:101F50004576656E7420436F6E74726F6C205359B2
:101F60005354454D20746F205541525420646F6E78
:101F7000650A0000456E6420746573740A0A0000E7
:101F800038B504460520094A0090117D10690023E8
:101F9000012201F069FF04460448007D204020B181
:101FA00003A0FFF70BFD00F02BF938BDF80000206F
:101FB0004576656E7420436F6E74726F6C20554168
:101FC000525420746F2053595354454D20646F6E02
:101FD000650A000038B504460520094A0090517F83
:101FE00090690023012201F03FFF04460448407F2E
:101FF000204020B103A0FFF7E1FC00F02DF938BD2F
:10200000F80000204576656E742055706461746533
:1020100020494F20746F2053595354454D20646F0D
:102020006E650A0038B5044605200C4A00905179C7
:1020300010680023012201F017FF04460748407989
:10204000204048B106A0FFF7B9FC00F043F800F0CB
:1020500067F807A0FFF7B2FC38BD0000F8000020C9
:1020600055706461746520446174610A0000000069
:10207000456E64205570646174650A0A00000000B2
:1020800030B58DB000200C9000240CA800F092F820
:10209000E0B1BDF83000002818DD00F0D3F90546A6
:1020A00069462846FFF76AFEC4B22846FFF7B4FD2A
:1020B000002C0BDDBDF80200032807D19DF80710A6
:1020C0009DF8060000F050F900F0AEF800F04EFA6E
:1020D0000DB030BD30B5A1B0002400250F4908690E
:1020E0000022694602F0AEF8A8B100BF05E01DF875
:1020F000040017A90855601CC4B2282CF7DB0AA9F4
:1021000017A8FFF70EFBC5B20AA8FFF785FD294601
:102110000AA800F0D9F921B030BD00002801002044
:1021200030B5A1B000240025124908690022694693
:1021300002F088F8D8B100BF0BE0684600EB8400DD
:1021400090ED000A0AA800EB840080ED000A601CF4
:10215000C4B20A2CF1DB14A90AA8FFF71DFBC5B213
:1021600014A8FFF759FD294614A800F0ADF921B0D5
:1021700030BD00002801002008B50749886800220A
:10218000694602F05FF830B19DF801209DF800101B
:1021900002A0FFF713FC08BD280100204E616D6509
:1021A000203A202564202D2056616C7565203A2048
:1021B00025640A00014608480078012809D100205A
:1021C000064A1060044A1070054800880880012003
:1021D00070470020FCE700000A00002014000020E7
:1021E0000800002010B5054A117F906901F0F3FD49
:1021F00000F03CF800F06AF810BD0000F800002084
:1022000010B5034A117B906801F0E5FD10BD000098
:10221000F800002010B5034A1179106801F0DBFDC9
:1022200010BD0000F800002010B5034A117D1069B0
:1022300001F0D1FD10BD0000F800002010B5054AE6
:10224000517F906901F0C7FD00F010F800F03EF8F2
:1022500010BD0000F800002010B5034A5179106845
:1022600001F0B9FD10BD0000F800002010B594B0D9
:10227000002400BF03E00AA80455601CC4B2282C47
:10228000F9DB002405E00AA8005D0DF80400601CDD
:10229000C4B2282CF7DB0B4988684FF0FF3102F0FD
:1022A00053F80949086900231A46694601F03EFFC0
:1022B0000449886800231A46194601F037FF14B014
:1022C00010BD0000180100202801002010B52DEDE0
:1022D000048B94B0002400BF13E0204602F042FDBE
:1022E00041EC190B9FED1C0B53EC102B02F092FCF0
:1022F00041EC180B02F05CFC0AA941F82400601CB8
:10230000C4B20A2CE9DB00240BE00AA800EB84002D
:1023100090ED000A684600EB840080ED000A601C26
:10232000C4B20A2CF1DB0E4988684FF0FF3102F08D
:102330000BF80C49086900231A46694601F0F6FEBD
:102340000749886800231A46194601F0EFFE14B0C9
:10235000BDEC048B10BD0000000000000080344084
:10236000180100202801002038B504460D468DF8DC
:1023700000408DF801500A49C8684FF0FF3101F064
:10238000E3FF0849886800231A46694601F0CEFE3B
:102390000349C86800231A46194601F0C7FE38BD34
:1023A000180100202801002010B540F2026001F061
:1023B000D9F840F20E6001F0D5F84FF4C06001F09A
:1023C000D1F84FF4007303221821144800F0BCF92F
:1023D0004FF4806303220421104800F0B5F94FF454
:1023E00016510F4801F05AF908210D4801F0ECF997
:1023F00004210B4801F0E0F940F20531084801F0F2
:10240000B2F94FF4407000F0A5FA002211462520E1
:1024100000F03EFA024801F092F910BD00080140B8
:102420000038014010B504462146054801F083F903
:1024300000BF0721024801F087F90028F9D010BD3C
:1024400000380140004870473C01002010B540F2C0
:10245000046001F087F840F2137001F083F84FF444
:10246000C06001F07FF84FF4806303221821144804
:1024700000F06AF94FF4006303220421104800F0D1
:1024800063F94FF416510F4801F008F908210D487F
:1024900001F09AF904210B4801F08EF940F2053160
:1024A000084801F060F94FF4407000F053FA002240
:1024B0001146342000F0ECF9024801F040F910BD5B
:1024C00000100140004C004070B505460E46002447
:1024D00004E0285D00F006F8601CC4B2B442F8DBEA
:1024E00070BD000010B504462146054801F023F9EF
:1024F00000BF0721024801F027F90028F9D010BDDC
:10250000004C004010B54FF0E020006902F046F8A2
:10251000012801D001F032FD10BD000010B51048B7
:10252000006840F470000E4908600E48006840F0F2
:1025300001000C49086000204860C8620846006835
:1025400009490840074908604FF41F0088600846A1
:10255000006820F48020086001F09CF810BD0000A5
:1025600088ED00E000100240FFFFF6FE10B50B48BA
:10257000006801280ED10A480068022804DB002008
:1025800008490880FFF726FB05480068401C0449FD
:10259000086001E0FFF71EFB10BD000014000020E2
:1025A000100000200800002010B50749074801F07E
:1025B000E7F838B1054801F0B9F8C4B2044920463B
:1025C000FFF74EF910BD000005030500004C004068
:1025D0003C01002010B51049104801F0D1F8D0B1ED
:1025E0000E4801F0A3F8C4B20A2C09D00C480D49DA
:1025F000098844540B480088401C0A4908800AE0B6
:1026000000210748074A12888154012006490870B2
:1026100000200449088010BD050305000038014072
:1026200094000020000000200200002003B4019864
:102630004100009850EAC12018BF04204A0D18BF7D
:1026400040F0010040F2FF72B2EB515F08BF40F072
:102650000200012808BF052002B0704730380A2860
:1026600001D2012070470020704710B5044600F0E9
:102670007BF938B100F0BAF820B14FF0FF31206893
:1026800001F062FE10BD000070B50546286801F03B
:1026900065F900240BE0084951F8241028688842A5
:1026A00004D10020044941F8240002E0641C052CF8
:1026B000F1D300BF70BD00005405002070B5044682
:1026C00000202060002514E0154850F8250078B956
:1026D00005EB8500134A02EB0011012001F079FCA3
:1026E0000F4941F82500084650F82500206002E017
:1026F0006D1C052DE8D300BF206830B900F034F917
:1027000018B1012001F054FC2060002080F31188F2
:1027100000BF206808B9002070BD0120FCE7000060
:1027200054050020C403002010B5044600F01CF935
:1027300040B100F05BF828B100231A461946206822
:1027400001F0F4FC10BD7047F0B50C4616460025AC
:10275000002204F00F0504F0100747B1042E05D144
:1027600045F00305C76B1F43C76300E035430021F5
:1027700018E001278F401F4097B102684FEA810C93
:102780000F2707FA0CF7BA438F0005FA07F73A4309
:10279000282C01D1436102E0482C00D10361026082
:1027A0004F1CB9B20829E4D308211CE001278F404F
:1027B0001F40B7B14268A1F108074FEA870C0F2705
:1027C00007FA0CF7BA43A1F10807BF0005FA07F7AB
:1027D0003A43282C01D1436102E0482C00D1036127
:1027E00042604F1CB9B21029E0D3F0BD00BFEFF337
:1027F000058008B9012070470020FCE71CB5FFF7F1
:1028000079F9FFF723FEFFF7CFFD002001210346F2
:102810008022CDE900100EA1104801F05DFE0020DD
:10282000012103468022CDE900100DA10F4801F0DF
:1028300053FE0020012103468022CDE900100CA1A7
:10284000124801F049FE01F009FA00201CBD000009
:102850005461736B2053797374656D0079190008A6
:102860005461736B204750494F000000391900082C
:102870005461736B204D6573736167652054726199
:102880006E736D697373696F6E0000005F190008E5
:102890002DE9F04103460D46164600240027A046C8
:1028A0002A48006800F4E060B0F5E06F03D100BF93
:1028B0004FF0040830E02548006800F4E060B0F50F
:1028C000C06F03D101274FF0030825E01F480068BF
:1028D00000F4E060B0F5A06F02D10227B8461BE01B
:1028E0001A48006800F4E060B0F5806F03D1032758
:1028F0004FF0010810E01548006800F4E060B0F502
:10290000407F03D104274FF0000805E04FF4A0609A
:1029100000F020F80227B846C7F1040005FA00F4D9
:10292000C8F104010F20C840304004432401084886
:10293000C45403F01F01012088405911890001F19E
:10294000E021C1F80001BDE8F08100000CED00E0DD
:1029500000E400E002490143024A116070470000B0
:102960000000FA050CED00E010B501F017FE02289A
:1029700001D1012010BD0020FCE700002DE9F0414D
:1029800005460E462048076820480068001D00F0F4
:1029900023FF681CD8B9D6B11D4948681B4909688E
:1029A00088601A4982680968CA6018490968091D5F
:1029B0008268516015490968091D8160144A1349EC
:1029C00009684A6111460968491C11601AE07C19BE
:1029D0000E4800684460BC4207D20C480168091DDB
:1029E0000C48006800F043FF0CE008480168091D2E
:1029F0000948006800F03BFF08480068844201D2A3
:102A000006480460BDE8F08154000020400000202A
:102A1000102E0020480000204400002070000020FC
:102A200010B5044600F03EFF30480068401C2F49B6
:102A300008602F48006840B92D48046008460068C7
:102A400001280DD100F0ECF90AE02A48006838B9F5
:102A500027480068C06AE16A884201D824480460B7
:102A600025480068401C24490860084600686064E6
:102A70002249E06A0968884202D92049E06A086070
:102A8000E16A01EB81011E4A02EB81014868A06006
:102A90008268E260211D826851608160E16A01EB19
:102AA0008101174A02EB81026261E16A01EB810157
:102AB000134A52F82110491CE26A02EB8202104BC1
:102AC00043F8221000F000FF0A48006868B1084887
:102AD0000068C06AE16A884207D24FF08050094915
:102AE0000860BFF34F8FBFF36F8F10BD5000002001
:102AF000400000205C0000206C00002058000020F6
:102B00006029002004ED00E008B500F0CBFE0E487F
:102B10000068A8B90D4800F09AFE0D4800F097FE35
:102B20000A480C4908600A480B49086000200B4B12
:102B30000B4A10210090052001F089FA0249086033
:102B400000F0C2FE08BD000088000020242E0020F6
:102B5000382E002080000020840000204C2E002011
:102B60009C2E002010B516E000F09CFE0C48C068BA
:102B7000C468201D00F030FE0A480068401E094964
:102B8000086009480068401E0749086000F09CFE84
:102B9000204600F05FF8044800680028E4D110BD2A
:102BA000FC2D0020500000204C00002070B5044691
:102BB0000D46206C70B1216CE0680144E160D4E9FD
:102BC0000210884201D32168E1602846226CE16846
:102BD000FDF702FD70BD2DE9F04104460F46154694
:102BE0004FF00008A66B206C48B9206800282CD153
:102BF000A06801F0B1FD80460020A06025E07DB90D
:102C00003946226C6068FDF7E7FC216C6068084477
:102C10006060D4E90101884217D32068606014E045
:102C20003946226CE068FDF7D7FC216CE068411A58
:102C3000E1602168E068884203D2216CA068411AF3
:102C4000E160022D01D106B1761E701CA0634046E2
:102C5000BDE8F08110B5044694F8590030B9206BF6
:102C600000F042FE204600F03FFE06E094F85900D6
:102C7000012802D1204600F037FE10BD01464A6A05
:102C800022B10A6B1268C2F1380000E000207047E0
:102C90000146084A126812680AB9012200E00022BF
:102CA0000A600A6822B9034A1268D268106800E014
:102CB000002070478000002030B54FF400531548C5
:102CC00000F007042CB1C01D20F00700114C041BBC
:102CD0001B1B0246104C226000240F4D6C60D01864
:102CE000083820F007000D4C206000240B4D2D68A3
:102CF0006C600A4D2D682C601146441A4C60074CDC
:102D000024680C60064D4C682C60064D4C682C60A5
:102D100030BD0000600900202000002028000020B5
:102D2000300000202C00002000BFFFF71BFF0648EA
:102D300000680128F9D94FF0805004490860BFF3BA
:102D40004F8FBFF36F8FF0E76029002004ED00E0A4
:102D500010B5044654B10020A06020600021E1605D
:102D600000231A461946204601F0E0F910BD2DE96E
:102D7000F04106460D4617469846069C0DB924605C
:102D800000E02760E66325640121204601F07EF91A
:102D900084F84C80BDE8F0812DE9F05F81460E4655
:102DA00090469A460A9F0C9C4FEA8801A522206B08
:102DB000FDF757FCA8F10100216B01EB800B2BF014
:102DC000070B7EB1002507E0715D04F13400415529
:102DD000705D00B902E06D1C102DF5D300BF00211D
:102DE00043200155382F00D33727E762E764201DC1
:102DF00000F03AFD04F1180000F036FD2461C7F13F
:102E00003800A061646252464946584600F0E8FA2C
:102E100020600B9808B10B980460BDE8F09F00009B
:102E200010B5002407E004EB84010F4A02EB810097
:102E300000F00DFD641C382CF5D30C4800F007FDA4
:102E40000B4800F004FD0B4800F001FD0A4800F0BB
:102E5000FEFC0A4800F0FBFC0448094908600448ED
:102E60000849086010BD000060290020C02D002026
:102E7000D42D0020E82D0020FC2D0020102E002055
:102E8000440000204800002010B50146164800E02C
:102E9000006803688B42FBD30246436813448B42AD
:102EA00004D143684C682344436001460A464B689A
:102EB00013440468A34211D10C4C03682468A34254
:102EC00008D04B680468646823444B6003681B683F
:102ED0000B6005E0054B1B680B6001E003680B60AD
:102EE000884200D0016010BD200000202800002092
:102EF0002DE9F04104460D4616461F464FF00008E6
:102F000065602461B5420CD8F01BA169884202D3E8
:102F10004FF0010811E0211D0948006800F0A7FCEE
:102F20000BE0BE4204D2BD4202D34FF0010804E0E0
:102F3000211D0448006800F09AFC4046BDE8F0817D
:102F4000840000208000002070B5054600F0AAFC37
:102F5000A86B08B9012400E0002400F0B5FC20466D
:102F600070BD70B5054600F09DFCA86BE96B88420A
:102F700001D1012400E0002400F0A6FC204670BD31
:102F800070B505460E460E480068C068C468201D2E
:102F900000F022FC94F8280000F0040028B132462A
:102FA0002946204600F0D0F805E094F8280000F00B
:102FB000FE0084F828002046216A884770BD000082
:102FC0008000002070B586B077E00298002805DA0E
:102FD00003AED6E90020B168904700BF02980028F0
:102FE0006BDB049C606908B9012000E0002010B987
:102FF000201D00F0F1FB01A800F0D2F80546029870
:103000000A2858D2DFE800F05705072E3647060891
:103010002F3700BF00BF00BF94F8280040F0010028
:1030200084F828000398A269811803462A4620469E
:10303000FFF75EFFA8B194F8280000F0040038B153
:103040000398A26981182A46204600F07DF805E021
:1030500094F8280000F0FE0084F828002046216A39
:10306000884729E000BF94F8280000F0FE0084F8AB
:10307000280021E000BF94F8280040F0010084F807
:1030800028000398A061A06941192B462A462046D2
:10309000FFF72EFF10E094F8280000F0020018B9A6
:1030A000204600F021FC05E094F8280000F0FE0026
:1030B00084F8280000E000BF00BF002202A90448F5
:1030C000006801F0BFF800287FF47FAF06B070BD44
:1030D00088000020F8B505460C4600F00DFE684655
:1030E00000F05EF80646009820BB44B9B54206D809
:1030F00001F06CFC31462846FFF742FF1CE03CB172
:103100000E480068006808B9012000E0002004466D
:10311000A91B22460A48006800F02AFC01F056FC70
:1031200050B94FF0805007490860BFF34F8FBFF38D
:103130006F8F01E001F04AFCF8BD00008400002020
:103140008800002004ED00E070B504460D461646E8
:1031500004E0A06905442046216A8847A069411916
:103160002B4632462046FFF7C3FE0028F1D170BD42
:1031700009480068006808B9012000E0002020B17B
:103180004FF0FF300549086005E003480068C0685B
:103190000068024908607047440000207000002069
:1031A00070B5044601F00AFA0546074800688542F2
:1031B00004D200F00BF80120206001E00020206024
:1031C00001480560284670BD9000002070B508E0F9
:1031D0000D480068C06804684FF0FF312046FFF7D3
:1031E000CFFE09480068006808B9012000E000200F
:1031F0000028EDD0044805680448006802490860CA
:103200000248056070BD000080000020840000209E
:1032100000BF102080F31188BFF34F8FBFF36F8F73
:1032200000BF00BFFEE710B50346002022B903EA45
:10323000010434B1012004E003EA01048C4200D10E
:10324000012010BD08B500BF6846FFF721FD044608
:1032500020460099FFF73EFFFFF7B4FEF4E770B594
:10326000044600F01FFB94F9455010E0606A08B96D
:10327000012000E0002038B904F1240001F022FB15
:1032800018B100F0C1FB00E003E0681E45B2002D5C
:10329000ECDC00BFFF2084F8450000F015FB00F0D7
:1032A00001FB94F9445010E0206908B9012000E0C6
:1032B000002048B904F1100001F004FB08B100F04F
:1032C000A3FB681E45B200E001E0002DECDC00BF6E
:1032D000FF2084F8440000F0F7FA70BD2DE9F047B4
:1032E00005464FF0000900F007FD3048006808B9B6
:1032F000FFF7E2FC75B105F00700C0F11008C8F156
:10330000FF30A84201D2012000E0002008B9454466
:1033100000E00025012000EBE570002841D0002DE1
:103320003FD02348006885423BD8224E304604688F
:1033300001E0264624686068A84202D2206800287E
:10334000F7D11A48006884422BD0306800F1080990
:10335000206830606068401B102807D967196068D2
:10336000401B786065603846FFF78EFD1049606845
:103370000968081A0E490860084600680E4909687D
:10338000884203D20A4800680B490860606840F030
:10339000004060600020206008480068401C074929
:1033A000086001F013FB4846BDE8F08728000020C4
:1033B0002C000020200000203000002034000020DD
:1033C0000648006830B10549096801F15000096DEF
:1033D000491C01600148006870470000400000205F
:1033E000001F4FF080730360001F21F00103036092
:1033F000001F054B036014380260001F6FF00203CA
:103400000360203870470000113200082DE9F04FAA
:103410008CB0074600200A904AA090E8004CC06893
:10342000CDE905BECDF810A007900FF21C1ADAE91D
:10343000000ACDE9020A0FF2101ADAE9000ACDE912
:10344000000A44484068C0F381000B900B9820B1FB
:10345000012804D002283FD103E03F4A3EE03E4A23
:103460003CE03C48406800F4803CBCF5803F12D111
:103470003848C06A00F08048B8F1000F01D1364CDE
:1034800000E0364C3348406800F40039B9F5003F9D
:1034900002D1334C00E0324C2E484068C0F38341E7
:1034A0002C48406800F0006008B141F01001294844
:1034B000406800F0804008B141F020010F2901D29E
:1034C000891C06E00F2903D33E2901D8491C00E0DE
:1034D0003F2104FB01F201E01F4A00BF00BF1D486D
:1034E0004068C0F3031504A8465D22FA06F31948A4
:1034F0004068C0F3022502A8465D23FA06F0099051
:1035000014484068C0F3C2251DF8056023FA06F090
:10351000089037B1012F06D0022F06D0032F0AD111
:1035200006E00A9208E00A9306E009980A9003E090
:1035300008980A9000E000BF00BF0A980CB0BDE8F0
:10354000F08F0000000000000000000001020304F2
:10355000060708090010024000127A00006CDC0225
:1035600000093D00064A02EB9011096800F01F03B4
:1035700001229A401143024B03EB901211607047F5
:1035800000100240002000213E4A126842F48032BE
:103590003C4B1A6000BF401C3A4A126802F40031EA
:1035A00011B9B0F5006FF6D1364A126802F4003254
:1035B0000AB900BFFEE7334AD26942F08052314B6C
:1035C000DA61314A126842F440422F4B1A602D4AA8
:1035D00052682C4B5A601A4652685A601A46526812
:1035E00042F480625A601A46526822F440325A60AD
:1035F0001A46526842F440325A601A465268234BC7
:103600001A40204B5A601A465268214B1A431D4BF0
:103610005A601A46126842F080721A6000BF194A56
:10362000126802F00072002AF9D0174A126842F4B8
:103630008032154B1A6000BF134A526802F4803280
:10364000002AF9D0104A126842F400320E4B1A6078
:1036500000BF0D4A526802F40032002AF9D0094A2C
:10366000526822F00302074B5A601A46526842F031
:1036700002025A6000BF034A526802F00802002AA0
:10368000F9D070470010024000700040FFFFC3B740
:103690000000340810B5FFF775FF10BD2DE9F047A5
:1036A00004460D460027B846B94600261D49601A53
:1036B0008C421CD006DC1C48204470B1B0F5806FF1
:1036C0001FD10FE0B0F5806F16D0B0F56C4F18D158
:1036D0000320FFF79BFE074614E00220FFF796FE4B
:1036E00007460FE00220FFF791FE07460AE002209E
:1036F000FFF78CFE074605E00220FFF787FE07462E
:1037000000E000BF00BF07EB5500B0FBF5F64FF639
:10371000F07006EA000806F00F0948EA0900A06008
:10372000BDE8F087004C004000BCFFBF0146486880
:10373000C0F308007047C1F3080242607047C168D7
:1037400041F40051C160704710B5024602EB911080
:10375000006801F01F040123A340184008B10120B4
:1037600010BD0020FCE710B5C1F38912825801F0AA
:103770001F040123A3401A43C1F38913C25010BD93
:1037800070B5024600230024C1F38910105801F0DF
:103790001F060125B54000EA050302EB91500068C1
:1037A000C1F304460125B54000EA050414B10BB18C
:1037B000012070BD0020FCE70A460021C16821F00D
:1037C00004011143C16070470A460021C16821F01D
:1037D00008011143C160704701460A69D1E901300F
:1037E0009860D1E9010358605068884201D1886827
:1037F0005060002008611068401E1060106870471B
:1038000005490968886904490968C96AC1F138012C
:10381000014A12689161704740000020034B036029
:10382000034B0B6080231360704700006805002085
:10383000C4050020034B0360034B0B60502313604F
:1038400070470000C407002020080020704700F1E6
:10385000080141604FF0FF31816000F10801C16053
:10386000016100210160704700210161704710B5BE
:1038700002460B685C1C0CB9106907E002F10800F5
:1038800000E04068446824689C42FAD944684C606F
:103890004C68A160886041600A611468641C14600F
:1038A00010BD000000BF102080F31188BFF34F8FC0
:1038B000BFF36F8F00BF03480068401C01490860D8
:1038C000704700003C00002006480068401E054983
:1038D00008600846006820B9002080F3118800BF06
:1038E00000BF70473C00002070B506463546E6B183
:1038F000083D2C466068C00FB8B12068A8B9606860
:1039000020F00040606000F0F7F90849606809683D
:103910000844064908602046FFF7B6FA04480068E4
:10392000401C0349086001F051F870BD2C000020D4
:103930003800002000204FF0E0210861886106482F
:1039400000684FF47A71B0FBF1F0401E4FF0E021B7
:1039500048610720086170471C00002070B50446CC
:10396000254695F8460010B92846FFF7BDFF70BD03
:103970002DE9F04105460E4617462C46FFF792FF0B
:1039800094F94400401C10B9002084F8440094F9D4
:103990004500401C10B9002084F84500FFF794FF53
:1039A000A06B28B93A46314604F1240000F042F8F1
:1039B0002046FFF754FCBDE8F081000070B50446D6
:1039C000002544B100F098F900212046FEF7D6FF0B
:1039D00000F0FCFF05463DB94FF0805003490860F8
:1039E000BFF34F8FBFF36F8F70BD000004ED00E099
:1039F0000349096801600349096841607047000094
:103A00006800002054000020012001490860704730
:103A10006400002070B505460C4605480168183161
:103A20002846FFF724FF01212046FEF7A7FF70BDBF
:103A30004000002070B504460E46154660680F49E8
:103A40000968C8610D49826809680A620B490968FA
:103A50001831826851600949096818318160074945
:103A600009688C622168491C21600DB14FF0FF3656
:103A700029463046FEF782FF70BD0000400000205E
:103A800070B504460D46164645F000400F490968DA
:103A9000886160680D490968C8610C4982680968D5
:103AA0000A620A4909681831826851600749096841
:103AB00018318160054909688C622168491C2160C0
:103AC00001213046FEF75AFF70BD00004000002083
:103AD0002DE9F04706460F4634464FF00109002E07
:103AE0004FD0E06CB84201D23D4600E0E56CE06AA0
:103AF000A84246D0206D012843D1D4F82C80E5623D
:103B0000A06900F0004010B9C5F13800A06108EBD1
:103B100088011D4A02EB81016069884201D10120C0
:103B200000E0002068B3201DFFF756FE1749E06A49
:103B30000968884202D91549E06A0860E16A01EB28
:103B40008101114A02EB81014868A0608268E2604D
:103B5000211D826851608160E16A01EB81010A4A9E
:103B600002EB81026261E16A01EB8101064A52F8CF
:103B70002110491CE26A02EB8202034B43F8221037
:103B800000BFBDE8F0870000602900205800002039
:103B900070B502460B4643F000411160D0681169D0
:103BA000D2E90154AC60D2E901456C604C689442A2
:103BB00001D194684C60002414610C68641E0C6090
:103BC0004169D0E90245A560D0E902546560041D51
:103BD0004D68A54201D1C4684C60002545610C6860
:103BE000641E0C60194CC16A2468A14202D9174CAA
:103BF000C16A2160C46A04EB8404154D05EB84049A
:103C0000616881608D68C560041D8D686C608C6022
:103C1000C46A04EB84040E4D05EB84054561C46A57
:103C200004EB84040A4D55F82440641CC56A05EB76
:103C30008505074E46F82540064CC16A2468E46AAB
:103C4000A14202D90121044C216070BD580000201E
:103C500060290020400000206400002010B586B0DC
:103C600000200590049003AA04A905A8FFF7D6FD3B
:103C70000022DDE904101346CDE90021029016A1CF
:103C80001748039A00F05EFC164908600846006871
:103C900008B1012400E00024012C02D100F042FF11
:103CA0000446012C14D100BF102080F31188BFF30B
:103CB0004F8FBFF36F8F00BF4FF0FF300A4908608E
:103CC00001200A49086000200949086000F032F923
:103CD0000848006806B010BD49444C45000000008B
:103CE000292D000874000020700000205C000020D6
:103CF000540000207800002002480068401C014960
:103D0000086070477C00002070B52648006818B134
:103D100001202549086043E000202349086023482A
:103D20000068046B4FF0A5352068B0F1A53F0BD1BA
:103D30006068B0F1A53F07D1A068B0F1A53F03D1FD
:103D4000E068B0F1A53F05D018480168343100683B
:103D5000FFF77CFD1648016800E0491E01EB810079
:103D6000144A52F8200008B9012000E00020002881
:103D7000F3D101EB81020F4B03EB820042685268E2
:103D8000426000F108024368934202D142685268DF
:103D900042604268D268054B1A600548016000BF66
:103DA00070BD00007C000020640000204000002066
:103DB000580000206029002010B52020FFF78EFA5F
:103DC000044634B100202060201DFFF740FD002094
:103DD0002077204610BD2DE9FE4F0646894600207B
:103DE00001903446009004F1040B0BF1080002909E
:103DF000FFF782FFDBF80C70206840EA09002060C2
:103E000026E0D7F804A03D680020009005F07F4828
:103E100025F07F4508F0806028B92068284040B12F
:103E20000120009005E020682840A84201D101202F
:103E30000090009858B108F0807010B101982843A4
:103E40000190206840F000713846FFF7A1FE574608
:103E500002988742D5D1206801998843206000F0FC
:103E6000B5FD2068BDE8FE8F2DE9FF5F80460E4658
:103E700017469946DDF838A044464FF0000B002065
:103E80000190FFF739FF206800904A4631460098BC
:103E9000FFF7C9F90390039830B1009DDA46CFB11E
:103EA0002068B043206015E0BAF1000F03D1009DF7
:103EB000012001900EE00FB14BF0807BB9F1000FB3
:103EC00001D04BF0806B46EA0B015246201DFFF7F4
:103ED000D7FD002500F07AFD0290BAF1000F22D044
:103EE000029838B94FF0805011490860BFF34F8FE6
:103EF000BFF36F8FFFF784FC054605F0007080B9B3
:103F0000FFF7D0FC25684A4631462846FFF78BF973
:103F100018B117B12068B043206001200190FFF76D
:103F2000D3FC25F07F45284604B0BDE8F09F000093
:103F300004ED00E010B50E48006840F47F000C4925
:103F400008600846006840F07F400860FFF7F2FC18
:103F5000002008490860FCF779F90748006840F03C
:103F6000404005490860FCF75DF9002010BD0000E5
:103F700020ED00E03C00002034EF00E010B500BF71
:103F8000102080F31188BFF34F8FBFF36F8F00BFF6
:103F900000F01AFB18B14FF080500449086000BFD0
:103FA000002080F3118800BF10BD000004ED00E088
:103FB0002DE9F04104460126002722460021012078
:103FC00000F01CF805462846FEF7C2FE2846BDE86C
:103FD000F0812DE9F84304460D4601274FF0000813
:103FE0002B46002211460120009400F030F80646CE
:103FF0003046FEF7ADFE3046BDE8F8832DE9F843C4
:1040000005460E4617460024F5B1601EB0FBF5F0DC
:10401000B04219D305FB06F010F1510F14D805FB7F
:1040200006F909F15000FFF759F9044664B1A046BA
:1040300008F15008002084F846003B4642463146CD
:1040400028460094FEF793FE2046BDE8F8832DE94C
:10405000F84380460D4616461C46DDF820900027A2
:10406000B8F1000F0FD074B106B165B106B955B9FA
:104070002746012087F846004B46324629464046EF
:104080000097FEF774FE3846BDE8F8832DE9F0414D
:1040900005460E4601272C46002C41D0E06B002837
:1040A0003ED0B91EE06BB1FBF0F0216C884237D3F3
:1040B000FFF7F8FBD4E90F12206801FB0200A060B3
:1040C0000020A06320686060E06B401E226C2168C5
:1040D00000FB0211E160FF2084F8440084F84500F1
:1040E0009EB9206908B9012000E00020A8B904F1B8
:1040F000100000F0E7FB80B14FF080500A490860E3
:10410000BFF34F8FBFF36F8F07E004F11000FFF78D
:104110009EFB04F12400FFF79AFBFFF7D5FB00E0BC
:1041200000273846BDE8F08104ED00E02DE9FF43AB
:1041300083B0074688461D464FF000093C4600BF45
:10414000FFF7B0FBA06BE16B884201D3022D28D1B1
:104150002A4641462046FEF73EFD0646606A08B9FB
:10416000012000E0002068B904F1240000F0AAFB5F
:1041700088B14FF0805032490860BFF34F8FBFF3D2
:104180006F8F08E03EB14FF080502D490860BFF3BB
:104190004F8FBFF36F8FFFF797FB012007B0BDE88C
:1041A000F083059818B9FFF78FFB0020F6E7B9F107
:1041B000000F04D101A8FFF71BFC4FF00109FFF726
:1041C00083FBFFF799FDFFF76DFB94F94400401C5A
:1041D00010B9002084F8440094F94500401C10B93F
:1041E000002084F84500FFF76FFB05A901A800F047
:1041F00043F9F0B92046FEF7B4FEA0B104F1100077
:104200000599FFF707FC2046FFF729F800F0DEFBD1
:10421000002895D14FF0805009490860BFF34F8FB7
:10422000BFF36F8F8CE72046FFF719F800F0CEFB45
:1042300086E72046FFF713F800F0C8FB0020ADE743
:1042400004ED00E02DE9F74183B005460F464FF03D
:1042500000082C4600BFFFF725FBA66BF6B13946D8
:104260002046FEF7A3FC701EA063206908B9012058
:1042700000E0002060B904F1100000F023FB38B129
:104280004FF080502F490860BFF34F8FBFF36F8FFF
:10429000FFF71AFB012006B0BDE8F081059818B9B8
:1042A000FFF712FB0020F6E7B8F1000F04D101A8D8
:1042B000FFF79EFB4FF00108FFF706FBFFF71CFD21
:1042C000FFF7F0FA94F94400401C10B9002084F87C
:1042D000440094F94500401C10B9002084F84500C2
:1042E000FFF7F2FA05A901A800F0C6F8F0B92046D8
:1042F000FEF72AFEA0B104F124000599FFF78AFB1E
:104300002046FEF7ACFF00F061FB0028A3D14FF080
:1043100080500C490860BFF34F8FBFF36F8F9AE74F
:104320002046FEF79CFF00F051FB94E72046FEF785
:1043300096FF00F04BFB2046FEF706FE00288AD0D1
:104340000020A8E704ED00E02DE9F34182B0054626
:1043500000272C46B84600BFFFF7A4FAA66BFEB1B3
:10436000701EA063206810B9FFF72AF8A0602069CA
:1043700008B9012000E0002060B904F1100000F04D
:10438000A1FA38B14FF080503A490860BFF34F8F1F
:10439000BFF36F8FFFF798FA012004B0BDE8F081FA
:1043A000039818B9FFF790FA0020F6E71FB968469E
:1043B000FFF71EFB0127FFF787FAFFF79DFCFFF7CA
:1043C00071FA94F94400401C10B9002084F84400AC
:1043D00094F94500401C10B9002084F84500FFF70F
:1043E00073FA03A9684600F047F840BB2046FEF781
:1043F000ABFDF0B1206838B9FFF754FAA06800F0BF
:10440000F5F98046FFF760FA04F124000399FFF7FD
:1044100001FB2046FEF723FF00F0D8FA00289BD1CD
:104420004FF0805013490860BFF34F8FBFF36F8F79
:1044300092E72046FEF713FF00F0C8FA8CE720460B
:10444000FEF70DFF00F0C2FA2046FEF77DFD0028C2
:1044500082D0B8F1000F0BD0FFF724FA2046FEF708
:104460000DFC06463146A068FFF732FBFFF72CFA39
:10447000002092E704ED00E070B506460C46FFF719
:1044800011FA134802687068131A2068401C08B9B2
:10449000002519E00F4930680968884206D0706825
:1044A000904203D80125002020600DE0206898424A
:1044B00007D92068C01A20603046FFF799FA002516
:1044C00002E0002020600125FFF7FEF9284670BDBC
:1044D00054000020680000202DE9FF4F85B0804681
:1044E00089461746DDE912ABB800FEF7F7FE06462F
:1044F00076B15C20FEF7F2FE04462CB15C2120462A
:10450000FCF7D9F8266304E03046FFF7EDF900E048
:1045100000248CB1002084F85900CDE900ABCDE92E
:1045200002403A4649464046089BFEF735FC204685
:10453000FEF776FA012501E04FF0FF35284609B075
:10454000BDE8F08F2DE9F04F85B0074688469146CB
:104550009A46DDE90EB6109CCCB1C6B125465C2169
:104560002846FCF7A8F82E63022085F859000020A1
:1045700004A953464A46CDE900B1CDE9025041466F
:104580003846FEF709FC2846FEF74AFA01E000200B
:104590000490049805B0BDE8F08F00000549096853
:1045A00009B9012005E00449096809B9022000E0C1
:1045B000002070475C0000207C0000200149086852
:1045C00070470000540000202DE9F04100275748B3
:1045D000006800287DD156480068451C5448056095
:1045E0008DB95448D0F8008053480068514908609C
:1045F0005148C0F8008051480068401C4F4908608D
:10460000FEF7B6FD00BF4E480068854275D300BF77
:1046100048480068006808B9012000E0002020B187
:104620004FF0FF304649086066E042480068C068C5
:10463000C4686668B54202D2414806605CE06069C1
:10464000D4E902128A60D4E902214A60211D42683D
:104650008A4201D1E1684160002262610168491E1D
:104660000160A06A98B1A06AD4E907128A60D4E90F
:1046700007214A6004F1180142688A4201D1216A87
:1046800041600022A2620168491E016000BF2D49FD
:10469000E06A0968884202D92A49E06A0860E16A4A
:1046A00001EB8101284A02EB81014868A060826821
:1046B000E260211D826851608160E16A01EB810145
:1046C000214A02EB81026261E16A01EB81011E4A2B
:1046D00000E022E052F82110491CE26A02EB82025B
:1046E000194B43F822101949E06A0968C96A8842DF
:1046F0008ED901278CE700E000BF14480068C06A2B
:1047000000EB8000104951F82000012800D9012752
:104710000F48006800B1012704E00E480068401C03
:104720000C4908603846BDE8F08100007C0000209C
:1047300054000020440000204800002068000020B1
:104740007000002058000020602900204000002058
:10475000640000206000002070B505462C4600264D
:10476000002D3CD0206D401E2065E16CE06A88423F
:1047700035D0206D98BB201DFFF72EF8E06CE0626D
:10478000E06AC0F13800A0611649E06A0968884211
:1047900002D91449E06A0860E16A01EB8101124A1A
:1047A00002EB81014868A0608268E260211D826896
:1047B00051608160E16A01EB81010B4A02EB8102E9
:1047C0006261E16A01EB8101074A52F82110491C3C
:1047D000E26A02EB8202044B43F8221001263046C3
:1047E00070BD0000580000206029002070B505460B
:1047F0002C460026002D5CD02F49E06A0968C96A62
:1048000088424FD2A06900F0004028B92A480068C9
:10481000C06AC0F13800A061E16A01EB8101274A5A
:1048200002EB81016069884201D1012000E0002093
:1048300088B3201DFEF7D0FF1F480068C06AE06201
:104840001F49E06A0968884202D91D49E06A086088
:10485000E16A01EB8101194A02EB81014868A0601D
:104860008268E260211D826851608160E16A01EB2B
:104870008101124A02EB81026261E16A01EB81016E
:104880000E4A52F82110491CE26A02EB82020B4BDD
:1048900043F8221004E0FFE707480068C06AE062BE
:1048A000012606E00449E06C0968C96A884200D222
:1048B0000126304670BD0000400000206029002025
:1048C0005800002070B50346D868C168886AD1E9ED
:1048D0000745A560D1E90754656001F118044568F2
:1048E000A54201D10C6A446000258D620468641EF3
:1048F00004603048006800283CD14869D1E902458D
:10490000A560D1E9025465600C1D4568A54201D13E
:10491000CC68446000254D610468641E0460264C28
:10492000C86A2468A04202D9234CC86A2060CC6AB5
:1049300004EB8404214D05EB84046068886085687D
:10494000CD600C1D85686C608460CC6A04EB8404C7
:104950001A4D05EB84054D61CC6A04EB8404174DB8
:1049600055F82440641CCD6A05EB8505134E46F8C6
:10497000254010E0124C6068C86185680D6201F145
:10498000180485686C6084600D4D8D622C46246827
:10499000641C2C6000BF0B4CC86A2468E46AA04207
:1049A00004D901220120084C206000E000221046BA
:1049B00070BD00007C00002058000020602900200D
:1049C000E82D0020400000206400002070B5002485
:1049D0000026FEF767FF4A480068401E4849086005
:1049E0000846006800287DD146480068002879D034
:1049F0005AE04548C068C468A06AD4E907128A60D2
:104A0000D4E907214A6004F1180142688A4201D1C1
:104A1000216A41600022A2620168491E016060694A
:104A2000D4E902128A60D4E902214A60211D426859
:104A30008A4201D1E1684160002262610168491E39
:104A400001603249E06A0968884202D92F49E06A68
:104A50000860E16A01EB81012D4A02EB810148689F
:104A6000A0608268E260211D826851608160E16A15
:104A700001EB8101264A02EB81026261E16A01EBEE
:104A80008101234A52F82110491CE26A02EB82029A
:104A90001F4B43F822101F49E06A0968C96A88421F
:104AA00002D301201C4908601748006808B901209A
:104AB00000E0002000289CD00CB1FEF759FB1748FD
:104AC000056865B100BFFFF77FFD10B101201249F5
:104AD00008606D1E002DF6D10020104908600E48B8
:104AE000006800E008E038B1012630070C49086092
:104AF000BFF34F8FBFF36F8FFEF7E6FE304670BDFA
:104B00007C00002050000020E82D002058000020EC
:104B10006029002040000020640000206000002088
:104B200004ED00E010B586B00024FDF7EDFF10485D
:104B30000068D0B100200590049003AA04A905A83C
:104B4000FEF778FE2822DDE904100023CDE90021DC
:104B5000029008A10948039AFFF7F4FC084908608D
:104B60000846006800B1012400BF204606B010BD11
:104B700088000020546D722053766300453200088F
:104B80008C00002010B500290AD00878002807D032
:104B900005487844FCF7B6F9002801D0002010BD84
:104BA0000248784410BD00007E0500007605000034
:104BB00021F00042A2F16052B2F5801F01F00043E3
:104BC00028BFD2F17F6C0BD95FEA001C43EAC20216
:104BD00042EB507018BF704728BF20F001007047AB
:104BE000B2F5801FBCBF184670474FEA410C1CF558
:104BF000001F02D2084600F00CBA70B500F0C5F8EC
:104C000000000089FFF7F6BF4FF00040A0F58000DC
:104C10007047000010B591EA030F48BF83F00043CE
:104C200000F11081841A71EB030C05D2121943EBC9
:104C30000C03001B61EB0C01DFF824E14FEA115477
:104C4000A4EB135C1EEA430F18BF9EEA445F73D0C7
:104C500023EA0E03DCF1200E21EA045143F4801311
:104C600032D322FA0CFE10EB0E0023FA0CFE41EBBD
:104C70000E01CCF1200E03FA0EFE10EB0E0051F1E6
:104C80000001B1F5801FCCF1200E32D201EB0451AE
:104C900012FA0EF2BDE8104058BF7047401C38BFF2
:104CA0005FEA420218BF7047002814BF20F00100DD
:104CB00041F100014FEA410313F5001F38BF70476F
:104CC000A1F1C04100F0AFB8012A43EB0302ACF1FF
:104CD000200CDCF11F0E32BF4FF0000E23FA0CF354
:104CE00010EB030041EB0451B4EB115FD0D0A1EB0A
:104CF000045101F5801149085FEA300001EB0451CD
:104D00000ED350F1000038BF12FA0EFE08D1BDE8F4
:104D10001040C9E7401C38BF5FEA4202CAD1C3E76E
:104D2000BDE810404FEA410313F5001F38BF70473C
:104D3000A1F1C04100F077B89EEA445F08D011EAC3
:104D40005E0FBDE8104004BF01F000410020704735
:104D5000BDE8104070B500F018F800BF64FBBE3E1F
:104D60000000E0FFB0FA80F310FA03F10AD0C3F1BB
:104D70001D0303F580634FEA41504FEA035202EBF3
:104D8000D12170474FF0000070470EF1020E2EF057
:104D9000030E5EF8046B364205D4012A43EB03058B
:104DA00015F5001F12D8012841EB010C1CF5001F5E
:104DB0000CD80ED14FEAD17C15F5001F0CEB4C0C32
:104DC0000CF1020C08BF4CEBD37C04E04FF0080C54
:104DD00001E04FEAD37C0CEB4C0526FA05F606F011
:104DE0000706B6F1040C06D20EEB860CBDE8704047
:104DF0004CF0010C6047DFE80CF0090B02024FF0A9
:104E000000414FF00000A1F5002170BD1946104689
:104E1000012851EB010418BFD4F5001484BF002011
:104E200001F0004170BD0808A0F500114FEA310102
:104E30007047000010B591EA030F48BF83F00043AC
:104E40003FF5F0AE841A71EB030C07D212198CF007
:104E5000004C43EB0C03001B61EB0C01DFF8A4E1F9
:104E60004FEA1154A4EB135C1EEA430F18BF9EEAED
:104E7000445F00F0B08023EA6E03524221EA0451FD
:104E8000C3EB6E0338BF5B1EDCF1200E25D322FA84
:104E90000CFE10EB0E0043FA0CFE41EB0E01CCF1C0
:104EA000200E03FA0EFE10EB0E0051F10001CCF1C2
:104EB000200E29D412FA0EF201EB0451BDE8104085
:104EC00058BF7047401C1CBFB2F1004F704700280C
:104ED0000CBF491C20F00100704712EB020E43EB9F
:104EE000030218BF4FF0010E4EEA4202ACF1200C53
:104EF000DCF11E0E54D943FA0CFE10EB0E0051F1FA
:104F0000FF31CCF11E0ED5D50EF1010E12FA0EFEB8
:104F1000404141EB010101EB445C5FEA5C5C10D96C
:104F200010EBDE7001EB045138BFBEF1004FBDE85D
:104F3000104018BF704700280CBF491C20F001002A
:104F4000704730D24FEAD42C11F5001124F40064DC
:104F50001BD0B1FA81F20B3AA41AA41ED2F120039D
:104F6000914030FA03F31943904001EBCC71002CCF
:104F700001EB0451BDE81040A8BF704701F1C041EA
:104F80004FF0000001F000417047B0FA80F310FAD2
:104F900003F100D110BDE41A173C4805C90AE4E743
:104FA00001EB045110BD491001EB0451BDE8104064
:104FB0004FEA300002E04FF0000170474A0008BF9E
:104FC0000042F8D0B2F5001F28BF704701F0004141
:104FD0004FF0000070479EEA445F07D011EA5E0F71
:104FE000BDE8104004BF002100207047BDE810401C
:104FF00070B5FFF7CAFE00BF40DFF63E83F0004108
:10500000104670470000E0FF4FF04070E1EE100ADC
:105010007047FF2141EAD050C0057047FBF7A7BC9D
:1050200030313233343536373839414243444546DE
:1050300040305800303132333435363738396162D8
:1050400063646566403078000400000800000000DA
:1050500000000002000100001000000002400000FB
:10506000000000A00000000005400000000000C893
:10507000000000000C4000000000409C0000000008
:10508000194000000020BCBE0000000034400000B9
:10509000BFC91B8E00000004B5400000504BCFD0AC
:1050A0006607E2CF010000006C4100003E8251AA79
:1050B000DFEEA73401000000D9420000DCB5A0E219
:1050C0003A301F97FFFFFFFFB4450000FD25A0C841
:1050D000E9A3C14FFFFFFFFFFF3F0000000000807A
:1050E00000000000FF3F0000000000800000000002
:1050F0002C51000800000020940000006C01000802
:10510000C051000894000020BC360000880100084F
:105110001C00000043000000F8FFFFFF0C0000002F
:105120000E0000000F0000002E0000000000000034
:10513000000000000000000000000000000000006F
:105140000000000000000000000E27070000000023
:10515000000000000000000000000000000000004F
:105160000000000000000000AAAAAAAA0000000097
:10517000000000000000000000000000000000002F
:10518000000000000000000000000000000000001F
:10519000000000000000000000000000000000000F
:1051A00000000000370000000000000000000000C8
:1051B00000000000000000000000000000000000EF
:0400000508000131BD
:00000001FF
