:020000040800F2
:100000000036002099020008A1020008A30200089F
:10001000A5020008A7020008A902000800000000CD
:10002000000000000000000000000000D9010008EE
:10003000AD02000800000000350200087D05000840
:10004000B3020008B3020008B3020008B3020008BC
:10005000B3020008B3020008B3020008B3020008AC
:10006000B3020008B3020008B3020008B30200089C
:10007000B3020008B3020008B3020008B30200088C
:10008000B3020008B3020008B3020008B30200087C
:10009000B3020008B3020008B3020008B30200086C
:1000A000B3020008B3020008B3020008B30200085C
:1000B000B3020008B3020008B3020008B30200084C
:1000C000B3020008B3020008B3020008B30200083C
:1000D000B3020008B3020008B3020008B30200082C
:1000E000B3020008B3020008B3020008B30200081C
:1000F000B3020008B3020008B3020008B30200080C
:10010000B3020008B3020008B3020008B3020008FB
:10011000B3020008B3020008B3020008B3020008EB
:10012000B3020008B3020008B3020008B3020008DB
:1001300000F002F800F03CF80AA090E8000C8244BD
:100140008344AAF10107DA4501D100F031F8AFF29A
:10015000090EBAE80F0013F0010F18BFFB1A43F0A5
:100160000103184798230000B8230000103A24BF69
:1001700078C878C1FAD8520724BF30C830C144BF0C
:1001800004680C607047000000230024002500264E
:10019000103A28BF78C1FBD8520728BF30C148BFEA
:1001A0000B6070471FB502F0A3F91FBD10B510BD5D
:1001B00000F05DF9114603B400F076FA03BCFFF7D6
:1001C000F1FF00F0C9FA00F077F903B4FFF7EEFF92
:1001D00003BC00F07FF900002C4B19680868B0E8F8
:1001E000F04F80F30988BFF36F8F4FF0000080F36A
:1001F000118870470000000008480068006880F31C
:1002000008884FF0000080F3148862B661B6BFF32F
:100210004F8FBFF36F8F00DF00BF00BF08ED00E01E
:10022000DFF80C00016841F470010160704700BF05
:1002300088ED00E0EFF30980BFF36F8F134B1A686E
:100240001EF0100F08BF20ED108A20E9F04F10605B
:1002500009B44FF0100080F31188BFF34F8FBFF344
:100260006F8F01F0CDFA4FF0000080F3118809BCC8
:1002700019680868B0E8F04F1EF0100F08BFB0EC26
:10028000108A80F30988BFF36F8F70473400002015
:10029000EFF3058070470000094880470948004790
:1002A000FEE7FEE7FEE7FEE7FEE7FEE7FEE7FEE726
:1002B000FEE7FEE704480549054A064B7047000083
:1002C0009505000831010008002E002000360020AE
:1002D0000032002000320020032A40F2308010F06B
:1002E000030C00F0158011F8013BBCF1020F6244D1
:1002F00098BF11F801CB00F8013B38BF11F8013B62
:10030000A2F1040298BF00F801CB38BF00F8013B0E
:1003100011F0030300F03080083AC0F0088051F873
:10032000043B083A51F804CBA0E80810F5E7121D89
:100330005CBF51F8043B40F8043BAFF30080D207A8
:1003400024BF11F8013B11F801CB48BF11F8012B74
:1003500024BF00F8013B00F801CB48BF00F8012B97
:10036000704702F0FF0343EA032242EA024200F030
:1003700037B870477047704710B5203AC0F00B800F
:10038000B1E81850203AA0E81850B1E81850A0E899
:100390001850BFF4F5AF5FEA027C24BFB1E81850F3
:1003A000A0E8185044BF18C918C0BDE810405FEA63
:1003B000827C24BF51F8043B40F8043B08BF7047DF
:1003C000D20728BF31F8023B48BF11F8012B28BFE4
:1003D00020F8023B48BF00F8012B70474FF00002A5
:1003E0000429C0F0128010F0030C00F01B80CCF147
:1003F000040CBCF1020F18BF00F8012BA8BF20F8B5
:10040000022BA1EB0C0100F00DB85FEAC17C24BF08
:1004100000F8012B00F8012B48BF00F8012B7047B2
:100420004FF0000200B5134694469646203922BF8D
:10043000A0E80C50A0E80C50B1F12001BFF4F7AFD8
:10044000090728BFA0E80C5048BF0CC05DF804EBBA
:10045000890028BF40F8042B08BF704748BF20F828
:10046000022B11F0804F18BF00F8012B7047754622
:1004700000F02CF8AE4605006946534620F0070010
:10048000854618B020B5FFF715FFBDE820404FF0B6
:1004900000064FF000074FF000084FF0000B21F06E
:1004A0000701AC46ACE8C009ACE8C009ACE8C0093B
:1004B000ACE8C0098D46704710B50446AFF3008024
:1004C0002046BDE81040FFF780BE0000004870479E
:1004D000A02D002001491820ABBEFEE72600020037
:1004E0007047000011E0094802784FF48071084815
:1004F00000F0DBF80548006808B9012000E00020A2
:1005000002490860642001F063F8ECE70000002075
:100510000010014012E00A4802784FF400710948C7
:1005200000F0C3F80648006808B9012000E0002088
:10053000034908604FF47A7001F04AF8EBE70000D5
:10054000040000200010014012E00A4802784FF435
:100550008071094800F0A9F80648006808B9012030
:1005600000E00020034908604FF4FA7001F030F811
:10057000EBE70000080000200008014010B54FF034
:10058000E020006901F0C0FC012801D001F0B4F9BD
:1005900010BD000010B51048006840F470000E490E
:1005A00008600E48006840F001000C490860002017
:1005B0004860C86208460068094908400749086061
:1005C0004FF41F0088600846006820F4802008600F
:1005D00000F010FF10BD000088ED00E000100240A8
:1005E000FFFFF6FE10B5044600F00CF920B14FF005
:1005F000FF31206801F066FB10BD000070B50546B4
:10060000286800F0B5FF00240BE0084951F82410D9
:100610002868884204D10020044941F8240002E0FF
:10062000641C052CF1D300BF70BD0000080400203D
:1006300070B5054600202860002415E0124850F8E7
:10064000240080B904EB8400104A02EB0011012061
:1006500001F07DF90C4941F82400084650F82400C7
:100660002860012070BD641C052CE7D300F0CAF897
:1006700018B1012001F05AF92860286808B9002053
:10068000F0E70120EEE700000804002078020020D7
:1006900010B5044600F0B6F828B100231A461946F2
:1006A000206801F001FA10BD70470AB1016100E055
:1006B00041617047F0B50C4616460025002204F053
:1006C0000F0504F0100747B1042E05D145F00305CE
:1006D000C76B1F43C76300E03543002118E00127C3
:1006E0008F401F4097B102684FEA810C0F2707FA2D
:1006F0000CF7BA438F0005FA07F73A43282C01D1CB
:10070000436102E0482C00D1036102604F1CB9B282
:100710000829E4D308211CE001278F401F40B7B10E
:100720004268A1F108074FEA870C0F2707FA0CF778
:10073000BA43A1F10807BF0005FA07F73A43282C8E
:1007400001D1436102E0482C00D1036142604F1C9B
:10075000B9B21029E0D3F0BD1CB540F2046000F03E
:10076000B1FD4FF44073032210211D48FFF7A2FF93
:1007700040F2026000F0A6FD4FF4807303221021C6
:100780001848FFF797FF012251021548FFF78DFF28
:10079000012211021348FFF788FF002001210346C0
:1007A0008022CDE9001010A1134801F053FB002076
:1007B000012103468022CDE900100BA10F4801F072
:1007C00049FB0020012103468022CDE9001006A14B
:1007D0000B4801F03FFB00F0BDFF00201CBD0000F6
:1007E0000010014000080140526564204C4544203F
:1007F000426C696E6B000000E504000815050008F6
:100800004905000810B501F07FFB022801D1012045
:1008100010BD0020FCE700002DE9F04105460E4622
:100820002048076820480068001D00F0E7FD681CAC
:10083000D8B9D6B11D4948681B49096888601A496A
:1008400082680968CA6018490968091D8268516090
:1008500015490968091D8160144A134909684A61EC
:1008600011460968491C11601AE07C190E4800689D
:100870004460BC4207D20C480168091D0C4800685E
:1008800000F0F9FD0CE008480168091D09480068FE
:1008900000F0F1FD08480068844201D20648046077
:1008A000BDE8F0814800002034000020C42C002066
:1008B0003C000020380000206400002010B50446F1
:1008C00000F0F4FD30480068401C2F4908602F48B4
:1008D000006840B92D4804600846006801280DD121
:1008E00000F0FCF90AE02A48006838B92748006897
:1008F000C06AE16A884201D824480460254800683B
:10090000401C244908600846006860642249E06A87
:100910000968884202D92049E06A0860E16A01EB6F
:1009200081011E4A02EB81014868A0608268E26092
:10093000211D826851608160E16A01EB8101174AE3
:1009400002EB81026261E16A01EB8101134A52F814
:100950002110491CE26A02EB8202104B43F822107C
:1009600000F0B6FD0A48006868B108480068C06A2F
:10097000E16A884207D24FF0805009490860BFF30E
:100980004F8FBFF36F8F10BD440000203400002054
:1009900050000020600000204C000020142800209F
:1009A00004ED00E008B500F081FD0E480068A8B92C
:1009B0000D4800F050FD0D4800F04DFD0A480C496F
:1009C00008600A480B49086000200B4B0B4A1021B5
:1009D0000090052000F0F9FF0249086000F078FD62
:1009E00008BD00007C000020D82C0020EC2C00204A
:1009F0007400002078000020002D0020502D0020E1
:100A000010B516E000F052FD0C48C068C468201D07
:100A100000F0F4FC0A480068401E094908600948D3
:100A20000068401E0749086000F052FD204600F0B3
:100A30005FF8044800680028E4D110BDB02C002005
:100A4000440000204000002070B504460D46206C94
:100A500070B1216CE0680144E160D4E90210884281
:100A600001D32168E1602846226CE168FFF734FC7D
:100A700070BD2DE9F04104460F4615464FF00008C1
:100A8000A66B206C48B9206800282CD1A06801F022
:100A900019FB80460020A06025E07DB93946226C14
:100AA0006068FFF719FC216C606808446060D4E955
:100AB0000101884217D32068606014E03946226C37
:100AC000E068FFF709FC216CE068411AE1602168E9
:100AD000E068884203D2216CA068411AE160022DCF
:100AE00001D106B1761E701CA0634046BDE8F081BE
:100AF00010B5044694F8590030B9206B00F0F8FCAA
:100B0000204600F0F5FC06E094F85900012802D1D7
:100B1000204600F0EDFC10BD01464A6A22B10A6B86
:100B20001268C2F1380000E0002070470146084A10
:100B3000126812680AB9012200E000220A600A68FD
:100B400022B9034A1268D268106800E0002070479A
:100B50007400002030B54FF40053174800F007042C
:100B60002CB1C01D20F00700134C041B1B1B0246B8
:100B7000124C22600024114D6C60D018083820F00F
:100B800007000F4C206000240D4D2D686C600C4D4B
:100B90002D682C601146441A4C60094C24680C6086
:100BA000084D4C682C60084D4C682C604FF0004498
:100BB000064D2C6030BD00001408002010000020FD
:100BC00018000020200000201C0000202C00002025
:100BD00000BFFFF715FF064800680128F9D94FF05C
:100BE000805004490860BFF34F8FBFF36F8FF0E769
:100BF0001428002004ED00E010B5044654B1002094
:100C0000A06020600021E16000231A4619462046BA
:100C100000F04AFF10BD2DE9F04106460D4617468B
:100C20009846069C0DB9246000E02760E6632564C1
:100C30000121204600F0E8FE84F84C80BDE8F081F8
:100C40002DE9F05F81460E4690469A460A9F0C9C1D
:100C50004FEA8801A522206BFFF783FBA8F1010072
:100C6000216B01EB800B2BF0070B86B1002507E011
:100C7000715D04F134004155705D00B902E06D1CF6
:100C8000102DF5D300BF00214320015502E00020C4
:100C900084F83400382F00D33727E762E764002058
:100CA0002065201D00F0E4FB04F1180000F0E0FBDB
:100CB0002461C7F13800A06164620020606584F897
:100CC000580052464946584600F0E6FA20600B9814
:100CD00008B10B980460BDE8F09F000010B5002437
:100CE00007E004EB84010F4A02EB810000F0B3FB44
:100CF000641C382CF5D30C4800F0ADFB0B4800F019
:100D0000AAFB0B4800F0A7FB0A4800F0A4FB0A4826
:100D100000F0A1FB0448094908600448084908603C
:100D200010BD000014280020742C0020882C002006
:100D30009C2C0020B02C0020C42C00203800002067
:100D40003C00002010B50146164800E0006803682A
:100D50008B42FBD30246436813448B4204D1436861
:100D60004C682344436001460A464B6813440468B8
:100D7000A34211D10C4C03682468A34208D04B68ED
:100D80000468646823444B6003681B680B6005E0DB
:100D9000054B1B680B6001E003680B60884200D0C4
:100DA000016010BD10000020180000202DE9F04166
:100DB00004460D4616461F464FF000086560246144
:100DC000B5420CD8F01BA169884202D34FF001084C
:100DD00011E0211D0948006800F04DFB0BE0BE4208
:100DE00004D2BD4202D34FF0010804E0211D0448A3
:100DF000006800F040FB4046BDE8F081780000202C
:100E00007400002070B5054600F050FBA86B08B9CF
:100E1000012400E0002400F05BFB204670BD70B5AB
:100E2000054600F043FBA86BE96B884201D1012421
:100E300000E0002400F04CFB204670BD70B5054674
:100E40000E460E480068C068C468201D00F0D6FA3F
:100E500094F8280000F0040028B1324629462046C4
:100E600000F0D0F805E094F8280000F0FE0084F8C7
:100E700028002046216A884770BD000074000020C9
:100E800070B586B077E00298002805DA03AED6E99F
:100E90000020B168904700BF029800286BDB049CDB
:100EA000606908B9012000E0002010B9201D00F0A1
:100EB000A5FA01A800F0D2F8054602980A2858D2EF
:100EC000DFE800F05705072E364706082F3700BF2A
:100ED00000BF00BF94F8280040F0010084F828000B
:100EE0000398A269811803462A462046FFF75EFF51
:100EF000A8B194F8280000F0040038B10398A26962
:100F000081182A46204600F07DF805E094F8280074
:100F100000F0FE0084F828002046216A884729E076
:100F200000BF94F8280000F0FE0084F8280021E0BB
:100F300000BF94F8280040F0010084F828000398CE
:100F4000A061A06941192B462A462046FFF72EFFD3
:100F500010E094F8280000F0020018B9204600F0D4
:100F6000C7FA05E094F8280000F0FE0084F8280095
:100F700000E000BF00BF002202A90448006800F0A2
:100F80001FFE00287FF47FAF06B070BD7C000020FC
:100F9000F8B505460C4600F02BFC684600F05EF8FC
:100FA0000646009820BB44B9B54206D801F0C4F902
:100FB00031462846FFF742FF1CE03CB10E4800686E
:100FC000006808B9012000E000200446A91B224661
:100FD0000A48006800F0D6FA01F0AEF950B94FF0B7
:100FE000805007490860BFF34F8FBFF36F8F01E058
:100FF00001F0A2F9F8BD0000780000207C0000207C
:1010000004ED00E070B504460D46164604E0A06904
:1010100005442046216A8847A06941192B4632467B
:101020002046FFF7C3FE0028F1D170BD09480068D3
:10103000006808B9012000E0002020B14FF0FF3027
:101040000549086005E003480068C0680068024977
:1010500008607047380000206400002070B5044626
:1010600000F062FF054607480068854204D200F0A0
:101070000BF80120206001E000202060014805609D
:10108000284670BD8400002070B508E00D48006857
:10109000C06804684FF0FF312046FFF7CFFE0948D3
:1010A0000068006808B9012000E000200028EDD0A9
:1010B0000448056804480068024908600248056061
:1010C00070BD0000740000207800002000BF1020D8
:1010D00080F31188BFF34F8FBFF36F8F00BF00BF46
:1010E000FEE708B500BF6846FFF720FD044620462E
:1010F0000099FFF74DFFFFF7C3FEF4E770B5044614
:1011000000F0D4F994F9455010E0606A08B9012064
:1011100000E0002038B904F1240001F089F818B18A
:1011200000F07CFA00E003E0681E45B2002DECDC24
:1011300000BFFF2084F8450000F0CAF900F0B6F9BE
:1011400094F9445010E0206908B9012000E0002023
:1011500048B904F1100001F06BF808B100F05EFA34
:10116000681E45B200E001E0002DECDC00BFFF206E
:1011700084F8440000F0ACF970BD00002DE9F041A6
:1011800004464FF0000800F033FB3548006808B90A
:10119000FFF7E0FC33480068204000285BD1B4B181
:1011A00004F10800A04212D9083404F0070078B115
:1011B00004F00700C0F108002044A04205D904F063
:1011C0000700C0F10800044402E0002400E000240D
:1011D000002C40D02448006884423CD8234E30463E
:1011E000056801E02E462D686868A04202D2286892
:1011F0000028F7D11A48006885422CD0306800F1E9
:101200000808286830606868001B102807D92F1963
:101210006868001B78606C603846FFF793FD1249E0
:1012200068680968081A104908600846006810498B
:101230000968884203D20C4800680D4908600949D2
:1012400068680968084368600020286009480068E9
:10125000401C0849086001F06FF84046BDE8F08185
:10126000180000202C0000201C000020100000208E
:1012700020000020240000200648006830B1054905
:10128000096801F15000096D491C016001480068BE
:101290007047000034000020001F4FF0807303608F
:1012A000001F21F001030360001F054B0360143889
:1012B0000260001F6FF002030360203870470000D7
:1012C000CD100008064A02EB9011096800F01F03D8
:1012D00001229A401143024B03EB901211607047B8
:1012E00000100240002000213E4A126842F4803281
:1012F0003C4B1A6000BF401C3A4A126802F40031AD
:1013000011B9B0F5006FF6D1364A126802F4003216
:101310000AB900BFFEE7334AD26942F08052314B2E
:10132000DA61314A126842F440422F4B1A602D4A6A
:1013300052682C4B5A601A4652685A601A465268D4
:1013400042F480625A601A46526822F440325A606F
:101350001A46526842F440325A601A465268234B89
:101360001A40204B5A601A465268214B1A431D4BB3
:101370005A601A46126842F080721A6000BF194A19
:10138000126802F00072002AF9D0174A126842F47B
:101390008032154B1A6000BF134A526802F4803243
:1013A000002AF9D0104A126842F400320E4B1A603B
:1013B00000BF0D4A526802F40032002AF9D0094AEF
:1013C000526822F00302074B5A601A46526842F0F4
:1013D00002025A6000BF034A526802F00802002A63
:1013E000F9D070470010024000700040FFFFC3B703
:1013F0000000340810B5FFF775FF10BD01460A69FB
:10140000D1E901309860D1E9010358605068884201
:1014100001D188685060002008611068401E10608B
:1014200010687047034B0360034B0B60802313600D
:10143000704700001C04002078040020034B036068
:10144000034B0B60502313607047000078060020A8
:10145000D4060020704700F1080141604FF0FF31D1
:10146000816000F10801C1600161002101607047E5
:1014700000210161704710B502460B685C1C0CB975
:10148000106907E002F1080000E040684468246841
:101490009C42FAD944684C604C68A1608860416005
:1014A0000A611468641C146010BD000000BF1020A5
:1014B00080F31188BFF34F8FBFF36F8F00BF0348D6
:1014C0000068401C0149086070470000300000209F
:1014D00006480068401E054908600846006820B9B3
:1014E000002080F3118800BF00BF7047300000204B
:1014F00070B506463546FEB1083D2C460F4960687A
:1015000009680840C0B12068B0B90C496068096832
:101510008843606000F06CF9094960680968084414
:10152000074908602046FFF70DFC06480068401C8C
:101530000449086000F000FF70BD00002C0000208E
:101540001C0000202800002000204FF0E02108614E
:101550008861064800684FF47A71B0FBF1F0401ED4
:101560004FF0E02148610720086170470C0000201F
:1015700070B50446254695F8460010B92846FFF791
:10158000B7FF70BD2DE9F04105460E4617462C46C3
:10159000FFF78CFF94F94400401C10B9002084F838
:1015A000440094F94500401C10B9002084F845001F
:1015B000FFF78EFFA06B28B93A46314604F12400AC
:1015C00000F042F82046FFF799FDBDE8F0810000E9
:1015D00070B50446002544B100F00AF90021204608
:1015E000FFF71AF900F0A8FE05463DB94FF080500C
:1015F00003490860BFF34F8FBFF36F8F70BD0000CA
:1016000004ED00E00349096801600349096841608D
:10161000704700005C0000204800002001200149C4
:10162000086070475800002070B505460C46054814
:10163000016818312846FFF71EFF01212046FFF7F9
:10164000EBF870BD3400002070B504460E46154618
:1016500060680F490968C8610D49826809680A62B3
:101660000B490968183182685160094909681831C5
:101670008160074909688C622168491C21600DB1AD
:101680004FF0FF3629463046FFF7C6F870BD000020
:10169000340000202DE9F04706460F4634464FF04F
:1016A0000109002E4FD0E06CB84201D23D4600E067
:1016B000E56CE06AA84246D0206D012843D1D4F8F9
:1016C0002C80E562A06900F0004010B9C5F1380037
:1016D000A06108EB88011D4A02EB81016069884224
:1016E00001D1012000E0002068B3201DFFF786FE35
:1016F0001749E06A0968884202D91549E06A08601A
:10170000E16A01EB8101114A02EB81014868A060A6
:101710008268E260211D826851608160E16A01EBAC
:1017200081010A4A02EB81026261E16A01EB8101F7
:10173000064A52F82110491CE26A02EB8202034B6E
:1017400043F8221000BFBDE8F087000014280020F5
:101750004C00002010B586B000200590049003AA2C
:1017600004A905A8FFF75EFE0022DDE90410134678
:10177000CDE90021029016A11748039A00F09CFBC6
:10178000164908600846006808B1012400E00024FA
:10179000012C02D100F07CFE0446012C14D100BFC4
:1017A000102080F31188BFF34F8FBFF36F8F00BFFE
:1017B0004FF0FF300A49086001200A490860002004
:1017C0000949086000F074F80848006806B010BDC8
:1017D00049444C4500000000D10B0008680000207F
:1017E0006400002050000020480000206C00002011
:1017F00002480068401C01490860704770000020E2
:1018000070B52648006818B101202549086043E0FA
:1018100000202349086023480068046B4FF0A53579
:101820002068B0F1A53F0BD16068B0F1A53F07D1AA
:10183000A068B0F1A53F03D1E068B0F1A53F05D0A5
:101840001848016834310068FFF704FE1648016843
:1018500000E0491E01EB8100144A52F8200008B94B
:10186000012000E000200028F3D101EB81020F4BA2
:1018700003EB820042685268426000F1080243684C
:10188000934202D14268526842604268D268054B76
:101890001A600548016000BF70BD000070000020A4
:1018A00058000020340000204C00002014280020A4
:1018B00010B50E48006840F47F000C4908600846E7
:1018C000006840F07F400860FFF73EFE00200849B6
:1018D0000860FEF7A5FC0748006840F04040054955
:1018E0000860FEF789FC002010BD000020ED00E03C
:1018F0003000002034EF00E010B500BF102080F36E
:101900001188BFF34F8FBFF36F8F00BF00F012FB42
:1019100018B14FF080500449086000BF002080F3E8
:10192000118800BF10BD000004ED00E02DE9F0417A
:1019300004460126002722460021012000F01CF861
:1019400005462846FFF758F92846BDE8F0812DE9FD
:10195000F84304460D4601274FF000082B460022AD
:1019600011460120009400F030F806463046FFF79B
:1019700043F93046BDE8F8832DE9F84305460E46A5
:1019800017460024F5B1601EB0FBF5F0B04219D344
:1019900005FB06F010F1510F14D805FB06F909F10B
:1019A0005000FFF7EBFB044664B1A04608F1500875
:1019B000002084F846003B464246314628460094C3
:1019C000FFF729F92046BDE8F8832DE9F843804662
:1019D0000D4616461C46DDF820900027B8F1000F92
:1019E0000FD074B106B165B106B955B927460120CB
:1019F00087F846004B463246294640460097FFF797
:101A00000AF93846BDE8F8832DE9F04105460E464F
:101A100001272C46002C41D0E06B00283ED0B91E97
:101A2000E06BB1FBF0F0216C884237D3FFF73EFD4D
:101A3000D4E90F12206801FB0200A0600020A0631F
:101A400020686060E06B401E226C216800FB021180
:101A5000E160FF2084F8440084F845009EB92069C5
:101A600008B9012000E00020A8B904F1100000F03E
:101A7000DFFB80B14FF080500A490860BFF34F8F01
:101A8000BFF36F8F07E004F11000FFF7E4FC04F1EF
:101A90002400FFF7E0FCFFF71BFD00E000273846BD
:101AA000BDE8F08104ED00E02DE9FF4383B0074677
:101AB00088461D464FF000093C4600BFFFF7F6FC84
:101AC000A06BE16B884201D3022D28D12A46414602
:101AD0002046FEF7CEFF0646606A08B9012000E006
:101AE000002068B904F1240000F0A2FB88B14FF097
:101AF000805032490860BFF34F8FBFF36F8F08E00B
:101B00003EB14FF080502D490860BFF34F8FBFF3B7
:101B10006F8FFFF7DDFC012007B0BDE8F08305986B
:101B200018B9FFF7D5FC0020F6E7B9F1000F04D192
:101B300001A8FFF767FD4FF00109FFF7C9FCFFF7A8
:101B400057FEFFF7B3FC94F94400401C10B9002085
:101B500084F8440094F94500401C10B9002084F832
:101B60004500FFF7B5FC05A901A800F043F9F0B95D
:101B70002046FFF754F9A0B104F110000599FFF7D2
:101B800053FD2046FFF7BAFA00F0D6FB002895D1A6
:101B90004FF0805009490860BFF34F8FBFF36F8F3C
:101BA0008CE72046FFF7AAFA00F0C6FB86E720463E
:101BB000FFF7A4FA00F0C0FB0020ADE704ED00E061
:101BC0002DE9F74183B005460F464FF000082C463B
:101BD00000BFFFF76BFCA66BF6B139462046FEF757
:101BE00033FF701EA063206908B9012000E00020C7
:101BF00060B904F1100000F01BFB38B14FF08050C9
:101C00002F490860BFF34F8FBFF36F8FFFF760FC62
:101C1000012006B0BDE8F081059818B9FFF758FC1F
:101C20000020F6E7B8F1000F04D101A8FFF7EAFCA5
:101C30004FF00108FFF74CFCFFF7DAFDFFF736FC29
:101C400094F94400401C10B9002084F8440094F931
:101C50004500401C10B9002084F84500FFF738FC0F
:101C600005A901A800F0C6F8F0B92046FFF7CAF8A8
:101C7000A0B104F124000599FFF7D6FC2046FFF738
:101C80003DFA00F059FB0028A3D14FF080500C49D9
:101C90000860BFF34F8FBFF36F8F9AE72046FFF7BF
:101CA0002DFA00F049FB94E72046FFF727FA00F0F1
:101CB00043FB2046FFF7A6F800288AD00020A8E7BB
:101CC00004ED00E02DE9F34182B0054600272C46E3
:101CD000B84600BFFFF7EAFBA66BFEB1701EA0631B
:101CE000206810B9FFF7C8FAA060206908B9012080
:101CF00000E0002060B904F1100000F099FA38B15A
:101D00004FF080503A490860BFF34F8FBFF36F8F99
:101D1000FFF7DEFB012004B0BDE8F081039818B99D
:101D2000FFF7D6FB0020F6E71FB96846FFF76AFC0D
:101D30000127FFF7CDFBFFF75BFDFFF7B7FB94F93A
:101D40004400401C10B9002084F8440094F9450078
:101D5000401C10B9002084F84500FFF7B9FB03A927
:101D6000684600F047F840BB2046FFF74BF8F0B15B
:101D7000206838B9FFF79AFBA06800F0EDF98046BB
:101D8000FFF7A6FB04F124000399FFF74DFC204662
:101D9000FFF7B4F900F0D0FA00289BD14FF0805043
:101DA00013490860BFF34F8FBFF36F8F92E7204650
:101DB000FFF7A4F900F0C0FA8CE72046FFF79EF980
:101DC00000F0BAFA2046FFF71DF8002882D0B8F1DB
:101DD000000F0BD0FFF76AFB2046FEF79DFE06467C
:101DE0003146A068FFF756FCFFF772FB002092E730
:101DF00004ED00E070B506460C46FFF757FB1348AC
:101E000002687068131A2068401C08B9002519E0A0
:101E10000F4930680968884206D07068904203D83C
:101E20000125002020600DE02068984207D9206835
:101E3000C01A20603046FFF7E5FB002502E00020D5
:101E400020600125FFF744FB284670BD48000020B4
:101E50005C0000202DE9FF4F85B08046894617467B
:101E6000DDE912ABB800FFF789F9064656B15C20F0
:101E7000FFF784F904460CB1266304E03046FFF70F
:101E800037FB00E000248CB1002084F85900CDE934
:101E900000ABCDE902403A4649464046089BFEF772
:101EA000CFFE2046FEF70AFD012501E04FF0FF3589
:101EB000284609B0BDE8F08F2DE9F04F85B0074600
:101EC000884691469A46DDE90EB6109CACB1A6B1A3
:101ED00025462E63022085F85900002004A95346A8
:101EE0004A46CDE900B1CDE9025041463846FEF7F9
:101EF000A7FE2846FEF7E2FC01E0002004900498CB
:101F000005B0BDE8F08F00000549096809B9012056
:101F100005E00449096809B9022000E00020704783
:101F20005000002070000020014908687047000040
:101F3000480000202DE9F04100275748006800289C
:101F40007DD156480068451C544805608DB95448F9
:101F5000D0F8008053480068514908605148C0F8E3
:101F6000008051480068401C4F490860FFF75EF848
:101F700000BF4E480068854275D300BF48480068DE
:101F8000006808B9012000E0002020B14FF0FF30C8
:101F90004649086066E042480068C068C4686668F0
:101FA000B54202D2414806605CE06069D4E90212A1
:101FB0008A60D4E902214A60211D42688A4201D127
:101FC000E1684160002262610168491E0160A06A07
:101FD00098B1A06AD4E907128A60D4E907214A605F
:101FE00004F1180142688A4201D1216A416000224D
:101FF000A2620168491E016000BF2D49E06A0968BC
:10200000884202D92A49E06A0860E16A01EB81014D
:10201000284A02EB81014868A0608268E260211DC5
:10202000826851608160E16A01EB8101214A02EB23
:1020300081026261E16A01EB81011E4A00E022E057
:1020400052F82110491CE26A02EB8202194B43F854
:1020500022101949E06A0968C96A88428ED30127AB
:102060008CE700E000BF14480068C06A00EB800005
:10207000104951F82000012800D901270F480068B5
:1020800000B1012704E00E480068401C0C490860BC
:102090003846BDE8F08100007000002048000020B4
:1020A000380000203C0000205C000020640000207C
:1020B0004C0000201428002034000020580000208C
:1020C0005400002070B505462C460026002D3CD05B
:1020D000206D401E2065E16CE06A884235D0206D9D
:1020E00098BB201DFFF78AF9E06CE062E06AC0F15E
:1020F0003800A0611649E06A0968884202D914498B
:10210000E06A0860E16A01EB8101124A02EB810199
:102110004868A0608268E260211D82685160816029
:10212000E16A01EB81010B4A02EB81026261E16A23
:1021300001EB8101074A52F82110491CE26A02EBC7
:102140008202044B43F822100126304670BD000085
:102150004C0000201428002070B505462C460026AF
:10216000002D5CD02F49E06A0968C96A88424FD2C5
:10217000A06900F0004028B92A480068C06AC0F190
:102180003800A061E16A01EB8101274A02EB81017D
:102190006069884201D1012000E0002088B3201D41
:1021A000FFF72CF91F480068C06AE0621F49E06A27
:1021B0000968884202D91D49E06A0860E16A01EBBA
:1021C0008101194A02EB81014868A0608268E260DF
:1021D000211D826851608160E16A01EB8101124A30
:1021E00002EB81026261E16A01EB81010E4A52F861
:1021F0002110491CE26A02EB82020B4B43F82210C9
:1022000004E0FFE707480068C06AE062012606E0D4
:102210000449E06C0968C96A884200D20126304648
:1022200070BD000034000020142800204C00002065
:1022300070B50346D868C168886AD1E90745A560CA
:10224000D1E90754656001F118044568A54201D140
:102250000C6A446000258D620468641E0460304886
:10226000006800283CD14869D1E90245A560D1E960
:10227000025465600C1D4568A54201D1CC684460DC
:1022800000254D610468641E0460264CC86A2468F9
:10229000A04202D9234CC86A2060CC6A04EB8404B3
:1022A000214D05EB8404606888608568CD600C1D55
:1022B00085686C608460CC6A04EB84041A4D05EB7D
:1022C00084054D61CC6A04EB8404174D55F8244015
:1022D000641CCD6A05EB8505134E46F8254010E0D9
:1022E000124C6068C86185680D6201F11804856848
:1022F0006C6084600D4D8D622C462468641C2C60DB
:1023000000BF0B4CC86A2468E46AA04204D90122C9
:102310000120084C206000E00022104670BD000043
:10232000700000204C000020142800209C2C00206D
:10233000340000205800002070B500240026FFF76C
:10234000B5F84A480068401E4849086008460068D9
:1023500000287DD146480068002879D05AE04548D9
:10236000C068C468A06AD4E907128A60D4E907216A
:102370004A6004F1180142688A4201D1216A416031
:102380000022A2620168491E01606069D4E902125C
:102390008A60D4E902214A60211D42688A4201D143
:1023A000E1684160002262610168491E01603249B2
:1023B000E06A0968884202D92F49E06A0860E16A48
:1023C00001EB81012D4A02EB81014868A06082681F
:1023D000E260211D826851608160E16A01EB810148
:1023E000264A02EB81026261E16A01EB8101234A24
:1023F00052F82110491CE26A02EB82021F4B43F89B
:1024000022101F49E06A0968C96A884202D3012084
:102410001C4908601748006808B9012000E0002046
:1024200000289CD00CB1FEF701FE1748056865B185
:1024300000BFFFF77FFD10B10120124908606D1E3B
:10244000002DF6D10020104908600E48006800E019
:1024500008E038B1012630070C490860BFF34F8F00
:10246000BFF36F8FFFF734F8304670BD7000002067
:10247000440000209C2C00204C0000201428002048
:1024800034000020580000205400002004ED00E03B
:1024900010B586B00024FEF785FA10480068D0B168
:1024A00000200590049003AA04A905A8FEF7C6FF22
:1024B0002822DDE904100023CDE90021029008A1C3
:1024C0000948039AFFF7F8FC0849086008460068C5
:1024D00000B1012400BF204606B010BD7C000020E2
:1024E000546D722053766300E310000880000020D2
:1024F0004FF04070E1EE100A704700001C25000804
:1025000000000020880000006C010008A4250008DD
:1025100088000020783500008801000800000000D5
:102520000000000000000000000E2707000000006F
:10253000000000000000000000000000000000009B
:10254000000000000000000000000000AAAAAAAAE3
:10255000000000000000000000000000000000007B
:10256000000000000000000000000000000000006B
:10257000000000000000000000000000000000005B
:102580000000000000000000370000000000000014
:10259000000000000000000000000000000000003B
:0425A0000000000037
:0400000508000131BD
:00000001FF
