:020000040800F2
:100000004832002099010008A1010008A30100085E
:10001000A5010008A7010008A901000800000000D0
:10002000000000000000000000000000AB0100081C
:10003000AD01000800000000AF010008A1090008A0
:10004000B3010008B3010008B3010008B3010008C0
:10005000B3010008B3010008B3010008B3010008B0
:10006000B3010008B3010008B3010008B3010008A0
:10007000B3010008B3010008B3010008B301000890
:10008000B3010008B3010008B3010008B301000880
:10009000B3010008B3010008B3010008B301000870
:1000A000B3010008B3010008B3010008B301000860
:1000B000B3010008B3010008B3010008B301000850
:1000C000B3010008B3010008B3010008B301000840
:1000D000B3010008450A00086D0A0008D50A0008A7
:1000E000B3010008B3010008B301000800F002F8F2
:1000F00000F042F80AA090E8000C82448344AAF180
:100100000107DA4501D100F037F8AFF2090EBAE87D
:100110000F0013F0010F18BFFB1A43F0010318473B
:100120005C1100007C110000103A24BF78C878C12F
:10013000FAD8520724BF30C830C144BF04680C60ED
:10014000704700000023002400250026103A28BF35
:1001500078C1FBD8520728BF30C148BF0B60704739
:10016000642900F0B780732900F07B81002070477C
:100170001FB51FBD10B510BD00F08EF91146FFF779
:10018000F7FF00F0D3FE00F0ACF903B4FFF7F2FF85
:1001900003BC00F0B3F90000094880470948004754
:1001A000FEE7FEE7FEE7FEE7FEE7FEE7FEE7FEE727
:1001B000FEE7FEE704480549054A064B7047000084
:1001C000E5090008ED000008482C00204832002016
:1001D000482E0020482E00200FB4044910B503AA71
:1001E000029800F043F910BC5DF814FB28000020D1
:1001F0000FB41CB5074B06AA7B44694600900598CE
:1002000000F005F90020694600F014F91CBC5DF807
:1002100014FB0000390200002DE9F0410E460446AF
:10022000002020622046E168884730B3252805D0A9
:10023000D4E901219047206A401CF2E7E16820469A
:1002400000278847050018D0A5F14100192802D8D9
:1002500020354FF400673246294620462760FFF7D5
:100260007FFF40B1012804D0F61D26F007060836AE
:10027000D8E7361DD6E72846DAE7206ABDE8F081E0
:1002800070B50C460546012A05D02878800600D5B1
:10029000EA69002302E0012305E05B1C934202D2DD
:1002A000E05C0028F9D1A869E618C01AA861286A9C
:1002B000184428622846AFF3008004E0D5E9012104
:1002C00014F8010B9047B442F8D32846AFF30080EE
:1002D00070BD00002DE9F041064600241068752924
:1002E000314616A510D0AFF30080002802DA404254
:1002F00013A507E031688A0701D512A502E0490776
:1003000004D511A5012401E0AFF3008000210A22E9
:1003100006F1240709E0B0FBF2FCB0FBF2F302FBAC
:100320001C00303078541846491C0028F3D123466D
:100330002A463046BDE8F04100F00BB8000000004E
:100340002D0000002B0000002000000070477047C7
:1003500070472DE9F0470D4699469246044600F154
:1003600024080168880604D5E06921F010012160A5
:1003700000E00120A84201DD471B00E00027A16941
:100380007A1902EB0900081AA0612078C00602D48D
:100390002046AFF30080002608E0D4E901211AF8D6
:1003A00006009047206A401C761C20624E45F4DB14
:1003B0002078C0060AD52046AFF3008006E0D4E9D5
:1003C000012130209047206A401C2062381EA7F18E
:1003D0000107F4DC07E0D4E9012118F80500904793
:1003E000206A401C2062281EA5F10105F3DC20468E
:1003F000AFF300802078000602D50220BDE8F08728
:100400000120FBE701694A1C02610878704700B5CA
:100410008FB0CDE901310021059105497944CDE93D
:10042000031011466846FFF7F7FE0FB000BD00004D
:10043000E5FFFFFF0A6802F8010B0A60704710B57C
:10044000436913B1AFF3008001E0FFF719FF01200A
:1004500010BD127800F124010A7000224A700122B6
:10046000EDE711684FF0FF32E9E70000074B70B588
:100470000D467B44FFF7CBFF0446284600F008F802
:1004800010B14FF0FF3070BD204670BDA70A0000CC
:10049000007B00F080007047754600F02BF8AE46F8
:1004A00005006946534620F00700854618B020B580
:1004B000FFF780FEBDE820404FF000064FF0000738
:1004C0004FF000084FF0000B21F00701AC46ACE8FC
:1004D000C009ACE8C009ACE8C009ACE8C0098D4669
:1004E000704710B50446AFF300802046BDE81040C9
:1004F000FFF74BBE00487047E82B00200149182049
:10050000ABBEFEE72600020070472DE9F04105462C
:100510000C46A01E295C601E285C41EA0026A01E35
:1005200081B2284600F08EFD0746BE4202D0002070
:10053000BDE8F0810120FBE72DE9F04102460025EE
:100540000026002000230024002791F803C00CF0AF
:100550000F0591F803C00CF0100CBCF1000F03D094
:1005600091F802C04CEA050591F800C0BCF1000FFB
:1005700031D0146800202BE04FF0010C0CFA00F38E
:10058000B1F800C00CEA03069E4220D183004FF070
:100590000F0C0CFA03F7BC4305FA03FC4CEA040405
:1005A00091F803C0BCF1280F06D14FF0010C0CFAF2
:1005B00000FCC2F814C00AE091F803C0BCF1480F77
:1005C00005D14FF0010C0CFA00FCC2F810C0401C21
:1005D0000828D1D31460B1F800C0BCF1FF0F34DD9E
:1005E000546800202EE000F1080C4FF0010808FAD2
:1005F0000CF3B1F800C00CEA03069E4221D183003F
:100600004FF00F0C0CFA03F7BC4305FA03FC4CEA5D
:10061000040491F803C0BCF1280F05D100F1080CC7
:1006200008FA0CF8C2F8148091F803C0BCF1480F26
:1006300007D100F1080C4FF0010808FA0CF8C2F8D5
:100640001080401C0828CED35460BDE8F0812DE90D
:10065000F04704460E4617461D46DDF820802670FA
:100660006770280AA070E5704FEA1820207184F89E
:1006700005800621204600F0E5FC814684F80690BE
:100680004FEA2920E07108212046D4F898209047AD
:10069000BDE8F0872DE9F84F04460F4690461D4609
:1006A000DDE90A694FF0FF3BD4F8840010B1D4F8BB
:1006B000840080470020A4F8800043460322394686
:1006C00020460095FFF7C3FF35E0B4F8800000F442
:1006D000004018B32078B8421AD16078032817D1A7
:1006E000B4F88000C0F30E012046FFF70EFF78B18A
:1006F000E01C06E04178027841EA022129F8021B59
:10070000801C291EA5F1010295B2F3D18B4601E0B0
:100710006FF0010B0020A4F880000EE0052E01DD33
:10072000052000E030468246A6EB0A0086B250461D
:10073000D4F88C108847002EC7D100BFD4F88800A9
:1007400010B1D4F8880080475846BDE8F88F70B5DE
:1007500004460D46D4F890008047B4F88000802805
:100760000AD234F8801F2088401C24F88009655480
:10077000D4F89400804705E0B4F8800040F40040CD
:10078000A4F8800070BD10B50446D4F890008047EE
:10079000B4F8800028B1B4F8800040F40040A4F818
:1007A000800010BD29B1064AD2690243044BDA61C8
:1007B00004E0034AD2698243014BDA6170470000CA
:1007C0000010024029B1064A92690243044B9A6123
:1007D00004E0034A92698243014B9A61704700002A
:1007E0000010024030B500210022002400232D4DCE
:1007F0006D6805F00C0121B1042905D0082923D129
:1008000005E0294D056022E0274D05601FE0254DDC
:100810006D6805F47012234D6D6805F4803402256F
:1008200005EB92421CB9214D554305600BE01D4D6F
:100830006D6805F400351DB11C4D5543056002E09F
:10084000194D5543056002E0174D056000BF00BF1C
:10085000144D6D6805F0F0010909154D6B5C0568D4
:10086000DD4045600F4D6D6805F4E061090A104DEB
:100870006B5C4568DD4085600A4D6D6805F460512C
:10088000C90A0B4D6B5C4568DD40C560054D6D6860
:1008900005F44041890B074D6B5CC568B5FBF3F56A
:1008A000056130BD0010024000127A0000093D00D1
:1008B0002C0000203C00002010B500F001F810BD15
:1008C0000CB50020019000903348006840F480305F
:1008D0003149086000BF3048006800F400300090E3
:1008E0000198401C0190009818B90198B0F5A06FCC
:1008F000F1D12948006800F4003010B101200090C7
:1009000001E0002000900098012843D123480068AE
:1009100040F01000214908600846006820F00300FC
:1009200008600846006840F0020008601A48406805
:10093000194948600846406848600846406840F4E5
:10094000806048600846406820F47C104860084693
:10095000406840F4E81048600846006840F0807045
:10096000086000BF0C48006800F000700028F9D053
:100970000948406820F0030007494860084640687D
:1009800040F00200486000BF0348406800F00C00DF
:100990000828F9D10CBD00000010024000200240E0
:1009A00010B500F0A9FA0C480068012810D10B48D6
:1009B0000078642805DA09480078401C0749087067
:1009C00009E00020054908700548FFF7DCFE02E059
:1009D00000200249087010BD08000020040000201B
:1009E0005400002010B51348006840F00100114980
:1009F000086008464068104908400E4948600846AB
:100A000000680E4908400B4908600846006820F459
:100A1000802008600846406820F4FE0048604FF4DB
:100A20001F008860FFF748FF4FF00060044908602E
:100A300010BD0000001002400000FFF8FFFFF6FEAE
:100A400008ED00E010B540F22551064800F02FF9FE
:100A500038B1044800F0E6F9C4B221460248FFF775
:100A600076FE10BD003801405400002010B540F261
:100A70002551134800F01BF900B3114800F0D2F9DA
:100A800010490870084600780A280BD008460078FC
:100A90000D490E4A126888540C480068401C0B49E6
:100AA00008600BE001200A4908600021074800683F
:100AB000401E054A115400200449086010BD000082
:100AC0000044004014000020F00000201C00002022
:100AD0002000002010B540F22551134800F0E7F83F
:100AE00000B3114800F09EF91049087008460078DC
:100AF0000A280BD0084600780D490E4A126888541F
:100B00000C480068401C0B4908600BE001200A49B2
:100B10000860002107480068401E054A1154002063
:100B20000449086010BD0000004800401400002087
:100B3000F00000201C0000202000002021B182894C
:100B400042F40052828104E082894DF6FF731A401C
:100B50008281704710B586B0044645480068454913
:100B600088420FD1012144F20400FFF72BFE4FF41D
:100B70000070414908804000404908804048414990
:100B800008602DE03A4800683F49884211D10121B0
:100B90000420FFF717FE01214804FFF703FE04209D
:100BA00035490880082035490880354835490860AE
:100BB00016E02F4800683549884211D101210820EC
:100BC000FFF700FE01218804FFF7ECFD4FF4806081
:100BD000294908804000294908802D482949086092
:100BE00018208DF8170024480088ADF81400032061
:100BF0008DF8160005A923480068FFF79DFC042026
:100C00008DF817001D480088ADF8140003208DF8FA
:100C1000160005A91B480068FFF78EFC0194002010
:100C2000ADF810000C20ADF80E000020ADF80C005F
:100C3000ADF80A00ADF8080001A90D48006800F001
:100C400085F8012240F225510948006800F059F862
:100C5000252000F021F9262000F01EF9272000F0C1
:100C60001BF9012102480068FFF768FF06B010BDBC
:100C70001000002000380140240000202600002041
:100C8000000801400C0000200044004000480040E3
:100C9000000C014002460020B1F5007F00D100BFEA
:100CA00013880B400BB1012000E00020704770B5A5
:100CB0000246002400230025002040F66A16B142B7
:100CC00000D100BFC1F3421501F01F03012606FA4F
:100CD00003F3012D02D19689334006E0022D02D1A3
:100CE000168A334001E0968A33400C12012606FA38
:100CF00004F41688344013B10CB1012000E0002048
:100D000070BDF0B50346002400260025002040F603
:100D10006A17B94200D100BF1846C1F3421401F06E
:100D20001F06012707FA06F5012C01D10C3004E05B
:100D3000022C01D1103000E014301AB107682F43A3
:100D4000076002E00768AF430760F0BD2DE9F04798
:100D500086B005460E460024A24600BFA1460027E5
:100D6000B08900B100BF2F462C8A4CF6FF700440BA
:100D7000F08804432C82AC894EF6F3100440B0880E
:100D800031890843718908430443AC81AC8A4FF62A
:100D9000FF400440B0890443AC8201A8FFF722FD64
:100DA0001F48874202D1DDF810A001E0DDF80CA059
:100DB000A88900F4004040B10AEBCA0000EB0A1019
:100DC00031684900B0FBF1F807E00AEBCA0000EB1C
:100DD0000A1031688900B0FBF1F86420B8FBF0F02C
:100DE00004012009642101FB1089A88900F4004056
:100DF00040B1322000EBC900B0FBF1F000F0070079
:100E0000044308E0322000EB09106421B0FBF1F04C
:100E100000F00F0004432C8106B0BDE8F08700000D
:100E20000038014001468888C0F30800704770B55B
:100E300005460E46002404E0285D00F01BF8601C07
:100E4000C4B2B442F8DB70BD10B504462146064872
:100E5000006800F00BF800BF802103480068FFF72E
:100E600019FF0028F8D010BD10000020C1F30802BF
:100E70008280704710B50446214606480068FFF797
:100E8000F5FF00BF802103480068FFF703FF00283B
:100E9000F8D010BD1000002000280DDB00BF00BFFF
:100EA00000F01F02012191404209920002F1E0226C
:100EB000C2F8001100BF00BF7047000010B5002845
:100EC00004DB0A07130E054A135406E00A07140E42
:100ED000034A00F00F031B1FD45410BD00E400E0D0
:100EE00018ED00E00349086000BF024909680029C5
:100EF000FBD17047000000200448006820B103487F
:100F00000068401E01490860704700000000002092
:100F100010B504462046FFF7E5FF10BD70B5044646
:100F20000D46E0B2FFF790FF204670BDA8B000BFAD
:100F3000002400F053F84FF41650FFF70BFE194849
:100F40001949C1F88C001948C1F894001848C1F833
:100F500090001848C1F8980023E00FA84FF4FA71E8
:100F600025230022CDE9001001210F48FFF792FB55
:100F7000002410E00FA830F8143022460EA102A879
:100F8000FFF736F902A90FA0FFF726F90A20FFF7AD
:100F9000A9FF601CC4B2252CECDB4FF47A70FFF77C
:100FA000A1FFDAE7110F0008540000202D100008FF
:100FB00039100008C90F00082564203D2025642051
:100FC0000A0000002573000070B505460C46A1B26A
:100FD0002846FFF72CFF204670BD000010B51248D0
:100FE00000684FF47A71B0FBF1F4601EB0F1807FBD
:100FF00001D301200FE0601E4FF0E02148610F2176
:101000004FF0FF30FFF75AFF00204FF0E0218861DA
:1010100007200861002008B100BFFEE70021481E3C
:10102000FFF74CFF10BD00004000002001200149E7
:1010300008607047080000200020014908607047E0
:101040000800002070B502460C46FF25FF2309E08A
:1010500012F8010B80EA03010648405C80EA0503B0
:101060000548455C201EA4F10106B4B2F0D143EA64
:10107000052070BD7C1000087C11000800C1814073
:1010800001C0804101C0804100C1814001C0804158
:1010900000C1814000C1814001C0804101C0804148
:1010A00000C1814000C1814001C0804100C1814038
:1010B00001C0804101C0804100C1814001C0804128
:1010C00000C1814000C1814001C0804100C1814018
:1010D00001C0804101C0804100C1814000C1814008
:1010E00001C0804101C0804100C1814001C08041F8
:1010F00000C1814000C1814001C0804101C08041E8
:1011000000C1814000C1814001C0804100C18140D7
:1011100001C0804101C0804100C1814000C18140C7
:1011200001C0804101C0804100C1814001C08041B7
:1011300000C1814000C1814001C0804100C18140A7
:1011400001C0804101C0804100C1814001C0804197
:1011500000C1814000C1814001C0804101C0804187
:1011600000C1814000C1814001C0804100C1814077
:1011700001C0804101C0804100C1814000C0C10167
:10118000C30302C2C60607C705C5C404CC0C0DCDF7
:101190000FCFCE0E0ACACB0BC90908C8D81819D967
:1011A0001BDBDA1A1EDEDF1FDD1D1CDC14D4D51597
:1011B000D71716D6D21213D311D1D010F03031F187
:1011C00033F3F23236F6F737F53534F43CFCFD3DB7
:1011D000FF3F3EFEFA3A3BFB39F9F83828E8E929A7
:1011E000EB2B2AEAEE2E2FEF2DEDEC2CE42425E557
:1011F00027E7E62622E2E323E12120E0A06061A1C7
:1012000063A3A26266A6A767A56564A46CACAD6D76
:10121000AF6F6EAEAA6A6BAB69A9A86878B8B979E6
:10122000BB7B7ABABE7E7FBF7DBDBC7CB47475B516
:1012300077B7B67672B2B373B17170B05090915106
:101240009353529296565797559594549C5C5D9D36
:101250005F9F9E5E5A9A9B5B995958988848498926
:101260004B8B8A4A4E8E8F4F8D4D4C8C44848545D6
:101270008747468682424383418180409C12000812
:10128000000000205400000028010008F0120008AF
:1012900054000020F4310000440100080000000068
:1012A00000000000000000000000000000380140C5
:1012B000000000000000000000000000000000002E
:1012C0000000000000000000000000000102030414
:1012D00001020304060708090204060800A24A04E2
:1012E00000000000000000000102030406070809D6
:04000005080000ED02
:00000001FF
