:020000040800F2
:1000000018090020D9010008E1010008E3010008F7
:10001000E5010008E7010008E90100080000000010
:10002000000000000000000000000000EB010008DC
:10003000ED01000800000000EF010008850600083F
:10004000F3010008F3010008F3010008F3010008C0
:10005000F3010008F3010008F3010008F3010008B0
:10006000F3010008F3010008F3010008F3010008A0
:10007000F3010008F3010008F3010008F301000890
:10008000F3010008F3010008F3010008F301000880
:10009000F3010008F3010008F3010008F301000870
:1000A000F3010008F3010008F3010008F301000860
:1000B000F3010008F3010008F3010008F301000850
:1000C000F3010008F3010008F3010008F301000840
:1000D000F301000845070008F3010008F3010008D8
:1000E000F3010008F3010008F3010008F301000820
:1000F000F3010008F3010008F3010008F301000810
:10010000F3010008F3010008F3010008F3010008FF
:1001100019070008F3010008F3010008F3010008C3
:10012000F3010008F3010008F3010008F3010008DF
:1001300000F002F800F041F80AA090E8000C8244B8
:100140008344AAF10107DA4501D100F036F8AFF295
:10015000090EBAE80F0013F0010F18BFFB1A43F0A5
:1001600001031847080F0000280F0000103A24BFB1
:1001700078C878C1FAD8520724BF30C830C144BF0C
:1001800004680C607047000000230024002500264E
:10019000103A28BF78C1FBD8520728BF30C148BFEA
:1001A0000B607047732900F0B580002070471FB5C1
:1001B00000F056FE1FBD10B510BD00F0DDF8114671
:1001C000FFF7F5FF00F052FB00F0FBF803B4FFF778
:1001D000F2FF03BC00F002F90948804709480047D4
:1001E000FEE7FEE7FEE7FEE7FEE7FEE7FEE7FEE7E7
:1001F000FEE7FEE704480549054A064B7047000044
:10020000C906000831010008180100201809002063
:1002100018050020180500200FB4044910B503AAE2
:10022000029800F07BF810BC5DF814FB0C00002075
:100230002DE9F0410E460446002020622046E16888
:10024000884730B3252805D0D4E901219047206A9A
:10025000401CF2E7E168204600278847050018D0D7
:10026000A5F14100192802D820354FF40067324625
:10027000294620462760FFF795FF40B1012804D0AA
:10028000F61D26F007060836D8E7361DD6E72846BD
:10029000DAE7206ABDE8F08170B50C460546012A10
:1002A00005D02878800600D5EA69002302E0012302
:1002B00005E05B1C934202D2E05C0028F9D1A869FA
:1002C000E618C01AA861286A184428622846AFF3C5
:1002D000008004E0D5E9012114F8010B9047B442F5
:1002E000F8D32846AFF3008070BD70477047704761
:1002F00010B5436913B1AFF3008001E0FFF7CCFF05
:10030000012010BD127800F124010A7000224A7009
:100310000122EDE711684FF0FF32E9E7074B70B5B6
:100320000D467B4400F011F80446284600F020F802
:1003300010B14FF0FF3070BD204670BD9304000037
:1003400001694A1C02610878704700B58FB0CDE999
:1003500001310021059105497944CDE90310114689
:100360006846FFF765FF0FB000BD0000E5FFFFFF27
:10037000007B00F080007047754600F02BF8AE4619
:1003800005006946534620F00700854618B020B5A1
:10039000FFF730FFBDE820404FF000064FF00007A8
:1003A0004FF000084FF0000B21F00701AC46ACE81D
:1003B000C009ACE8C009ACE8C009ACE8C0098D468A
:1003C000704710B50446AFF300802046BDE81040EA
:1003D000FFF7FCBE00487047B80000200149182014
:1003E000ABBEFEE72600020070472DE9F04105464E
:1003F0000C46A01E295C601E285C41EA0026A01E57
:1004000081B2284600F072FC0746BE4202D00020AE
:10041000BDE8F0810120FBE770B504460D46D4F835
:1004200090008047B4F8800080280AD234F8801FFA
:100430002088401C24F880096554D4F89400804733
:1004400005E0B4F8800040F40040A4F8800070BDDE
:1004500010B50446D4F890008047B4F8800028B165
:10046000B4F8800040F40040A4F8800010BD2DE9ED
:10047000F05F04460D4616461F46DDF828804FF013
:10048000FF3BD4F8840010B1D4F884008047257075
:1004900006206070A6703012E0703812207167710B
:1004A0000621204600F022FC814684F806904FEA9F
:1004B0002920E0710020A4F8800008212046D4F80B
:1004C000982090472AE0B4F8800000F40040B0B1D2
:1004D0002078A8420DD1607806280AD1B4F88000AF
:1004E000C0F30E012046FFF780FF10B14FF0000B64
:1004F00001E06FF0010B0020A4F8800011E0B8F1DA
:10050000050F01DD052000E040468246A8EB0A0009
:100510001FFA80F85046D4F88C108847B8F1000FC5
:10052000D1D100BFD4F8880010B1D4F8880080473A
:100530005846BDE8F09F000010B540F2026000F0A0
:10054000FBFA40F20E6000F0F7FA4FF4C06000F0E2
:10055000F3FA4FF4007303221821124800F034F923
:100560004FF48063032204210E4800F02DF94FF46C
:10057000E1310D4800F0D6FB08210B4800F068FC83
:100580000421094800F05CFC40F20531064800F007
:100590002EFC00221146252000F0B6F9024800F09A
:1005A00012FC10BD000801400038014010B504469F
:1005B0002146054800F003FC00BF0721024800F077
:1005C00007FC0028F9D010BD0038014010B540F2FA
:1005D000046000F0B1FA40F2137000F0ADFA4FF48D
:1005E000C06000F0A9FA4FF4806303221821144878
:1005F00000F0EAF84FF4006303220421104800F0F1
:10060000E3F84FF416510F4800F08CFB08210D4819
:1006100000F01EFC04210B4800F012FC40F20531F2
:10062000084800F0E4FB4FF4407000F0CFF90022DE
:100630001146342000F068F9024800F0C4FB10BDF8
:1006400000100140004C004070B505460E460024E5
:1006500004E0285D00F006F8601CC4B2B442F8DB88
:1006600070BD000010B504462146054800F0A7FB08
:1006700000BF0721024800F0ABFB0028F9D010BDF5
:10068000004C004010B500F085F80C4800680128C7
:1006900010D10B480078642805DA09480078401C1E
:1006A0000749087009E00020054908700548FFF770
:1006B000CFFE02E000200249087010BD14000020A7
:1006C000040000201C00002010B51048006840F411
:1006D00070000E4908600E48006840F001000C49A7
:1006E000086000204860C862084600680949084060
:1006F000074908604FF41F0088600846006820F42E
:100700008020086000F0BAFA10BD000088ED00E01B
:1007100000100240FFFFF6FE10B50749074800F041
:1007200073FB38B1054800F045FBC4B221460448CC
:10073000FFF772FE10BD000005030500004C0040ED
:100740001C00002010B50249024800F05DFB10BDFE
:10075000050305000038014010B5002804DB0A0736
:10076000130E054A135406E00A07140E034A00F05C
:100770000F031B1FD45410BD00E400E018ED00E08F
:100780000349086000BF024909680029FBD170478E
:10079000000000200448006820B103480068401EA3
:1007A00001490860704700000000002010B50446B1
:1007B0002046FFF7E5FF10BD70B504460D46E0B2D8
:1007C000FFF7F4FE204670BDF0B50C461646002536
:1007D000002204F00F0504F0100747B1042E05D1E4
:1007E00045F00305C76B1F43C76300E03543002195
:1007F00018E001278F401F4097B102684FEA810C33
:100800000F2707FA0CF7BA438F0005FA07F73A43A8
:10081000282C01D1436102E0482C00D10361026021
:100820004F1CB9B20829E4D308211CE001278F40EE
:100830001F40B7B14268A1F108074FEA870C0F27A4
:1008400007FA0CF7BA43A1F10807BF0005FA07F74A
:100850003A43282C01D1436102E0482C00D10361C6
:1008600042604F1CB9B21029E0D3F0BD08B5002496
:1008700000BF00F007FAFFF75FFEFFF7A7FE13487F
:100880001349C1F88C001348C1F894001248C1F80C
:1008900090001248C1F8980017E04FF4FA704AF639
:1008A000BB230022012100900948FFF7E0FD044628
:1008B000002C01DA0AA000E00BA001460BA0FFF714
:1008C000ABFC41F28830FFF75BFFE6E7AD070008BD
:1008D0001C000020D50C0008E10C0008590B000892
:1008E0006661696C656400006F6B00002077726957
:1008F00074652073696E676C652072656720257367
:100900002E200D0A000000002DE9F04103460D469F
:10091000164600240027A0462A48006800F4E0603C
:10092000B0F5E06F03D100BF4FF0040830E0254878
:10093000006800F4E060B0F5C06F03D101274FF00C
:10094000030825E01F48006800F4E060B0F5A06FE0
:1009500002D10227B8461BE01A48006800F4E060A4
:10096000B0F5806F03D103274FF0010810E0154860
:10097000006800F4E060B0F5407F03D104274FF039
:10098000000805E04FF4A06000F020F80227B84608
:10099000C7F1040005FA00F4C8F104010F20C840B3
:1009A0003040044324010848C45403F01F010120CF
:1009B00088405911890001F1E021C1F80001BDE82A
:1009C000F08100000CED00E000E400E0024901438A
:1009D000024A1160704700000000FA050CED00E0CB
:1009E0002DE9F04F8CB0074600200A904AA090E80D
:1009F000004CC068CDE905BECDF810A007900FF2FD
:100A00001C1ADAE9000ACDE9020A0FF2101ADAE933
:100A1000000ACDE9000A44484068C0F381000B9009
:100A20000B9820B1012804D002283FD103E03F4AAF
:100A30003EE03E4A3CE03C48406800F4803CBCF567
:100A4000803F12D13848C06A00F08048B8F1000FEA
:100A500001D1364C00E0364C3348406800F4003990
:100A6000B9F5003F02D1334C00E0324C2E484068CB
:100A7000C0F383412C48406800F0006008B141F0A9
:100A800010012948406800F0804008B141F0200181
:100A90000F2901D2891C06E00F2903D33E2901D872
:100AA000491C00E03F2104FB01F201E01F4A00BFA6
:100AB00000BF1D484068C0F3031504A8465D22FA34
:100AC00006F319484068C0F3022502A8465D23FAE0
:100AD00006F0099014484068C0F3C2251DF805606F
:100AE00023FA06F0089037B1012F06D0022F06D066
:100AF000032F0AD106E00A9208E00A9306E009985B
:100B00000A9003E008980A9000E000BF00BF0A982E
:100B10000CB0BDE8F08F00000000000000000000F5
:100B200001020304060708090010024000127A00BF
:100B3000006CDC0200093D00064A02EB90110968D6
:100B400000F01F0301229A401143024B03EB901265
:100B5000116070470010024070B505460C46A1B206
:100B60002846FFF771FD204670BD000000200021DF
:100B70003E4A126842F480323C4B1A6000BF401C6F
:100B80003A4A126802F4003111B9B0F5006FF6D19B
:100B9000364A126802F400320AB900BFFEE7334A4F
:100BA000D26942F08052314BDA61314A126842F424
:100BB00040422F4B1A602D4A52682C4B5A601A46FD
:100BC00052685A601A46526842F480625A601A4665
:100BD000526822F440325A601A46526842F4403257
:100BE0005A601A465268234B1A40204B5A601A46E4
:100BF0005268214B1A431D4B5A601A46126842F044
:100C000080721A6000BF194A126802F00072002A4E
:100C1000F9D0174A126842F48032154B1A6000BFAF
:100C2000134A526802F48032002AF9D0104A12683E
:100C300042F400320E4B1A6000BF0D4A526802F4B3
:100C40000032002AF9D0094A526822F00302074B09
:100C50005A601A46526842F002025A6000BF034AC4
:100C6000526802F00802002AF9D0704700100240D2
:100C700000700040FFFFC3B70000340810B5FFF755
:100C800075FF10BD10B5124800684FF47A71B0FBC3
:100C9000F1F4601EB0F1807F01D301200FE0601EEF
:100CA0004FF0E02148610F214FF0FF30FFF754FD76
:100CB00000204FF0E021886107200861002008B182
:100CC00000BFFEE70021481EFFF746FD10BD0000F3
:100CD000180000200120014908607047140000201E
:100CE00000200149086070471400002070B50246DA
:100CF0000C46FF25FF2309E012F8010B80EA0301EF
:100D00000648405C80EA05030548455C201EA4F1C6
:100D10000106B4B2F0D143EA052070BD6A0E0008A6
:100D20006A0F00082DE9F04704460D460027B84633
:100D3000B94600261D49601A8C421CD006DC1C48AE
:100D4000204470B1B0F5806F1FD10FE0B0F5806F17
:100D500016D0B0F56C4F18D10320FFF741FE0746BF
:100D600014E00220FFF73CFE07460FE00220FFF7E9
:100D700037FE07460AE00220FFF732FE074605E08D
:100D80000220FFF72DFE074600E000BF00BF07EB83
:100D90005500B0FBF5F64FF6F07006EA000806F0D5
:100DA0000F0948EA0900A060BDE8F087004C004048
:100DB00000BCFFBF01464868C0F308007047C1F39C
:100DC000080242607047C16841F40051C160704739
:100DD00010B5024602EB9110006801F01F040123D8
:100DE000A340184008B1012010BD0020FCE710B559
:100DF000C1F38912825801F01F040123A3401A4352
:100E0000C1F38913C25010BD70B5024600230024FF
:100E1000C1F38910105801F01F060125B54000EA02
:100E2000050302EB91500068C1F304460125B5406B
:100E300000EA050414B10BB1012070BD0020FCE7ED
:100E40000A460021C16821F004011143C1607047C6
:100E50000A460021C16821F008011143C1607047B2
:100E60004FF04070E1EE100A704700C1814001C0B0
:100E7000804101C0804100C1814001C0804100C16A
:100E8000814000C1814001C0804101C0804100C15A
:100E9000814000C1814001C0804100C1814001C04A
:100EA000804101C0804100C1814001C0804100C13A
:100EB000814000C1814001C0804100C1814001C02A
:100EC000804101C0804100C1814000C1814001C01A
:100ED000804101C0804100C1814001C0804100C10A
:100EE000814000C1814001C0804101C0804100C1FA
:100EF000814000C1814001C0804100C1814001C0EA
:100F0000804101C0804100C1814000C1814001C0D9
:100F1000804101C0804100C1814001C0804100C1C9
:100F2000814000C1814001C0804100C1814001C0B9
:100F3000804101C0804100C1814001C0804100C1A9
:100F4000814000C1814001C0804101C0804100C199
:100F5000814000C1814001C0804100C1814001C089
:100F6000804101C0804100C1814000C0C101C30374
:100F700002C2C60607C705C5C404CC0C0DCD0FCFF1
:100F8000CE0E0ACACB0BC90908C8D81819D91BDB61
:100F9000DA1A1EDEDF1FDD1D1CDC14D4D515D717B1
:100FA00016D6D21213D311D1D010F03031F133F361
:100FB000F23236F6F737F53534F43CFCFD3DFF3FB1
:100FC0003EFEFA3A3BFB39F9F83828E8E929EB2BE1
:100FD0002AEAEE2E2FEF2DEDEC2CE42425E527E771
:100FE000E62622E2E323E12120E0A06061A163A3E1
:100FF000A26266A6A767A56564A46CACAD6DAF6F71
:101000006EAEAA6A6BAB69A9A86878B8B979BB7BE0
:101010007ABABE7E7FBF7DBDBC7CB47475B577B730
:10102000B67672B2B373B17170B050909151935360
:10103000529296565797559594549C5C5D9D5F9F30
:101040009E5E5A9A9B5B99595898884849894B8B60
:101050008A4A4E8E8F4F8D4D4C8C448485458747F0
:101060004686824243834181804000008C10000804
:10107000000000201C0000006C010008A8100008FF
:101080001C000020FC08000088010008000000008F
:101090000000000000000000000000000000000050
:0810A00000000000000E27070C
:0400000508000131BD
:00000001FF
