:020000040800F2
:10000000D8080020D1010008D9010008DB01000850
:10001000DD010008DF010008E10100080000000028
:10002000000000000000000000000000E3010008E4
:10003000E501000800000000E70100083F03000898
:10004000EB010008EB010008EB010008EB010008E0
:10005000EB010008EB010008EB010008EB010008D0
:10006000EB010008EB010008EB010008EB010008C0
:10007000EB010008EB010008EB010008EB010008B0
:10008000EB010008EB010008EB010008EB010008A0
:10009000EB010008EB010008EB010008EB01000890
:1000A000EB010008EB010008EB010008EB01000880
:1000B000EB010008EB010008EB010008EB01000870
:1000C000EB010008EB010008EB010008EB01000860
:1000D000EB01000899030008EB010008EB010008A0
:1000E000EB010008EB010008EB010008EB01000840
:1000F000EB010008EB010008EB010008EB01000830
:10010000EB010008EB010008EB010008EB0100081F
:10011000EB010008EB010008EB010008EB0100080F
:10012000EB010008EB010008EB010008EB010008FF
:1001300000F002F800F03CF80AA090E8000C8244BD
:100140008344AAF10107DA4501D100F031F8AFF29A
:10015000090EBAE80F0013F0010F18BFFB1A43F0A5
:10016000010318479C080000BC080000103A24BF97
:1001700078C878C1FAD8520724BF30C830C144BF0C
:1001800004680C607047000000230024002500264E
:10019000103A28BF78C1FBD8520728BF30C148BFEA
:1001A0000B6070471FB500F025FC1FBD10B510BDDA
:1001B00000F031F81146FFF7F5FF00F08BF900F081
:1001C0004FF803B4FFF7F2FF03BC00F057F800004C
:1001D0000948804709480047FEE7FEE7FEE7FEE7DB
:1001E000FEE7FEE7FEE7FEE7FEE7FEE70448054917
:1001F000054A064B7047000049030008310100081A
:10020000D8000020D8080020D8040020D8040020FE
:10021000704770477047754600F02CF8AE460500F1
:100220006946534620F00700854618B020B5FFF711
:10023000DDFFBDE820404FF000064FF000074FF013
:1002400000084FF0000B21F00701AC46ACE8C009F4
:10025000ACE8C009ACE8C009ACE8C0098D467047FD
:1002600010B50446AFF300802046BDE81040FFF70C
:10027000A8BF000000487047740000200149182002
:10028000ABBEFEE7260002007047000010B540F24A
:10029000026000F04DFA40F20E6000F049FA4FF4AF
:1002A000C06000F045FA4FF400730322182114488F
:1002B00000F0BEF84FF4806303220421104800F0E0
:1002C000B7F84FF416510F4800F0F6FA08210D4820
:1002D00000F088FB04210B4800F07CFB40F2053164
:1002E000084800F04EFB4FF4407000F06BF900221C
:1002F0001146252000F004F9024800F02EFB10BD45
:10030000000801400038014010B504462146054868
:1003100000F01FFB00BF0721024800F023FB00286C
:10032000F9D010BD0038014010B5044603E0207834
:10033000FFF7EAFF641C20780028F8D110BD00B553
:1003400000F06AF800BD000010B51048006840F4E5
:1003500070000E4908600E48006840F001000C492A
:10036000086000204860C8620846006809490840E3
:10037000074908604FF41F0088600846006820F4B1
:100380008020086000F06CFA10BD000088ED00E0ED
:1003900000100240FFFFF6FE10B51049104800F0B3
:1003A000FDFAD0B10E4800F0CFFAC4B20A2C09D041
:1003B0000C480D49098844540B480088401C0A49E0
:1003C00008800AE000210748074A1288815401206A
:1003D0000649087000200449088010BD0503050087
:1003E000003801401000002004000020060000201A
:1003F00010B5002804DB0A07130E054A135406E063
:100400000A07140E034A00F00F031B1FD45410BD3B
:1004100000E400E018ED00E00448006820B1034863
:100420000068401E0149086070470000000000207D
:10043000F0B50C4616460025002204F00F0504F026
:10044000100747B1042E05D145F00305C76B1F43C4
:10045000C76300E03543002118E001278F401F40AB
:1004600097B102684FEA810C0F2707FA0CF7BA43DD
:100470008F0005FA07F73A43282C01D1436102E0C7
:10048000482C00D1036102604F1CB9B20829E4D3A3
:1004900008211CE001278F401F40B7B14268A1F13D
:1004A00008074FEA870C0F2707FA0CF7BA43A1F1A8
:1004B0000807BF0005FA07F73A43282C01D143612A
:1004C00002E0482C00D1036142604F1CB9B21029F0
:1004D000E0D3F0BD00F0C8F9FFF7D8FE09E0054809
:1004E0000078012805D100200249087002A0FFF71A
:1004F0001BFFF4E7060000206F6B6B6B6B6B6B00F0
:100500002DE9F04103460D46164600240027A0467B
:100510002A48006800F4E060B0F5E06F03D100BF46
:100520004FF0040830E02548006800F4E060B0F5C2
:10053000C06F03D101274FF0030825E01F48006872
:1005400000F4E060B0F5A06F02D10227B8461BE0CE
:100550001A48006800F4E060B0F5806F03D103270B
:100560004FF0010810E01548006800F4E060B0F5B5
:10057000407F03D104274FF0000805E04FF4A0604E
:1005800000F020F80227B846C7F1040005FA00F48D
:10059000C8F104010F20C84030400443240108483A
:1005A000C45403F01F01012088405911890001F152
:1005B000E021C1F80001BDE8F08100000CED00E091
:1005C00000E400E002490143024A11607047000064
:1005D0000000FA050CED00E02DE9F04F8CB0074665
:1005E00000200A904AA090E8004CC068CDE905BE02
:1005F000CDF810A007900FF21C1ADAE9000ACDE935
:10060000020A0FF2101ADAE9000ACDE9000A44489A
:100610004068C0F381000B900B9820B1012804D0F2
:1006200002283FD103E03F4A3EE03E4A3CE03C48DE
:10063000406800F4803CBCF5803F12D13848C06A65
:1006400000F08048B8F1000F01D1364C00E0364C84
:100650003348406800F40039B9F5003F02D1334C0B
:1006600000E0324C2E484068C0F383412C4840687B
:1006700000F0006008B141F010012948406800F026
:10068000804008B141F020010F2901D2891C06E009
:100690000F2903D33E2901D8491C00E03F2104FB68
:1006A00001F201E01F4A00BF00BF1D484068C0F3CF
:1006B000031504A8465D22FA06F319484068C0F302
:1006C000022502A8465D23FA06F009901448406806
:1006D000C0F3C2251DF8056023FA06F0089037B173
:1006E000012F06D0022F06D0032F0AD106E00A926E
:1006F00008E00A9306E009980A9003E008980A9037
:1007000000E000BF00BF0A980CB0BDE8F08F000009
:1007100000000000000000000102030406070809B1
:100720000010024000127A00006CDC0200093D005B
:10073000064A02EB9011096800F01F0301229A405B
:100740001143024B03EB90121160704700100240FE
:10075000002000213E4A126842F480323C4B1A606D
:1007600000BF401C3A4A126802F4003111B9B0F5DA
:10077000006FF6D1364A126802F400320AB900BF9F
:10078000FEE7334AD26942F08052314BDA61314A96
:10079000126842F440422F4B1A602D4A52682C4B8B
:1007A0005A601A4652685A601A46526842F4806289
:1007B0005A601A46526822F440325A601A46526809
:1007C00042F440325A601A465268234B1A40204B7A
:1007D0005A601A465268214B1A431D4B5A601A46FA
:1007E000126842F080721A6000BF194A126802F063
:1007F0000072002AF9D0174A126842F48032154B71
:100800001A6000BF134A526802F48032002AF9D0FD
:10081000104A126842F400320E4B1A6000BF0D4AB3
:10082000526802F40032002AF9D0094A526822F0D4
:100830000302074B5A601A46526842F002025A609D
:1008400000BF034A526802F00802002AF9D070473C
:100850000010024000700040FFFFC3B700003408E2
:1008600010B5FFF775FF10BD10B5124800684FF4C2
:100870007A71B0FBF1F4601EB0F1807F01D30120EA
:100880000FE0601E4FF0E02148610F214FF0FF3074
:10089000FFF7AEFD00204FF0E021886107200861DE
:1008A000002008B100BFFEE70021481EFFF7A0FDB1
:1008B00010BD00000C0000202DE9F04704460D4655
:1008C0000027B846B94600261D49601A8C421CD044
:1008D00006DC1C48204470B1B0F5806F1FD10FE0DA
:1008E000B0F5806F16D0B0F56C4F18D10320FFF72C
:1008F00073FE074614E00220FFF76EFE07460FE086
:100900000220FFF769FE07460AE00220FFF764FEB7
:10091000074605E00220FFF75FFE074600E000BF44
:1009200000BF07EB5500B0FBF5F64FF6F07006EA96
:10093000000806F00F0948EA0900A060BDE8F0874A
:10094000004C004000BCFFBF01464868C0F30800EF
:100950007047C1F3080242607047C16841F400511A
:10096000C160704710B5024602EB9110006801F0BB
:100970001F040123A340184008B1012010BD00202E
:10098000FCE710B5C1F38912825801F01F0401235E
:10099000A3401A43C1F38913C25010BD70B502467B
:1009A00000230024C1F38910105801F01F0601250F
:1009B000B54000EA050302EB91500068C1F304461C
:1009C0000125B54000EA050414B10BB1012070BD4A
:1009D0000020FCE70A460021C16821F00401114310
:1009E000C16070470A460021C16821F00801114327
:1009F000C16070474FF04070E1EE100A7047000090
:100A0000200A000800000020100000006C0100080F
:100A1000300A000810000020C80800008801000803
:100A2000000000000000000000000000000E27078A
:0400000508000131BD
:00000001FF
