:020000040800F2
:1000000008090020D1010008D9010008DB0100081F
:10001000DD010008DF010008E10100080000000028
:10002000000000000000000000000000E3010008E4
:10003000E501000800000000E7010008E9010008F0
:10004000EB010008EB010008EB010008EB010008E0
:10005000EB010008EB010008EB010008EB010008D0
:10006000EB010008EB010008EB010008EB010008C0
:10007000EB010008EB010008EB010008EB010008B0
:10008000EB010008EB010008EB010008EB010008A0
:10009000EB010008EB010008EB010008EB01000890
:1000A000EB010008EB010008EB010008EB01000880
:1000B000EB010008EB010008EB010008EB01000870
:1000C000EB010008EB010008EB010008EB01000860
:1000D000EB010008EB010008EB010008EB01000850
:1000E000EB010008EB010008EB010008EB01000840
:1000F000EB010008EB010008EB010008EB01000830
:10010000EB010008EB010008EB010008EB0100081F
:10011000EB010008EB010008EB010008EB0100080F
:10012000EB010008EB010008EB010008EB010008FF
:1001300000F002F800F03CF80AA090E8000C8244BD
:100140008344AAF10107DA4501D100F031F8AFF29A
:10015000090EBAE80F0013F0010F18BFFB1A43F0A5
:1001600001031847BC040000DC040000103A24BF5F
:1001700078C878C1FAD8520724BF30C830C144BF0C
:1001800004680C607047000000230024002500264E
:10019000103A28BF78C1FBD8520728BF30C148BFEA
:1001A0000B6070471FB500F035FA1FBD10B510BDCC
:1001B00000F031F81146FFF7F5FF00F037F900F0D5
:1001C0004FF803B4FFF7F2FF03BC00F057F800004C
:1001D0000948804709480047FEE7FEE7FEE7FEE7DB
:1001E000FEE7FEE7FEE7FEE7FEE7FEE70448054917
:1001F000054A064B704700008D02000831010008D7
:10020000080100200809002008050020080500203A
:10021000704770477047754600F02CF8AE460500F1
:100220006946534620F00700854618B020B5FFF711
:10023000DDFFBDE820404FF000064FF000074FF013
:1002400000084FF0000B21F00701AC46ACE8C009F4
:10025000ACE8C009ACE8C009ACE8C0098D467047FD
:1002600010B50446AFF300802046BDE81040FFF70C
:10027000A8BF000000487047A800002001491820CE
:10028000ABBEFEE7260002007047000010B5104824
:10029000006840F470000E4908600E48006840F0A5
:1002A00001000C49086000204860C86208460068E8
:1002B00009490840074908604FF41F008860084654
:1002C000006820F48020086000F078F910BD00007C
:1002D00088ED00E000100240FFFFF6FE10B5002898
:1002E00004DB0A07130E054A135406E00A07140E2E
:1002F000034A00F00F031B1FD45410BD00E400E0BC
:1003000018ED00E00349086000BF024909680029B0
:10031000FBD170470000002010B504460B4931F8AE
:10032000140000F0B3F80A4951F82430094951F893
:1003300024000322102100F027F8054850F824007B
:10034000044951F82410486110BD000056000020F7
:100350001400002004000020034951F82010034A33
:1003600052F8202051617047140000200400002042
:10037000034951F82010034A52F8202011617047B8
:100380001400002004000020F0B50C46164600259D
:10039000002204F00F0504F0100747B1042E05D128
:1003A00045F00305C76B1F43C76300E035430021D9
:1003B00018E001278F401F4097B102684FEA810C77
:1003C0000F2707FA0CF7BA438F0005FA07F73A43ED
:1003D000282C01D1436102E0482C00D10361026066
:1003E0004F1CB9B20829E4D308211CE001278F4033
:1003F0001F40B7B14268A1F108074FEA870C0F27E9
:1004000007FA0CF7BA43A1F10807BF0005FA07F78E
:100410003A43282C01D1436102E0482C00D103610A
:1004200042604F1CB9B21029E0D3F0BD00F0CAF809
:100430000120FFF771FF0220FFF76EFF0320FFF797
:100440006BFF21E00120FFF793FF4FF47A70FFF775
:1004500059FF0220FFF78CFF0120FFF77DFF4FF4CB
:100460007A70FFF74FFF0320FFF782FF0220FFF7AC
:1004700073FF4FF47A70FFF745FF0320FFF76CFF1F
:100480004FF47A70FFF73EFFDCE70000064A02EB0C
:100490009011096800F01F0301229A401143024B9A
:1004A00003EB901211607047001002400020002101
:1004B0003E4A126842F480323C4B1A6000BF401C36
:1004C0003A4A126802F4003111B9B0F5006FF6D162
:1004D000364A126802F400320AB900BFFEE7334A16
:1004E000D26942F08052314BDA61314A126842F4EB
:1004F00040422F4B1A602D4A52682C4B5A601A46C4
:1005000052685A601A46526842F480625A601A462B
:10051000526822F440325A601A46526842F440321D
:100520005A601A465268234B1A40204B5A601A46AA
:100530005268214B1A431D4B5A601A46126842F00A
:1005400080721A6000BF194A126802F00072002A15
:10055000F9D0174A126842F48032154B1A6000BF76
:10056000134A526802F48032002AF9D0104A126805
:1005700042F400320E4B1A6000BF0D4A526802F47A
:100580000032002AF9D0094A526822F00302074BD0
:100590005A601A46526842F002025A6000BF034A8B
:1005A000526802F00802002AF9D070470010024099
:1005B00000700040FFFFC3B70000340810B5FFF71C
:1005C00075FF10BD10B5124800684FF47A71B0FB8A
:1005D000F1F4601EB0F1807F01D301200FE0601EB6
:1005E0004FF0E02148610F214FF0FF30FFF776FE1A
:1005F00000204FF0E021886107200861002008B149
:1006000000BFFEE70021481EFFF768FE10BD000096
:10061000A40000204FF04070E1EE100A7047000087
:100620004006000800000020A80000006C0100083F
:10063000E8060008A8000020600800008801000803
:1006400000000000001001400010014000100140B7
:100650000010014040000000800000000001000088
:10066000000200000E061107130700000002000040
:100670000400000000040000000400000800000066
:10068000000800000008014000080140001001407F
:100690000206020604060406040604060406000018
:1006A000000801400010014000100140001001400E
:1006B00001000000002000002000000010000000E9
:1006C00002060406040604060100000000200000E3
:1006D000200000001000000000020202000D0504CE
:0806E0000628170A000E270787
:0400000508000131BD
:00000001FF
