:020000040800F2
:10000000D8080020D9010008E1010008E301000838
:10001000E5010008E7010008E90100080000000010
:10002000000000000000000000000000EB010008DC
:10003000ED01000800000000EF010008650700085E
:10004000F3010008F3010008F3010008F3010008C0
:10005000F3010008F3010008F3010008F3010008B0
:10006000F3010008F3010008F3010008F3010008A0
:10007000F3010008F3010008F3010008F301000890
:10008000F3010008F3010008F3010008F301000880
:10009000F3010008F3010008F3010008F301000870
:1000A000F3010008F3010008F3010008F301000860
:1000B000F3010008BD070008F3010008F301000880
:1000C000F3010008F3010008F3010008F301000840
:1000D000F3010008FD070008F3010008F301000820
:1000E000F3010008F3010008F3010008F301000820
:1000F000F3010008F3010008F3010008F301000810
:10010000F3010008F3010008F3010008F3010008FF
:10011000F3010008F3010008F3010008F3010008EF
:10012000F3010008F3010008F3010008F3010008DF
:1001300000F002F800F041F80AA090E8000C8244B8
:100140008344AAF10107DA4501D100F036F8AFF295
:10015000090EBAE80F0013F0010F18BFFB1A43F0A5
:1001600001031847CC1F0000EC1F0000103A24BF09
:1001700078C878C1FAD8520724BF30C830C144BF0C
:1001800004680C607047000000230024002500264E
:10019000103A28BF78C1FBD8520728BF30C148BFEA
:1001A0000B607047642900F07780002070471FB50E
:1001B00001F091FF1FBD10B510BD00F047F91146C9
:1001C000FFF7F5FF00F09EFF00F065F903B4FFF7BD
:1001D000F2FF03BC00F068F909488047094800476E
:1001E000FEE7FEE7FEE7FEE7FEE7FEE7FEE7FEE7E7
:1001F000FEE7FEE704480549054A064B7047000044
:100200006D07000831010008D8000020D808002040
:10021000D8040020D80400200FB4044910B503AA64
:10022000029800F0DDF810BC5DF814FB0800002017
:100230002DE9F0410E460446002020622046E16888
:10024000884730B3252805D0D4E901219047206A9A
:10025000401CF2E7E168204600278847050018D0D7
:10026000A5F14100192802D820354FF40067324625
:10027000294620462760FFF795FF40B1012804D0AA
:10028000F61D26F007060836D8E7361DD6E72846BD
:10029000DAE7206ABDE8F0812DE9F0410646002446
:1002A00010687529314616A510D0AFF300800028DC
:1002B00002DA404213A507E031688A0701D512A58A
:1002C00002E0490704D511A5012401E0AFF3008045
:1002D00000210A2206F1240709E0B0FBF2FCB0FB82
:1002E000F2F302FB1C00303078541846491C0028F9
:1002F000F3D123462A463046BDE8F04100F016B857
:10030000000000002D0000002B0000002000000075
:1003100070477047704710B500F074F8006810BD62
:1003200010B5044600F06EF8046010BD2DE9F047EA
:100330000D4699469246044600F124080168880655
:1003400004D5E06921F01001216000E00120A842FD
:1003500001DD471B00E00027A1697A1902EB0900C3
:10036000081AA0612078C00602D42046AFF30080AE
:10037000002608E0D4E901211AF806009047206A17
:10038000401C761C20624E45F4DB2078C0060AD55E
:100390002046AFF3008006E0D4E9012130209047E9
:1003A000206A401C2062381EA7F10107F4DC07E038
:1003B000D4E9012118F805009047206A401C20620A
:1003C000281EA5F10105F3DC2046AFF3008020785C
:1003D000000602D50220BDE8F0870120FBE70000FF
:1003E000074B70B50D467B4400F015F804462846CF
:1003F00000F024F810B14FF0FF3070BD204670BD02
:100400005B0C0000004870477800002001694A1C1E
:1004100002610878704700B58FB0CDE90131002145
:10042000059105497944CDE9031011466846FFF767
:10043000FFFE0FB000BD0000E5FFFFFF007B00F0F6
:100440008000704700487047780000207546FFF72D
:10045000F9FFAE4605006946534620F00700854681
:1004600018B020B5FFF7C6FEBDE820404FF00006EB
:100470004FF000074FF000084FF0000B21F007018C
:10048000AC46ACE8C009ACE8C009ACE8C009ACE8CF
:10049000C0098D46704710B50446AFF30080204672
:1004A000BDE81040FFF792BE01491820ABBEFEE741
:1004B000260002007047000010B540F2046000F012
:1004C00083FF40F20A6000F07FFF012000F09AFEF7
:1004D0000123042200211C4800F0C1FD0122110269
:1004E0001A4800F06CFD00220221184800F067FD58
:1004F0004FF460220121154800F0C1FC002113488F
:1005000000F08AFC002000F0DDFC012211460F48BB
:1005100000F05FFC05230A2200210C4800F0E0FCFB
:1005200001221146094800F08BFC0021074800F029
:100530002DFD0121054800F033FD044800F077FC53
:10054000024800F031FC10BD0010014000280140BD
:10055000F0B52DED108B89B09FED450A10EE105AC5
:100560009FED440AF0EE408A9FED430A10EE106AB8
:100570000121424800F014FD0221404800F097FCA0
:1005800000BF02213D4800F096FC0128F9D13B480C
:100590004C30006884B2214639A0FFF73DFEB7EE2B
:1005A000000AC0EE280A10EE907A384601F022FDCB
:1005B00041EC1C0B284601F01DFD41EC1E0B3046A2
:1005C00001F018FDCDE90201204601F00CFB41ECE1
:1005D0001F0B9FED2E0B53EC102B01F017FBCDE9F9
:1005E00000019DED020B53EC102B9DED000B51EC27
:1005F000100B01F04DF9CDE904019DED040B00F065
:100600003FF98DED060B53EC1E2B9DED060B51ECC7
:10061000100B01F03DF941EC1D0B53EC1C2B01F0CC
:1006200083F841EC1B0B53EC1B2B9FED1A0B51EC89
:10063000100B01F02DF941EC1A0B9FED180B53EC48
:10064000102B01F0EDFB41EC190B01F03BF808EE2B
:10065000100ABDEEC80A10EE101A09A0FFF7DCFD63
:1006600010A0FFF7D9FD09B0BDEC108BF0BD000064
:1006700000E076453313954300401C4600280140B6
:1006800036423A2025640D0A000000006666666660
:1006900066660A40000000000000F03F666666667D
:1006A000661271400D0A202A2A2A2A2A2A2A2A2A70
:1006B0002A2A2A2A2A2A2A2A2A2A2A2A2A2A2A2A9A
:1006C0002A2A2A2A2A2A2A2A2A2A0D0A000000006F
:1006D00010B540F2026000F077FE40F20E6000F0CC
:1006E00073FE4FF4C06000F06FFE4FF400730322FE
:1006F0001821124800F0B3FC4FF480630322042158
:100700000E4800F0ACFC4FF416510D4800F030FFDD
:1007100008210B4800F0C2FF0421094800F0B6FF91
:1007200040F20531064800F088FF002211462520DE
:1007300000F0FCFC024800F06CFF10BD0008014016
:100740000038014010B504462146054800F05DFF21
:1007500000BF0721024800F061FF0028F9D010BD5A
:100760000038014000B500F061FC00BD10B5104834
:10077000006840F470000E4908600E48006840F0C0
:1007800001000C49086000204860C8620846006803
:1007900009490840074908604FF41F00886008466F
:1007A000006820F48020086000F0A6FE10BD000064
:1007B00088ED00E000100240FFFFF6FE10B50121B9
:1007C0000B4800F0C9FE88B10121094800F0C0FEC5
:1007D000084802780221084800F03CFC05480078EF
:1007E00008B9012000E000200249087010BD000097
:1007F000000400400C0000200008014010B5104922
:10080000104800F027FFD0B10E4800F0F9FEC4B246
:100810000A2C09D00C480D49098844540B4800881B
:10082000401C0A4908800AE000210748074A12884C
:10083000815401200649087000200449088010BD39
:1008400005030500003801401400002004000020CA
:100850000600002010B5002804DB0A07130E054A25
:10086000135406E00A07140E034A00F00F031B1F7F
:10087000D45410BD00E400E018ED00E000000000DA
:1008800070B5D94B00242DED020B2DED108BDDE959
:100890001010984205DA20F000429A4201D809D19E
:1008A00041B19DED100BBDEC108B02B0BDE8704066
:1008B00000F05EBAB0F5801F26DA11430BD0002895
:1008C00013DA0120FFF72CFDBDEC108B02B0BDE860
:1008D000704000F059BA0220FFF722FD00F030FA14
:1008E00051EC100B00F0E2FE9EE06FF035049FED3E
:1008F000C00B53EC102B9DED100B51EC100B01F0C5
:1009000085F9CDE91001084604EB2051C0F313042A
:10091000B948A1F2FF31204400F4801080F07F62DA
:1009200082F04052224301EB20559FEDB50B11920E
:1009300053EC102B9DED100B51EC100B01F070FAE5
:1009400041EC180BA01CC0F313009FEDAFDB9FED33
:10095000B0EBB14E7E4403286CD296ED000B51EC07
:10096000180B53EC102B01F0EBF81DD1002D01BF3B
:1009700096ED000BBDEC108B02B070BD284601F067
:100980001BF941EC180B53EC1D2B01F03FF941EC26
:10099000190B53EC1E2B51EC180B01F037F953ECEB
:1009A000192B00F0C1FE3FE09FED9D0B51EC180BA1
:1009B00053EC102B01F02AF99FED9B1B53EC112BEC
:1009C00001F022FA41EC190B53EC182B51EC180BE7
:1009D00001F01CF953EC192B01F018F941EC190B3B
:1009E000002D04BF53EC192B51EC180B1AD02846DC
:1009F00001F0E2F841EC1A0B53EC1D2B01F006F963
:100A000053EC192B01F000FA53EC182B01F008FA03
:100A100041EC180B53EC1E2B51EC1A0B01F0F6F8BD
:100A200053EC182B01F0FCF9BDEC108B02B041EC3B
:100A3000100B70BD9FED7E0B51EC180B53EC102B7F
:100A400000F072FE41EC100B51EC180B53EC102B24
:100A500000F01EFF41EC190B284601F0ADF841EC07
:100A60001B0B53EC192B51EC190B01F0CFF841EC97
:100A70001A0B714853EC1A2B261851EC1A0B01F083
:100A8000C5F841EC1F0B6D48C4F1510404F5D7249F
:100A9000B0EE4F0AF0EE6F0A0321784400F0D2F86E
:100AA00053EC1F2B51EC100B01F0B0F841EC1C0B78
:100AB0006348B0EE4F0AF0EE6F0A0421784400F06C
:100AC000C1F853EC1A2B51EC100B01F09FF8344392
:100AD00053EC1C2B00F028FE41EC1C0B002C4CDDD1
:100AE0009FED510B51EC180B53EC102B01F08EF8CD
:100AF00053EC182B01F08AF841EC1A0B55B353EC68
:100B00001D2B51EC1B0B01F081F841EC1D0B53EC3C
:100B10001C2B51EC1A0B00F007FE53EC192B01F0C3
:100B200075F853EC1D2B00F0FFFD53EC1A2B01F070
:100B30006BF953EC182B01F073F941EC180B53ECE3
:100B40001E2B51EC1B0B01F061F853EC182B01F03C
:100B500067F969E753EC1C2B51EC1A0B00F0E4FD2C
:100B600053EC192B01F052F853EC1A2B01F04CF90D
:100B700053EC182B01F048F956E735B353EC1D2B15
:100B800051EC1B0B01F042F841EC1A0B53EC1C2BFF
:100B900051EC180B01F044F953EC192B01F036F825
:100BA00053EC1A2B01F03CF953EC182B01F038F9F7
:100BB00041EC180B53EC1E2B51EC1B0B01F026F8EB
:100BC00053EC182B01F02CF92EE753EC1C2B51ECB5
:100BD000180B01F025F953EC192B01F017F853EC21
:100BE000182B01F011F91FE70000F07F0000000052
:100BF0000000000000005043645F09000000000096
:100C0000000000000000F03F763C7935EF39EA3D06
:100C10000000E0FE422EE63FD0170000000000007A
:100C2000555555555555D53F000000000000E03F93
:100C3000000000000000004086EBF9FF52160000A3
:100C40004816000070B504462DED028B4D1E00EBDA
:100C5000C500B0EE408AF0EE608A90ED000B35F0F2
:100C6000060017D053EC182B51EC100B00F0CEFF00
:100C700041EC100B6D1E04EBC50090ED001B51EC18
:100C8000100B53EC112B00F04FFD41EC100B35F025
:100C90000600E7D1022D36D0042D1CD0062D1CBF36
:100CA000BDEC028B70BD53EC182B51EC100B00F017
:100CB000ADFF94ED0A1B53EC112B00F035FD53EC06
:100CC000182B00F0A3FF94ED081B53EC112B00F040
:100CD0002BFD41EC100B53EC182B51EC100B00F0DA
:100CE00095FF94ED061B53EC112B00F01DFD53EC0A
:100CF000182B00F08BFF94ED040B53EC102B00F03D
:100D000013FD41EC100B53EC182B51EC100B00F0C1
:100D10007DFF94ED021B53EC112B00F005FD53EC0D
:100D2000182B00F073FF94ED001B53EC112B00F017
:100D3000FBFCBDEC028B41EC100B70BD0000000011
:100D40009FED070B10B553EC102B9FED070B51ECEB
:100D5000100B00F09DFD41EC100B10BD00000000D9
:100D60000000000000000000000000000000F03F54
:100D700010B553EC102B51EC100B00F0D5FC41ECEE
:100D8000100B10BD000000009FED050B10B553ECDB
:100D9000102B51EC100B00F07BFD41EC100B10BD43
:100DA0000000000000000000816841F0080181603F
:100DB00000BF816801F008010029FAD1816841F083
:100DC0000401816000BF816801F004010029FAD1AB
:100DD000704730B5012902D002291AD10CE0C36A4C
:100DE00023F47003C362C36A541E4FF4700505EA0E
:100DF00004542343C3620DE0836B23F440138363E5
:100E0000836B541E4FF4401505EA04542343836357
:100E100000E000BF00BF30BD21B1826842F4006233
:100E2000826003E0826822F4006282607047816819
:100E300001F0010119B9816841F001018160704739
:100E400072B101F001031BB1836843F48013836026
:100E500001F0020393B1836843F4004383600DE023
:100E600001F001031BB1836823F48013836001F058
:100E700002031BB1836823F4004383607047012998
:100E800002D0022910D107E0836823F46023836035
:100E900083681343836008E0836823F4E04383603E
:100EA00083681343836000E000BF00BF704702689F
:100EB0008A43026070470246002013680B4003B16A
:100EC000012070470549096821F47021034A116027
:100ED0001146096801431160704700000424014075
:100EE000F0B51D4606290CD2436B01EB81071F2686
:100EF000BE40B34301EB810602FA06F63343436377
:100F000022E00C290ED2036B8E1F06EB86071F26EC
:100F1000BE40B3438E1F06EB860602FA06F6334345
:100F2000036311E010290FD2C36AA1F10C0606EB8E
:100F300086071F26BE40B343A1F10C0606EB8606CA
:100F400002FA06F63343C3620A2A0CD2046902EBA2
:100F500042070726BE40B44302EB420605FA06F6F6
:100F60003443046111E0122A0FD2C468A2F10A06C8
:100F700006EB46070726BE40B443A2F10A0606EB7D
:100F8000460605FA06F63443C460F0BD50F8802FDB
:100F900022F44052026002680A4340F880297047F8
:100FA00001F001021AB1826842F48002826001F00D
:100FB00002021AB1826842F4001282607047AAB13C
:100FC00001F480731BB1436843F48073436001F400
:100FD00080631BB1436843F48063436001F0020304
:100FE000CBB1836843F00203836014E001F48073A3
:100FF0001BB1436823F48073436001F480631BB129
:10100000436823F48063436001F002031BB18368EB
:1010100023F00203836070470349086000BF024960
:1010200009680029FBD170470000002004480068CF
:1010300020B103480068401E014908607047000065
:101040000000002070B504460D46E0B2FFF77AFBC1
:10105000204670BD0AB1016100E041617047F0B502
:101060000C4616460025002204F00F0504F0100778
:1010700047B1042E05D145F00305C76B1F43C76375
:1010800000E03543002118E001278F401F4097B151
:1010900002684FEA810C0F2707FA0CF7BA438F005A
:1010A00005FA07F73A43282C01D1436102E0482CA6
:1010B00000D1036102604F1CB9B20829E4D30821B2
:1010C0001CE001278F401F40B7B14268A1F108071B
:1010D0004FEA870C0F2707FA0CF7BA43A1F108076C
:1010E000BF0005FA07F73A43282C01D1436102E01B
:1010F000482C00D1036142604F1CB9B21029E0D3E3
:10110000F0BD000000F0FCF9FFF7E2FAFFF7D4F9B8
:1011100009E001210448FFF743FFFFF719FA4FF4F4
:10112000FA70FFF779FFF4E7002801402DE9F0415C
:1011300003460D46164600240027A0462A480068AC
:1011400000F4E060B0F5E06F03D100BF4FF0040899
:1011500030E02548006800F4E060B0F5C06F03D1CE
:1011600001274FF0030825E01F48006800F4E06005
:10117000B0F5A06F02D10227B8461BE01A480068FC
:1011800000F4E060B0F5806F03D103274FF0010851
:1011900010E01548006800F4E060B0F5407F03D12E
:1011A00004274FF0000805E04FF4A06000F020F89D
:1011B0000227B846C7F1040005FA00F4C8F104019B
:1011C0000F20C8403040044324010848C45403F0B1
:1011D0001F01012088405911890001F1E021C1F867
:1011E0000001BDE8F08100000CED00E000E400E04B
:1011F00002490143024A1160704700000000FA05ED
:101200000CED00E0184B5968184B1940164BDA6A80
:1012100022F000520C2820D2DFE800F0060708096F
:101220001F0C1F0D1516171800BF00BF00BF41EAA5
:10123000803113E000BF20F004004FF0805343EAF8
:10124000803319430AE000BF00BF00BF20F00C004C
:1012500041EA803142F0005200E000BF00BF024B83
:101260005960DA627047000000100240FF3FFFEF54
:101270002DE9F04F8CB0074600200A904AA090E874
:10128000004CC068CDE905BECDF810A007900FF264
:101290001C1ADAE9000ACDE9020A0FF2101ADAE99B
:1012A000000ACDE9000A44484068C0F381000B9071
:1012B0000B9820B1012804D002283FD103E03F4A17
:1012C0003EE03E4A3CE03C48406800F4803CBCF5CF
:1012D000803F12D13848C06A00F08048B8F1000F52
:1012E00001D1364C00E0364C3348406800F40039F8
:1012F000B9F5003F02D1334C00E0324C2E48406833
:10130000C0F383412C48406800F0006008B141F010
:1013100010012948406800F0804008B141F02001E8
:101320000F2901D2891C06E00F2903D33E2901D8D9
:10133000491C00E03F2104FB01F201E01F4A00BF0D
:1013400000BF1D484068C0F3031504A8465D22FA9B
:1013500006F319484068C0F3022502A8465D23FA47
:1013600006F0099014484068C0F3C2251DF80560D6
:1013700023FA06F0089037B1012F06D0022F06D0CD
:10138000032F0AD106E00A9208E00A9306E00998C2
:101390000A9003E008980A9000E000BF00BF0A9896
:1013A0000CB0BDE8F08F000000000000000000005D
:1013B00001020304060708090010024000127A0027
:1013C000006CDC0200093D00064A02EB901109683E
:1013D00000F01F0301229A401143024B03EB9012CD
:1013E0001160704700100240002000213E4A126840
:1013F00042F480323C4B1A6000BF401C3A4A1268EB
:1014000002F4003111B9B0F5006FF6D1364A126816
:1014100002F400320AB900BFFEE7334AD26942F053
:101420008052314BDA61314A126842F440422F4B0C
:101430001A602D4A52682C4B5A601A4652685A60FC
:101440001A46526842F480625A601A46526822F480
:1014500040325A601A46526842F440325A601A4684
:101460005268234B1A40204B5A601A465268214B4F
:101470001A431D4B5A601A46126842F080721A6075
:1014800000BF194A126802F00072002AF9D0174A08
:10149000126842F48032154B1A6000BF134A52683A
:1014A00002F48032002AF9D0104A126842F4003265
:1014B0000E4B1A6000BF0D4A526802F40032002A37
:1014C000F9D0094A526822F00302074B5A601A46C3
:1014D000526842F002025A6000BF034A526802F0AA
:1014E0000802002AF9D07047001002400070004046
:1014F000FFFFC3B70000340810B5FFF775FF10BD3C
:1015000010B5124800684FF47A71B0FBF1F4601E18
:10151000B0F1807F01D301200FE0601E4FF0E02189
:1015200048610F214FF0FF30FFF794F900204FF092
:10153000E021886107200861002008B100BFFEE7B4
:101540000021481EFFF786F910BD000010000020A2
:1015500002698A43026170470246D06800EA0103CB
:101560001069084010B10BB1012070470020FCE762
:101570002DE9F04704460D460027B846B946002637
:101580001D49601A8C421CD006DC1C48204470B1F6
:10159000B0F5806F1FD10FE0B0F5806F16D0B0F5B9
:1015A0006C4F18D10320FFF763FE074614E00220BA
:1015B000FFF75EFE07460FE00220FFF759FE0746E1
:1015C0000AE00220FFF754FE074605E00220FFF77D
:1015D0004FFE074600E000BF00BF07EB5500B0FB21
:1015E000F5F64FF6F07006EA000806F00F0948EA33
:1015F0000900A060BDE8F087004C004000BCFFBFC0
:1016000001464868C0F308007047C1F30802426011
:101610007047C16841F40051C160704710B502467F
:1016200002EB9110006801F01F040123A340184051
:1016300008B1012010BD0020FCE710B5C1F38912EC
:10164000825801F01F040123A3401A43C1F38913F8
:10165000C25010BD70B5024600230024C1F38910AA
:10166000105801F01F060125B54000EA050302EB02
:1016700091500068C1F304460125B54000EA050415
:1016800014B10BB1012070BD0020FCE70A46002117
:10169000C16821F004011143C16070470A4600216E
:1016A000C16821F008011143C160704781F0004119
:1016B000704780F00040704721F00041704720F0F3
:1016C0000040704721F00042A2F16052B2F5801F45
:1016D00001F0004328BFD2F17F6C0BD95FEA001CF8
:1016E00043EAC20242EB507018BF704728BF20F097
:1016F00001007047B2F5801FBCBF184670474FEA23
:10170000410C1CF5001F02D2084600F0E9BC70B580
:1017100000F026FB00000089FFF7F6BF4FF0004005
:10172000A0F580007047000010B591EA030F48BF94
:1017300083F0004300F17C83841A71EB030C05D223
:10174000121943EB0C03001B61EB0C01DFF824E1E1
:101750004FEA1154A4EB135C1EEA430F18BF9EEA34
:10176000445F73D023EA0E03DCF1200E21EA04511A
:1017700043F4801332D322FA0CFE10EB0E0023FA4E
:101780000CFE41EB0E01CCF1200E03FA0EFE10EB25
:101790000E0051F10001B1F5801FCCF1200E32D2C4
:1017A00001EB045112FA0EF2BDE8104058BF704729
:1017B000401C38BF5FEA420218BF7047002814BFC0
:1017C00020F0010041F100014FEA410313F5001F31
:1017D00038BF7047A1F1C04100F010BB012A43EBB4
:1017E0000302ACF1200CDCF11F0E32BF4FF0000EF3
:1017F00023FA0CF310EB030041EB0451B4EB115F3F
:10180000D0D0A1EB045101F5801149085FEA300006
:1018100001EB04510ED350F1000038BF12FA0EFE56
:1018200008D1BDE81040C9E7401C38BF5FEA42025A
:10183000CAD1C3E7BDE810404FEA410313F5001FCA
:1018400038BF7047A1F1C04100F0D8BA9EEA445FAA
:1018500008D011EA5E0FBDE8104004BF01F000415E
:1018600000207047BDE8104070B500F079FA00BF65
:1018700064FBBE3E0000E0FF491058BFC1F140418B
:101880005B1058BFC3F140438B42EFF300807047B9
:101890002DE9C04130B4DFF8A0C23CEA111418BFF2
:1018A0003CEA131400F0EC8081EA03051CEA1114F1
:1018B00044EAD57418BF1CEA131500F0C780A4EBE6
:1018C00005044FF0004545EAC12145EAC32341EA3A
:1018D000505143EA525304F17F74994204F50034A5
:1018E0004FEAC0204FEAC22208BF904200F09C801D
:1018F0004FEA13650FF24016765D4FEA134506FB7B
:1019000005F7C7F1807706FB07F74FEAD737A7FB44
:1019100003687642C8F58038A7FB06CE38BFA8F129
:10192000010807FB08E64FF0000EA6FB028CE6FB61
:1019300003CEDCF1000CCEF1004E38BFAEF1010E4B
:10194000A6FB0C584FF000074FF00005E6FB0E8792
:10195000A1FB08C6A0FB07CE16EB0E0645F100055D
:10196000E1FB076515F1E04E7EBFA4F580345FEA28
:1019700046066D4116F1800745F100054FEA17272D
:101980004FEA066647EA0567A6F1DE46B6F1805FD4
:101990004FEA15251FD9384624F0010C05EBC47118
:1019A000BCF1FE6F01EB0C1102D8F0BCBDE8008168
:1019B00024425CBF01F5801E9EEAC47F02D4F0BCC5
:1019C000BDE80081244238D4F0BCA1F1C041BDE89B
:1019D000004100F013BA4FEAD22242EA43524FEAE2
:1019E000D323A7FB02864FEAD02040EA415007FBF1
:1019F00003661EEA0E0F4FEAD12105FB026658BFAF
:101A0000A6EB0056B6EB00564FEA520E4EEAC37EE6
:101A100018EB0E0E56EB530EBDD518EB02085E41C7
:101A20007F1C55F10005B6E74FF480154FF0000715
:101A30004FF000064FF00008ADE7F0BC4FF000009B
:101A400001F1C04101F00041BDE8008111EA0C1F25
:101A50000CEA131500D00CE013EA0C1F00F02580EF
:101A60004FF00000F0BC81EA030101F00041BDE845
:101A70000081F0BCBDE8004181EA030100F0BEB97D
:101A8000F0BCBDE8004170B500F06AF9097EFC3E8B
:101A900000F007B881EA03014FF0000001F00041B7
:101AA000704781EA030100F0A9B9F0BCBDE800412C
:101AB0004FF0000021497047FFFDFBF9F7F5F4F204
:101AC000F0EEEDEBE9E8E6E4E3E1E0DEDDDBDAD8D9
:101AD000D7D5D4D3D1D0CFCDCCCBCAC8C7C6C5C437
:101AE000C2C1C0BFBEBDBCBBBAB9B8B7B6B5B4B34E
:101AF000B2B1B0AFAEADACABAAA9A8A8A7A6A5A439
:101B0000A3A3A2A1A09F9F9E9D9C9C9B9A999998FC
:101B10009797969595949393929191908F8F8E8E9F
:101B20008D8C8C8B8B8A898988888787868585842C
:101B300084838382828181800000FF070000F87F18
:101B400051EA030C17D41CF5801F58BFBCF5801F49
:101B500000F10680994218BF704708BF9042704755
:101B600007D711F5801F58BF13F5801F19D499426C
:101B70007047894270471CF5801F08D5BCF5801F4F
:101B8000F7D58B4218BF704708BF824270474FF4A9
:101B9000001C1CEB410F38BF1CEB430F01D28B42E2
:101BA000704770B500F0DCF8922449004FF0005106
:101BB0004FF08053FFF760BE10F0004248BF404234
:101BC000B0FA80F310FA03F10AD0C3F11D0303F554
:101BD00080634FEA415002EB035202EBD121704780
:101BE0004FF000007047B0FA80F310FA03F10AD00A
:101BF000C3F11D0303F580634FEA41504FEA0352DE
:101C000002EBD12170474FF000007047DFF848C168
:101C100070B51CEA111E1EBF1CEA13159EEA0C0FBC
:101C200095EA0C0F00F06F8081EA030423EA4C135D
:101C30004EEAD47E21EA4C1141F4801143F4801322
:101C4000AE44A1FB024CA0FB0365AEF17F7E3619CA
:101C500055EB0C05A1FB034C4CF10003A0FB021C4F
:101C600016EB0C06654153F10003094218BF46F01C
:101C7000010613F4007F0BD14FEA03314FEA053020
:101C8000340341EA155140EA16506FF003020AE0AE
:101C90004FEAC3214FEAC520F40241EA555140EA18
:101CA00056506FF0020202EB2E4201EB025585EA1C
:101CB000CE710AD05FEA440C18BF24F0004450F102
:101CC000000041F1000120EAD47040F2FE7C624540
:101CD00000D270BDA84214BF4FF080444FF0404482
:101CE000002E08BF0024BEF1806FA8BFA1F1C04143
:101CF000BDE8704080F282804FF0000001F1C041E9
:101D000001F0004170479EEA0C0F0CEA131518BF52
:101D100095EA0C0F06D04FF0000081EA030E0EF09A
:101D2000004170BD00F01CF88900013E00F007B8CA
:101D300000F009B84FEA430C5FEA5C5C08D081EA26
:101D4000030100F05BB84FEA410C5FEA5C5CF6D13E
:101D50004FF00000014970470000FF070000F87FC6
:101D60000EF1020E2EF0030E5EF8046B364205D41F
:101D7000012A43EB030515F5001F12D8012841EB9A
:101D8000010C1CF5001F0CD80ED14FEAD17C15F5C3
:101D9000001F0CEB4C0C0CF1020C08BF4CEBD37C7D
:101DA00004E04FF0080C01E04FEAD37C0CEB4C054B
:101DB00026FA05F606F00706B6F1040C06D20EEB7D
:101DC000860CBDE870404CF0010C6047DFE80CF079
:101DD000090B02024FF000414FF00000A1F5002175
:101DE00070BD19461046012851EB010418BFD4F507
:101DF000001484BF002001F0004170BD0808A0F568
:101E000000114FEA3101704791EA030F10B581F0DC
:101E100000413FF591AC83F0004300F009B80000A9
:101E200010B591EA030F48BF83F000433FF584AC3F
:101E3000841A71EB030C07D212198CF0004C43EB9F
:101E40000C03001B61EB0C01DFF8A4E14FEA115415
:101E5000A4EB135C1EEA430F18BF9EEA445F00F038
:101E6000B08023EA6E03524221EA0451C3EB6E03B1
:101E700038BF5B1EDCF1200E25D322FA0CFE10EBDE
:101E80000E0043FA0CFE41EB0E01CCF1200E03FADA
:101E90000EFE10EB0E0051F10001CCF1200E29D402
:101EA00012FA0EF201EB0451BDE8104058BF704722
:101EB000401C1CBFB2F1004F704700280CBF491CEA
:101EC00020F00100704712EB020E43EB030218BF33
:101ED0004FF0010E4EEA4202ACF1200CDCF11E0E76
:101EE00054D943FA0CFE10EB0E0051F1FF31CCF146
:101EF0001E0ED5D50EF1010E12FA0EFE404141EB39
:101F0000010101EB445C5FEA5C5C10D910EBDE7010
:101F100001EB045138BFBEF1004FBDE8104018BFBF
:101F2000704700280CBF491C20F00100704730D2D8
:101F30004FEAD42C11F5001124F400641BD0B1FA3F
:101F400081F20B3AA41AA41ED2F12003914030FA78
:101F500003F31943904001EBCC71002C01EB0451C9
:101F6000BDE81040A8BF704701F1C0414FF000002C
:101F700001F000417047B0FA80F310FA03F100D18C
:101F800010BDE41A173C4805C90AE4E701EB045107
:101F900010BD491001EB0451BDE810404FEA30007C
:101FA00002E04FF0000170474A0008BF0042F8D03D
:101FB000B2F5001F28BF704701F000414FF000004C
:101FC00070479EEA445F07D011EA5E0FBDE81040FB
:101FD00004BF002100207047BDE8104070B5FFF736
:101FE000BFFE00BF40DFF63E83F000411046704761
:101FF0000000E0FF43004FEAD30C4FEA3C0C4340A3
:102000001FBF40070CF1605113F0FE4F70471CF0EA
:10201000006F03D100200CF0004170470CF000432A
:1020200043EA507010B540EACC0000F00EF800BF53
:10203000000000924FEA0001FFF7E0BE4FF00041C0
:102040004FF00000A1F5002170470EF1020E2EF0B6
:10205000030E5EF8044B244204D44FEA4102B2F16D
:102060007F4F11D84FEA4003B3F17F4F0CD80ED108
:102070004FEAD07CB2F17F4F0CEB4C0C0CF1020C10
:1020800008BF4CEBD17C04E04FF0080C01E04FEAB4
:10209000D17C0CEB4C0324FA03F404F00704B4F1F4
:1020A000040C06D20EEB840CBDE810404CF0010C81
:1020B0006047DFE80CF0070802024FF00040A0F58F
:1020C000800010BD0846420018BFD2F1807288BF60
:1020D00000F0004010BD4FF04070E1EE100A704774
:1020E000FF2141EAD050C005704700000000000009
:1020F00004FA97999999D93FAF788E1DC571CC3F55
:102100009FC678D0099AC33F935555555555E53F1D
:10211000599322942449D23FDE03CB966446C73FAD
:1021200044523EDF12F1C23F0000000000000000F8
:102130005021000800000020140000006C0100087D
:102140006421000814000020C40800008801000871
:10215000000000000000000000000000000000007F
:04216000000E27073F
:0400000508000131BD
:00000001FF
