:020000040800F2
:10000000E0080020D9010008E1010008E301000830
:10001000E5010008E7010008E90100080000000010
:10002000000000000000000000000000EB010008DC
:10003000ED01000800000000EF0100089106000833
:10004000F3010008F3010008F3010008F3010008C0
:10005000F3010008F3010008F3010008F3010008B0
:10006000F3010008F3010008F3010008F3010008A0
:10007000F3010008F3010008F3010008F301000890
:10008000F3010008F3010008F3010008F301000880
:10009000F3010008F3010008F3010008F301000870
:1000A000F3010008F3010008F3010008F301000860
:1000B000F3010008E9060008F3010008F301000855
:1000C000F3010008F3010008F3010008F301000840
:1000D000F301000829070008F3010008F3010008F4
:1000E000F3010008F3010008F3010008F301000820
:1000F000F3010008F3010008F3010008F301000810
:10010000F3010008F3010008F3010008F3010008FF
:10011000F3010008F3010008F3010008F3010008EF
:10012000F3010008F3010008F3010008F3010008DF
:1001300000F002F800F041F80AA090E8000C8244B8
:100140008344AAF10107DA4501D100F036F8AFF295
:10015000090EBAE80F0013F0010F18BFFB1A43F0A5
:10016000010318473813000058130000103A24BF49
:1001700078C878C1FAD8520724BF30C830C144BF0C
:1001800004680C607047000000230024002500264E
:10019000103A28BF78C1FBD8520728BF30C148BFEA
:1001A0000B607047782900F06B80002070471FB506
:1001B00001F052F91FBD10B510BD00F0E5F9114670
:1001C000FFF7F5FF00F016FE00F003FA03B4FFF7A7
:1001D000F2FF03BC00F00AFA0948804709480047CB
:1001E000FEE7FEE7FEE7FEE7FEE7FEE7FEE7FEE7E7
:1001F000FEE7FEE704480549054A064B7047000044
:100200009906000831010008E0000020E008002005
:10021000E0040020E00400200FB4044910B503AA54
:10022000029800F083F910BC5DF814FB1000002068
:1002300070B5044685690068C10601D5302600E026
:100240002026C00707D070BDD4E901213046904771
:10025000206A401C20626D1EF6D570BD70B5044644
:1002600085690078C00707D170BDD4E9012120203D
:100270009047206A401C20626D1EF6D570BD0000BC
:1002800070B504460D4621461068AFF30080218802
:10029000090502D50F4A7A4402E00E4A7A440E322A
:1002A000002104F1240305E000F00F060009965D2B
:1002B0005E54491C0028F7D120780023000704D59C
:1002C000702D02D009B1022311322046BDE87040E2
:1002D00000F0D3B8C81100002DE9F05F894604464C
:1002E0004FF0000ADFF824B1FB44C0F820A02046FC
:1002F000E168884700287DD0252806D0D4E901216F
:100300009047206A401C2062F1E700255F462046A6
:10031000E16888472028064607DB312E05D2B81948
:1003200010F8200C08B10543F1E7A80701D525F026
:100330000405C4F81CA00027C4F818A02A2E09D070
:10034000304600F031FA38B304EB8708303EC8F885
:10035000186019E059F8041B204604EB87029161EC
:10036000E1688847012F064618D1E069002820DAA5
:1003700025F020051DE0D8F8180000EB800006EB02
:1003800040003038C8F818002046E1688847064623
:1003900000F00AFA0028EED1012F0AD02E2E08D143
:1003A0002046E16888477F1C0646022F45F020055D
:1003B000C4DBA069002803DA404245F00105A061D2
:1003C000E80701D025F01005A6B1A6F141001928D3
:1003D00002D8203645F400654A463146204625605D
:1003E0004D46FFF7DFFE60B1012807D0ED1D25F077
:1003F000070000E007E000F1080978E705F10409CB
:1004000075E730467AE7206ABDE8F09F9E1100004C
:1004100010B5203AC0F00B80B1E81850203AA0E89F
:100420001850B1E81850A0E81850BFF4F5AF5FEAD3
:10043000027C24BFB1E81850A0E8185044BF18C986
:1004400018C0BDE810405FEA827C24BF51F8043B2D
:1004500040F8043B08BF7047D20728BF31F8023B81
:1004600048BF11F8012B28BF20F8023B48BF00F815
:10047000012B70477047704770472DE9F0470D46D4
:1004800099469246044600F124080168880604D57E
:10049000E06921F01001216000E00120A84201DDA7
:1004A000471B00E00027A1697A1902EB0900081A2E
:1004B000A0612078C00602D42046FFF7B9FE0026CE
:1004C00008E0D4E901211AF806009047206A401C90
:1004D000761C20624E45F4DB2078C0060AD5204603
:1004E000FFF7A6FE06E0D4E9012130209047206AFC
:1004F000401C2062381EA7F10107F4DC07E0D4E9B4
:10050000012118F805009047206A401C2062281E2F
:10051000A5F10105F3DC2046FFF7A0FE20780006D8
:1005200002D50220BDE8F0870120FBE7074B70B53C
:100530000D467B4400F011F80446284600F020F8F0
:1005400010B14FF0FF3070BD204670BDEB070000CA
:1005500001694A1C02610878704700B58FB0CDE987
:1005600001310021059105497944CDE90310114677
:100570006846FFF7B1FE0FB000BD0000E5FFFFFFCA
:10058000007B00F080007047754600F02BF8AE4607
:1005900005006946534620F00700854618B020B58F
:1005A000FFF728FEBDE820404FF000064FF000079F
:1005B0004FF000084FF0000B21F00701AC46ACE80B
:1005C000C009ACE8C009ACE8C009ACE8C0098D4678
:1005D000704710B50446AFF300802046BDE81040D8
:1005E000FFF7F4BD00487047800000200149182043
:1005F000ABBEFEE7260002007047000010B540F2D7
:10060000026000F0B1FD40F20E6000F0ADFD4FF46D
:10061000C06000F0A9FD4FF40073032218211248B6
:1006200000F096FB4FF48063032204210E4800F093
:100630008FFB4FF416510D4800F070FE08210B4857
:1006400000F002FF0421094800F0F6FE40F20531F7
:10065000064800F0C8FE00221146252000F020FCCC
:10066000024800F0ACFE10BD000801400038014017
:1006700010B504462146054800F09DFE00BF072145
:10068000024800F0A1FE0028F9D010BD003801405A
:1006900000B500F0F3F900BD10B51048006840F453
:1006A00070000E4908600E48006840F001000C49D7
:1006B000086000204860C862084600680949084090
:1006C000074908604FF41F0088600846006820F45E
:1006D0008020086000F0E0FD10BD000088ED00E023
:1006E00000100240FFFFF6FE10B501210B4800F09C
:1006F00008FE88B10121094800F0FFFD0848027892
:100700000221084800F014FB0548007808B90120D0
:1007100000E000200249087010BD00000004004005
:10072000140000200008014010B51049104800F0E6
:1007300067FED0B10E4800F039FEC4B20A2C09D0D1
:100740000C480D49098844540B480088401C0A494C
:1007500008800AE000210748074A128881540120D6
:100760000649087000200449088010BD05030500F3
:10077000003801401C0000200C0000200E0000206A
:1007800010B5002804DB0A07130E054A135406E0CF
:100790000A07140E034A00F00F031B1FD45410BDA8
:1007A00000E400E018ED00E030380A2801D2012012
:1007B000704700207047816841F00801816000BFE8
:1007C000816801F008010029FAD1816841F0040133
:1007D000816000BF816801F004010029FAD17047EF
:1007E00030B5012902D002291AD10CE0C36A23F4E2
:1007F0007003C362C36A541E4FF4700505EA0454C3
:100800002343C3620DE0836B23F440138363836B44
:10081000541E4FF4401505EA04542343836300E05B
:1008200000BF00BF30BD000010B5012211021C48FE
:1008300000F0ECF800220221194800F0E7F84FF42C
:1008400060220121164800F065F80021144800F0EC
:1008500029F84FF4C02000F075F802220121104859
:10086000FFF7BEFF0523012200210D4800F078F8B4
:100870000523002201210A4800F072F801221146E6
:10088000074800F028F8064800F01CF8012000F0A6
:10089000EBF80348FFF78FFF014800F00EF810BD9A
:1008A0000028014021B1826842F40062826003E0C6
:1008B000826822F4006282607047816841F480712E
:1008C00081607047816801F0010119B9816841F0C8
:1008D00001018160704772B101F001031BB18368AF
:1008E00043F48013836001F0020393B1836843F4FF
:1008F000004383600DE001F001031BB1836823F422
:100900008013836001F002031BB1836823F400436A
:1009100083607047012902D0022910D107E0836863
:1009200023F46023836083681343836008E0836853
:1009300023F4E043836083681343836000E000BFD7
:1009400000BF70470549096821F47021034A11600E
:1009500011460968014311607047000004240140FA
:10096000F0B51D4606290CD2436B01EB81071F260B
:10097000BE40B34301EB810602FA06F633434363FC
:1009800022E00C290ED2036B8E1F06EB86071F2672
:10099000BE40B3438E1F06EB860602FA06F63343CB
:1009A000036311E010290FD2C36AA1F10C0606EB14
:1009B00086071F26BE40B343A1F10C0606EB860650
:1009C00002FA06F63343C3620A2A0CD2046902EB28
:1009D00042070726BE40B44302EB420605FA06F67C
:1009E0003443046111E0122A0FD2C468A2F10A064E
:1009F00006EB46070726BE40B443A2F10A0606EB03
:100A0000460605FA06F63443C460F0BDAAB101F407
:100A100080731BB1436843F48073436001F48063C7
:100A20001BB1436843F48063436001F00203CBB120
:100A3000836843F00203836014E001F480731BB108
:100A4000436823F48073436001F480631BB14368FF
:100A500023F48063436001F002031BB1836823F039
:100A600002038360704700000349086000BF024929
:100A700009680029FBD1704708000020044800687D
:100A800020B103480068401E01490860704700001B
:100A90000800002070B505460C462146284600F0A7
:100AA00033F908B900BFFEE704EB8400810005F1CB
:100AB0000800405840F0010104EB8400820005F179
:100AC0000800815070BD70B505460C462146284689
:100AD00000F01AF908B900BFFEE704EB84008100BA
:100AE00005F10800405840F0200104EB840082002A
:100AF00005F10800815070BD00B58DB00021164889
:100B000000F030F81548069000208DF830001448A9
:100B1000089001208DF83100400207908000099074
:100B200000208DF8320002200A9000030B9014225E
:100B300008A96846FFF76CFC00210748DDE9062399
:100B400000F048F800210448FFF7BDFF00210248EB
:100B5000FFF7A0FF0DB000BD000402404C2801408B
:100B60000000002070B504460D462946204600F0DE
:100B7000CBF808B900BFFEE705EB8500810004F162
:100B80000800405820F0010105EB8500820004F1C7
:100B900008008150002105EB8500820004F1080067
:100BA000815005EB8500820004F10C00815005EBBB
:100BB0008500820004F11000815005EB8500820061
:100BC00004F1140081506068AA000F21914008438D
:100BD000606070BD0FB470B504460D4629462046CE
:100BE00000F092F808B900BFFEE705EB850082002F
:100BF00004F110000699815005EB8500820004F194
:100C00001400089981500A9881B205EB8500820092
:100C100004F10C00815005EB8500810004F108000F
:100C2000465826F47C560999079808430B990843BF
:100C3000064305EB8500810004F1080046509DF84D
:100C4000300001280ED105EB8500810004F1080079
:100C5000405840F0400105EB8500820004F1080097
:100C600081500DE005EB8500810004F1080040583B
:100C700020F0400105EB8500820004F1080081505E
:100C80009DF8310001280ED105EB8500810004F1AB
:100C90000800405840F0800105EB8500820004F117
:100CA000080081500DE005EB8500810004F108008B
:100CB000405820F0800105EB8500820004F1080017
:100CC00081509DF8320070B905EB8500810004F178
:100CD0000800405820F0100105EB8500820004F167
:100CE000080081500DE005EB8500810004F108004B
:100CF000405840F0100105EB8500820004F1080027
:100D0000815070BC5DF814FB02460120034B9A42EF
:100D100002D1042900DD00207047000000040240D9
:100D200070B504460D46E0B2FFF7A2FC204670BD48
:100D30000AB1016100E041617047000010B5032372
:100D400004220021014800F003F810BD001001400A
:100D5000F0B50C4616460025002204F00F0504F0FD
:100D6000100747B1042E05D145F00305C76B1F439B
:100D7000C76300E03543002118E001278F401F4082
:100D800097B102684FEA810C0F2707FA0CF7BA43B4
:100D90008F0005FA07F73A43282C01D1436102E09E
:100DA000482C00D1036102604F1CB9B20829E4D37A
:100DB00008211CE001278F401F40B7B14268A1F114
:100DC00008074FEA870C0F2707FA0CF7BA43A1F17F
:100DD0000807BF0005FA07F73A43282C01D1436101
:100DE00002E0482C00D1036142604F1CB9B21029C7
:100DF000E0D3F0BD00F0A2F900F052FAFFF79EFF39
:100E0000FFF77AFEFFF710FD4FF0804000F070FA18
:100E1000FFF7F4FB10E04FF47A70FFF725FE074868
:100E2000016807A0FFF7F8F9044841680DA0FFF733
:100E3000F3F915A0FFF7F0F9EDE70000000000203E
:100E40000A20414443303A205041302C20616463F1
:100E50005F76616C75655B305D203D2025303858CC
:100E6000200A00000A20414443313A205041312CED
:100E7000206164635F76616C75655B315D203D2048
:100E800025303858200A00000A202A2A2A2A2A2A2D
:100E90002A2A2A2A2A2A2A2A2A2A2A2A2A200A0006
:100EA0002DE9F04103460D46164600240027A046D2
:100EB0002A48006800F4E060B0F5E06F03D100BF9D
:100EC0004FF0040830E02548006800F4E060B0F519
:100ED000C06F03D101274FF0030825E01F480068C9
:100EE00000F4E060B0F5A06F02D10227B8461BE025
:100EF0001A48006800F4E060B0F5806F03D1032762
:100F00004FF0010810E01548006800F4E060B0F50B
:100F1000407F03D104274FF0000805E04FF4A060A4
:100F200000F020F80227B846C7F1040005FA00F4E3
:100F3000C8F104010F20C840304004432401084890
:100F4000C45403F01F01012088405911890001F1A8
:100F5000E021C1F80001BDE8F08100000CED00E0E7
:100F600000E400E002490143024A116070470000BA
:100F70000000FA050CED00E0184B5968184B1940B9
:100F8000164BDA6A22F000520C2820D2DFE800F07B
:100F9000060708091F0C1F0D1516171800BF00BF04
:100FA00000BF41EA803113E000BF20F004004FF0A1
:100FB000805343EA803319430AE000BF00BF00BFFB
:100FC00020F00C0041EA803142F0005200E000BF06
:100FD00000BF024B5960DA62704700000010024007
:100FE000FF3FFFEF2DE9F04F8CB0074600200A903D
:100FF0004AA090E8004CC068CDE905BECDF810A02D
:1010000007900FF21C1ADAE9000ACDE9020A0FF282
:10101000101ADAE9000ACDE9000A44484068C0F332
:1010200081000B900B9820B1012804D002283FD1F9
:1010300003E03F4A3EE03E4A3CE03C48406800F462
:10104000803CBCF5803F12D13848C06A00F080482F
:10105000B8F1000F01D1364C00E0364C33484068FF
:1010600000F40039B9F5003F02D1334C00E0324CB6
:101070002E484068C0F383412C48406800F000606F
:1010800008B141F010012948406800F0804008B1E3
:1010900041F020010F2901D2891C06E00F2903D35A
:1010A0003E2901D8491C00E03F2104FB01F201E088
:1010B0001F4A00BF00BF1D484068C0F3031504A8C5
:1010C000465D22FA06F319484068C0F3022502A8DB
:1010D000465D23FA06F0099014484068C0F3C22523
:1010E0001DF8056023FA06F0089037B1012F06D0ED
:1010F000022F06D0032F0AD106E00A9208E00A93D5
:1011000006E009980A9003E008980A9000E000BF02
:1011100000BF0A980CB0BDE8F08F0000000000008E
:101120000000000001020304060708090010024045
:1011300000127A00006CDC0200093D0010B540F29C
:10114000046000F011F840F20A6000F00DF840F27F
:10115000015000F009F84FF4E06000F005F80120BC
:10116000FFF70AFF10BD0000064A02EB9011096864
:1011700000F01F0301229A401143024B03EB90122F
:101180001160704700100240002000213E4A1268A2
:1011900042F480323C4B1A6000BF401C3A4A12684D
:1011A00002F4003111B9B0F5006FF6D1364A126879
:1011B00002F400320AB900BFFEE7334AD26942F0B6
:1011C0008052314BDA61314A126842F440422F4B6F
:1011D0001A602D4A52682C4B5A601A4652685A605F
:1011E0001A46526842F480625A601A46526822F4E3
:1011F00040325A601A46526842F440325A601A46E7
:101200005268234B1A40204B5A601A465268214BB1
:101210001A431D4B5A601A46126842F080721A60D7
:1012200000BF194A126802F00072002AF9D0174A6A
:10123000126842F48032154B1A6000BF134A52689C
:1012400002F48032002AF9D0104A126842F40032C7
:101250000E4B1A6000BF0D4A526802F40032002A99
:10126000F9D0094A526822F00302074B5A601A4625
:10127000526842F002025A6000BF034A526802F00C
:101280000802002AF9D070470010024000700040A8
:10129000FFFFC3B70000340810B5FFF775FF10BD9E
:1012A00010B5124800684FF47A71B0FBF1F4601E7B
:1012B000B0F1807F01D301200FE0601E4FF0E021EC
:1012C00048610F214FF0FF30FFF75AFA00204FF02E
:1012D000E021886107200861002008B100BFFEE717
:1012E0000021481EFFF74CFA10BD00001800002036
:1012F000016841F001010160704702698A4302619F
:1013000070470246D06800EA01031069084010B136
:101310000BB1012070470020FCE700002DE9F047E9
:1013200004460D460027B846B94600261D49601AF6
:101330008C421CD006DC1C48204470B1B0F5806F94
:101340001FD10FE0B0F5806F16D0B0F56C4F18D1FB
:101350000320FFF747FE074614E00220FFF742FE96
:1013600007460FE00220FFF73DFE07460AE0022095
:10137000FFF738FE074605E00220FFF733FE074679
:1013800000E000BF00BF07EB5500B0FBF5F64FF6DD
:10139000F07006EA000806F00F0948EA0900A060AC
:1013A000BDE8F087004C004000BCFFBF0146486824
:1013B000C0F308007047C1F3080242607047C1687B
:1013C00041F40051C160704710B5024602EB911024
:1013D000006801F01F040123A340184008B1012058
:1013E00010BD0020FCE710B5C1F38912825801F04E
:1013F0001F040123A3401A43C1F38913C25010BD37
:1014000070B5024600230024C1F38910105801F082
:101410001F060125B54000EA050302EB9150006864
:10142000C1F304460125B54000EA050414B10BB12F
:10143000012070BD0020FCE70A460021C16821F0B0
:1014400004011143C16070470A460021C16821F0C0
:1014500008011143C16070474FF04070E1EE100A7F
:1014600070473031323334353637383941424344AE
:10147000454640305800303132333435363738390C
:101480006162636465664030780004000008000013
:10149000000000000002000100001000BC14000861
:1014A000000000201C0000006C010008D814000897
:1014B0001C000020C4080000880100080000000093
:1014C000000000000000000000000000000000001C
:0814D00000000000000E2707D8
:0400000508000131BD
:00000001FF
