:020000040800F2
:1000000018090020E9010008F1010008F3010008C7
:10001000F5010008F7010008F901000800000000E0
:10002000000000000000000000000000FB010008CC
:10003000FD01000800000000FF010008391300085E
:10004000030200080302000803020008030200087C
:10005000030200080302000803020008030200086C
:10006000030200080302000803020008030200085C
:10007000030200080302000803020008030200084C
:10008000030200080302000803020008030200083C
:10009000030200080302000803020008030200082C
:1000A000030200080302000803020008030200081C
:1000B000030200089113000803020008030200086D
:1000C00003020008030200080302000803020008FC
:1000D00003020008D113000803020008030200080D
:1000E00003020008030200080302000803020008DC
:1000F00003020008030200080302000803020008CC
:1001000003020008030200080302000803020008BB
:1001100003020008030200080302000803020008AB
:10012000030200080302000803020008030200089B
:1001300000F002F800F049F80AA090E8000C8244B0
:100140008344AAF10107DA4501D100F03EF8AFF28D
:10015000090EBAE80F0013F0010F18BFFB1A43F0A5
:1001600001031847782E0000982E0000103A24BF93
:1001700078C878C1FAD8520724BF30C830C144BF0C
:1001800004680C607047000000230024002500264E
:10019000103A28BF78C1FBD8520728BF30C148BFEA
:1001A0000B607047662902F0AC86002070471FB5CF
:1001B00002F09DFE00F0A8FA04000020002102F0E9
:1001C0007DF9E0601FBD10B510BD00F0BDFB11460C
:1001D000FFF7EDFF01F036FE00F0DBFB03B4FFF7A5
:1001E000F2FF03BC00F01EFC0948804709480047A5
:1001F000FEE7FEE7FEE7FEE7FEE7FEE7FEE7FEE7D7
:10020000FEE7FEE704480549054A064B7047000033
:1002100041130008310100081801002018090020CE
:1002200018050020180500200FB4044910B503AAD2
:10023000029800F057FA10BC5DF814FB080000208B
:100240002DE9F0410E460446002020622046E16878
:10025000884730B3252805D0D4E901219047206A8A
:10026000401CF2E7E168204600278847050018D0C7
:10027000A5F14100192802D820354FF40067324615
:10028000294620462760FFF78DFF40B1012804D0A2
:10029000F61D26F007060836D8E7361DD6E72846AD
:1002A000DAE7206ABDE8F08170477047704710B503
:1002B00000F02EFA006810BD10B5044600F028FAD0
:1002C000046010BD70472DE9FF4F0C461E464FF0ED
:1002D000FF378BB0D2E90001DDF860800A908A46D2
:1002E000C1F30A5505B93D46002108464FF000000C
:1002F000BAF1000F00F4400005DA00EB80004FF483
:10030000400101EA50004FEA9059B9F1010F00DDB8
:10031000B9460A9850EA4A000ED044F61050A5F2A9
:10032000FF3545432F14B8F1000F1ED07542291E2A
:100330001EDDC9F100021CE0B8F1010F4FF0000012
:1003400001D0302103E0F24305E02154401CB042CB
:10035000FBDB30460022002121540B99C1F80880B4
:10036000C1E900200FB0BDE8F08FBD1B6D1CDEE7BA
:100370004A4600DA694206A800F06CFA06AB93E838
:10038000070003AB83E8070050460A9900F051FBD1
:100390008DE80700A0F500501F3800900398002D4D
:1003A0000ADD42F21F014A460844002303A90390D4
:1003B000684600F0BAFD09E0A0F500504A461F3833
:1003C000002303A90390684600F0C4FD8DE80700F0
:1003D0000004000C03D04FF0FF30410800E010464D
:1003E000B8F1000F03D00022009215461EE0751EE2
:1003F00005D400F091F9303262556D1EF9D5B3463F
:100400000122084302D000227F1C04E0207830281B
:1004100001D100227F1E002A099784D01DE0112DF2
:1004200007DA00F079F9303262556D1C50EA0102AA
:10043000F5D1084302D00098C8B10EE00021681E33
:1004400005E0235C625C63542254401E491C8142D7
:10045000F7DBAB46A81B401E0990002004F80B00F8
:100460000B98099AC0F80880C0E9002B7AE711269A
:100470004FF0000857E72DE9F04F88460446D21D9B
:1004800022F0070191B0D1E90001CDE90A0100F0A5
:10049000CBFF02460B98C00F01D02D2007E020684B
:1004A000810701D52B2002E0202101EAC000032AA8
:1004B000099001D0072A05DB03464146204600F09B
:1004C00089F90BE12078800601D5E06900E006207B
:1004D000B8F1650F814606D0B8F1660F18D0B8F1B3
:1004E000670F70D131E00020B9F1110F009001DBEE
:1004F000112301E009F101030AAA01A90CA8FFF7E1
:10050000E2FEDDE90C70002609F10105834647E0B3
:1005100001204B4600904FF000470AAA01A90CA801
:10052000FFF7D1FEDDE90DB00C995D46002610B94C
:1005300009F101000D18B9EB050003D4C0F1FF3635
:1005400009F10105A5EB09002BE0B9F1010F01DA72
:100550004FF001090020B9F1110F0090484601DD6C
:10056000112300E003460AAA01A90CA8FFF7ABFE7D
:10057000DDE90C704D4600268346207800070AD43A
:10058000AB4500DA5D4601A8012D04DD411911F8E3
:10059000011C302907D04F4502DA17F1040F04DAA5
:1005A000012082460FE06D1EEEE7002F02DCED1BFE
:1005B0003E4403E0781CA84200DD7D1CB81B00F11E
:1005C000010A4FF000472078000703D4AA4501DB59
:1005D0004FF0FF3A0021B7F1004F0DF143088DF8BD
:1005E000431024D002202B23002F01DA7F422D2339
:1005F0000A21021EA0F1010000DC5FB197FBF1FCB3
:1006000097FBF1F201FB1C7C17460CF1300C08F84B
:1006100001CDEEE7A8F1010003702188090501D59D
:10062000452100E06521A0F1010800F8011C0998AE
:100630000FA9A1EB0807FF1D00B10120411901EB33
:10064000EA70A1693844081A401EA0612078C006EB
:1006500002D42046AFF30080099828B1D4E90121E3
:100660009047206A401C20622078C00622D5204690
:10067000AFF300801EE0002E04DBB34502DD01A8CD
:10068000805D00E03020D4E901219047206A401CC1
:100690002062761CAAF101005FEA000A0AD100F08C
:1006A00033F8C0680168405CD4E901219047206AB2
:1006B000401C2062281EA5F10105DCDC07E0D4E91E
:1006C000012118F8010B9047206A401C2062381E57
:1006D000A7F10107F3DC2046AFF30080032011B03F
:1006E00041E60000074B70B50D467B4400F05FF813
:1006F0000446284600F020F910B14FF0FF3070BDDD
:10070000204670BD9716000000487047D8000020B2
:1007100000487047B800002030B5B0F10A024FEA37
:10072000900E71F100034EEA817EB0EB0E0061EB9A
:1007300091014FEA101E4EEA017E10EB0E0041EBD4
:1007400011114FEA102E4EEA016E10EB0E0041EB34
:1007500011214FEA104E4EEA014E10EB0E0041EB14
:100760001141401841F100014FEAD00040EA4170C8
:100770004FEAD10110EB80054FEA810444EA9074FE
:1007800044EB01046D1944EB0404521BA3414FF0E8
:10079000000348BF0A3200D530BD401C41F10001C2
:1007A00030BD000001694A1C02610878704700B53D
:1007B0008FB0CDE901310021059105497944CDE99A
:1007C000031011466846FFF73BFD0FB000BD000067
:1007D000E5FFFFFF2DE9F0411F46044603260168AF
:1007E000072A01F4006004DB08B116A505E016A590
:1007F00003E008B115A500E015A521F01000206068
:10080000A069C01EA0610FB1401EA0612046AFF3D9
:1008100000804FB1D4E9012138469047206A401C3E
:100820002062C01C206206E0206AFAE7D4E90121B8
:1008300015F8010B9047761EF8D22046AFF30080E2
:10084000BDE8F0814E414E006E616E00494E46009B
:10085000696E66002DE9F047814616468AB0354834
:1008600078440DC88DE80D0032487844801C03ACF4
:100870000DC884E80D0041F69B300844372190FBF9
:10088000F1F290FBF1F5A5F1800501FB12041B3C90
:1008900002D56442012000E00020DFF898A08046E5
:1008A0000027FA44AAF1BE0A0EE0E0070AD0324659
:1008B000684607EB470101230AEB810100F04AFB80
:1008C0008DE8070064107F1C002CEED1194F7F4487
:1008D000AE3F19E0E80715D007EB04100DF1180A38
:1008E00090E80E008AE80E00C068F04201D1981925
:1008F00008903246012306A903A800F02BFB03ABA6
:1009000083E807006D10641C002DE3D14FF0010354
:1009100032466946B8F1000F03A802D000F005FB8B
:1009200001E000F017FBC9E90001C9F808200AB08E
:10093000BDE8F08760270000007B00F08000704772
:1009400000487047B80000207546FFF7F9FFAE4633
:1009500005006946534620F00700854618B020B5CB
:10096000FFF750FCBDE820404FF000064FF00007B5
:100970004FF000084FF0000B21F00701AC46ACE847
:10098000C009ACE8C009ACE8C009ACE8C0098D46B4
:10099000704710B50446AFF300802046BDE8104014
:1009A000FFF71CBC4FF0013C50F8042B51F8043BFE
:1009B0009A4221D1A2EB0C03934313EACC1317D133
:1009C00050F8042B51F8043B9A4215D1A2EB0C03CA
:1009D000934313EACC130BD150F8042B51F8043B8A
:1009E0009A4209D1A2EB0C03934313EACC13DBD058
:1009F0004FF00000704700BFD01A01BAB1FA81F180
:100A000001F0180122FA01F0CB40C1F12001DBB264
:100A1000C0B2C01A2CFA01F3D11A914311EAC311E2
:100A2000E6D1704701491820ABBEFEE72600020060
:100A300070475FEA400C08BF91F0000F4FEA8C232B
:100A40004FEAC12243EA51514FEA1C5018BF00F54A
:100A5000F0404FEA300018BF41F000415FEA6C5CA3
:100A600000F02980BCF1FF3F08BF40F08040704794
:100A7000130C06BF12044FF0100C4FF0000C130EB5
:100A800004BF12020CF1080C130F04BF12010CF189
:100A9000040C930F04BF92000CF1020CD30F04BF9F
:100AA00052000CF1010C11464FF00002A0F11F00A2
:100AB000A0EB0C00704711F0004F08BF704731F0F9
:100AC00000413FF4D5AF0B0C06BF09044FF0100CEA
:100AD0004FF0000C0B0E04BF09020CF1080C0B0FB9
:100AE00004BF09010CF1040C8B0F04BF89000CF149
:100AF000020CCB0F04BF49000CF1010CCCF1200318
:100B0000A0EB0C0022FA03F302FA0CF241EA030113
:100B100000F10100704720F07F4C80EA030023F0D1
:100B20007F47ACEB070303F57C5300F0004003F173
:100B3000FF032DE980494FEA154B09B44FEA1443EE
:100B400025EA0B4E24EA03480FF2042606EB13278E
:100B500049083E785FEA320203FB0667C7F50007E3
:100B600007FB06F64FEA54374FEAD64606F102066F
:100B700007FB066CCCF1005C4FEA1C472CEA074CE3
:100B800007FB06F40CFB06F504EB15464FEA961638
:100B900034BF00204FF000404FEAD13706FB07FC7E
:100BA0004FEA1C4C0CFB0BF7D21B03FB0CF761EB61
:100BB00007010CFB0EF7B0EB074072EB17420CFB82
:100BC00008F734BFA2EB0742B2EB074261EB1741D3
:100BD0004FEA0C444FEA910706FB07FC4FEA1C4C16
:100BE0000CFB0BF7B0EBC74072EB573203FB0CF773
:100BF00034BFA2EBC742B2EBC74261EB57310CFBEB
:100C00000EF7B0EBC70072EB57720CFB08F734BF5E
:100C1000A2EBC702B2EBC70261EB5771039F4FEA29
:100C2000816141EA921104EBCC044FEAD1374FEADB
:100C3000826206FB07FC42EA90124FEA80604FEAAC
:100C40001C4C0CFB0BF7D21B03FB0CF761EB0701F1
:100C50000CFB0EF7B0EB074072EB17420CFB08F7EA
:100C600034BFA2EB0742B2EB074261EB17414FEAF8
:100C70008C554FEA910704EB9C2406FB07FC4FEAD6
:100C80001C4C0CFB0BF7B0EBC74072EB573203FB6D
:100C90000CF734BFA2EBC742B2EBC74261EB57314E
:100CA0000CFB0EF7B0EBC70072EB57720CFB08F7AA
:100CB00034BFA2EBC702B2EBC70261EB577115EB71
:100CC0004C254FEA816141EA92114FEA82624FEA74
:100CD000D13742EA901206FB07FC44F100044FEAC8
:100CE00080604FEA1C4C0CFB0BF7D21B03FB0CF78C
:100CF00061EB07010CFB0EF7B0EB074072EB1742FC
:100D00000CFB08F734BFA2EB0742B2EB074261EBE2
:100D1000174115EB1C154FEA813141EA92414FEA28
:100D2000823242EA90424FEA80304FEA0C7644F138
:100D3000000448EA03434EEA0B484FF0000EB2EBC2
:100D4000080C71EB030724BF624639464EEB0E0ECA
:100D50004FF0000B0018524149414BEB0B0BB2EB2B
:100D6000080C71EB03077BF1000B24BF6246394688
:100D70004EEB0E0E4FF0000B0018524149414BEB69
:100D80000B0BB2EB080C71EB03077BF1000B24BFDC
:100D9000624639464EEB0E0E51EA020718BF46F086
:100DA000010616EB0E7655F1000254F1000103D551
:100DB000BDE88901BDE80088BDE88901BDE80048BB
:100DC000B619524141EB0101A3F101037047808044
:100DD0007F7E7D7C7B7A7978777676757473727195
:100DE00071706F6E6E6D6C6C6B6A6A69686867664D
:100DF00066656464636362616160605F5F5E5E5DDF
:100E00005D5C5C5B5B5A5A59595858575756565552
:100E100055555454535352525251515050504F4FB4
:100E20004F4E4E4D4D4D4C4C4C4B4B4B4A4A4A4904
:100E30004949484848474747474646464545454447
:100E40004444444343434342424242414141002BD4
:100E50009C4630D477002BD01CB54FEA370703B43B
:100E60004FF010004FF01001BAF1000F06D0BCF1A6
:100E7000000FDCBF40F0080040F008014FF0000018
:100E80000FBCBDE810400BF1010BBBF1010F08BF17
:100E90005FEA170722BF12F1010211F101014FF0C1
:100EA000004143F1000300F0004043EA00007047B6
:100EB000F9D35708D0E746EA064613F1400F4FEA48
:100EC00016461FDD13F1200FDFBF16430A4600212F
:100ED00020335B42BED0C3F1200746EA064602FA41
:100EE00007F74FEA164646EA0706C3F1200722FA3B
:100EF00003F201FA07F721FA03F14FF0000342EA87
:100F00000702A7E746EA020646EA06464FEA164601
:100F100046EA0106BCBF46EA0646360C4FF000031F
:100F20004FF000024FF0000194E72DE9804C9A4603
:100F3000934670B491E8380007C831EA400C48BFC6
:100F400034EA430C03D5FFF7E6FDFFF780FFF0BC62
:100F5000BDE8008C2DE9804C9A46934670B491E828
:100F6000380007C810F0804F08BF13F0804F03D13E
:100F700000F005F8FFF76BFFF0BCBDE8008C20F037
:100F80007F4780EA030023F07F4C07EB0C03A3F5B7
:100F90007C5300F00040A3F1FE0392F0000F00F03C
:100FA000B38095F0000F00F077802DE901494FEAFA
:100FB00011404FEA144621EA004800FB06FC24EAEF
:100FC000064708FB06F607FB08F800FB07F718EBD7
:100FD00006484CEB164C4FEA124B18EB07484FEA09
:100FE00015464CEB174022EA0B4E0BFB06FC25EA9C
:100FF00006470EFB06F607FB0EFE0BFB07F71EEB84
:10100000064E4CEB164C4FF000061EEB074E4CEB19
:10101000174B18EB0B0840F1000018EB0E0B58EBC8
:10102000000840F100008F1A4FF000013CBFC94397
:10103000661B14BFB5EB040C00213CBFC943F61B73
:101040004FEA17444EEA8E0E27EA04454FEA1C4742
:1010500004FB07622CEA074C05FB07F70CFB05F6BF
:1010600004FB0CFC16EB074642EB174216EB0C4652
:1010700042EB1C421BEB060658EB0202414146EADA
:101080009E0601D5BDE80189B619524141EB010127
:10109000A3F10103BDE801894FEA14454FEA114766
:1010A00024EA054621EA074C05FB07F406FB07F78F
:1010B0000CFB06F105FB0CFC11EB074144EB17445C
:1010C0004FEA124711EB0C4144EB1C4422EA074C57
:1010D00005FB07F206FB07F70CFB06F605FB0CFC0D
:1010E00016EB074642EB174216EB0C4642EB1C454B
:1010F0006A1854F1000148BF7047B619524141EBDC
:101100000101A3F10103704795F0000F37D04FEABA
:1011100011424FEA144721EA024624EA074C02FB37
:1011200007F106FB07F70CFB06F402FB0CFC14EBC3
:10113000074441EB17414FEA154714EB0C4441EBD0
:101140001C4125EA074C02FB07F506FB07F70CFBE1
:1011500006F602FB0CFC16EB074645EB174516EBB3
:101160000C4645EB1C42121951F1000148BF704773
:10117000B619524141EB0101A3F1010370474FEA57
:1011800014454FEA114724EA054621EA074C05FBBE
:1011900007F106FB07F70CFB06F24FF0000605FB14
:1011A0000CFC12EB074241EB174112EB0C4251EBE6
:1011B0001C4148BF7047921841EB0101A3F10103A4
:1011C0007047000002460B7FEBB9DFED331AC1ED2B
:1011D000001ADFED311AC1ED011ADFED2F1AC1ED52
:1011E000061ADFED2E1AC1ED021ADFED2D1AC1ED40
:1011F000031ADFED291AC1ED041AF7EE001AC1ED4A
:10120000051A01230B7701EE902AB8EE611A91EDD1
:10121000060AF0EE400AD1ED011A91ED022A71EEB4
:10122000821AC1ED051AD1ED051A91ED032A71EE6E
:10123000821A91ED052AC2EE212AC1ED042A91ED10
:10124000042AD1ED061A71EE612AF0EE601A42EE20
:10125000221AFCEEE11A11EE903A98B2D1ED041A7E
:10126000B7EE002A72EE611A91ED052A61EE821A3C
:10127000C1ED011AD1ED011AC1ED051A01EE902A56
:10128000F8EE611AC1ED001A01EE900AF8EE611A4B
:10129000C1ED061A704700000000000017B7D138F2
:1012A0006F12033A10B540F2026000F095FF40F271
:1012B0000E6000F091FF4FF4C06000F08DFF4FF41E
:1012C000007303221821124800F069FD4FF4806377
:1012D000032204210E4800F062FD4FF416510D4820
:1012E00001F04EF808210B4801F0E0F8042109480C
:1012F00001F0D4F840F20531064801F0A6F80022CA
:101300001146252000F010FE024801F08AF810BDB9
:10131000000801400038014010B504462146054848
:1013200001F07BF800BF0721024801F07FF8002898
:10133000F9D010BD0038014000B500F017FD00BD28
:1013400010B51048006840F470000E4908600E485F
:10135000006840F001000C49086000204860C86245
:101360000846006809490840074908604FF41F0013
:1013700088600846006820F48020086000F0C4FF00
:1013800010BD000088ED00E000100240FFFFF6FEF7
:1013900010B501210B4800F0E7FF88B10121094891
:1013A00000F0DEFF084802780221084800F0F2FC55
:1013B0000548007808B9012000E0002002490870C3
:1013C00010BD0000000400400C0000200008014097
:1013D00010B51049104801F045F8D0B10E4801F0A1
:1013E00017F8C4B20A2C09D00C480D490988445496
:1013F0000B480088401C0A4908800AE00021074881
:10140000074A1288815401200649087000200449C7
:10141000088010BD0503050000380140540000207D
:10142000040000200600002003B401984100009849
:1014300050EAC12018BF04204A0D18BF40F0010037
:1014400040F2FF72B2EB515F08BF40F0020001288A
:1014500008BF052002B0704710B5002804DB0A075A
:10146000130E054A135406E00A07140E034A00F04F
:101470000F031B1FD45410BD00E400E018ED00E082
:1014800070B5D94B00242DED020B2DED108BDDE94D
:101490001010984205DA20F000429A4201D809D192
:1014A00041B19DED100BBDEC108B02B0BDE870405A
:1014B00000F05EBAB0F5801F26DA11430BD0002889
:1014C00013DA0120FEF7F8FEBDEC108B02B0BDE888
:1014D000704000F059BA0220FEF7EEFE00F030FA3C
:1014E00051EC100B01F000F89EE06FF035049FED19
:1014F000C00B53EC102B9DED100B51EC100B01F0B9
:1015000091FACDE91001084604EB2051C0F3130411
:10151000B948A1F2FF31204400F4801080F07F62CE
:1015200082F04052224301EB20559FEDB50B119202
:1015300053EC102B9DED100B51EC100B01F07CFBCC
:1015400041EC180BA01CC0F313009FEDAFDB9FED27
:10155000B0EBB14E7E4403286CD296ED000B51ECFB
:10156000180B53EC102B01F009FA1DD1002D01BF0F
:1015700096ED000BBDEC108B02B070BD284601F05B
:1015800039FA41EC180B53EC1D2B01F04BFA41ECEE
:10159000190B53EC1E2B51EC180B01F043FA53ECD2
:1015A000192B00F0DFFF3FE09FED9D0B51EC180B76
:1015B00053EC102B01F036FA9FED9B1B53EC112BD3
:1015C00001F02EFB41EC190B53EC182B51EC180BCE
:1015D00001F028FA53EC192B01F024FA41EC190B15
:1015E000002D04BF53EC192B51EC180B1AD02846D0
:1015F00001F000FA41EC1A0B53EC1D2B01F012FA2A
:1016000053EC192B01F00CFB53EC182B01F014FBDD
:1016100041EC180B53EC1E2B51EC1A0B01F002FAA3
:1016200053EC182B01F008FBBDEC108B02B041EC21
:10163000100B70BD9FED7E0B51EC180B53EC102B73
:1016400000F090FF41EC100B51EC180B53EC102BF9
:1016500001F03CF841EC190B284601F0CBF941ECC4
:101660001B0B53EC192B51EC190B01F0DBF941EC7E
:101670001A0B714853EC1A2B261851EC1A0B01F077
:10168000D1F941EC1F0B6D48C4F1510404F5D72486
:10169000B0EE4F0AF0EE6F0A0321784400F0D2F862
:1016A00053EC1F2B51EC100B01F0BCF941EC1C0B5F
:1016B0006348B0EE4F0AF0EE6F0A0421784400F060
:1016C000C1F853EC1A2B51EC100B01F0ABF9344379
:1016D00053EC1C2B00F046FF41EC1C0B002C4CDDA6
:1016E0009FED510B51EC180B53EC102B01F09AF9B4
:1016F00053EC182B01F096F941EC1A0B55B353EC4F
:101700001D2B51EC1B0B01F08DF941EC1D0B53EC23
:101710001C2B51EC1A0B00F025FF53EC192B01F098
:1017200081F953EC1D2B00F01DFF53EC1A2B01F037
:1017300077FA53EC182B01F07FFA41EC180B53ECBD
:101740001E2B51EC1B0B01F06DF953EC182B01F023
:1017500073FA69E753EC1C2B51EC1A0B00F002FFF3
:1017600053EC192B01F05EF953EC1A2B01F058FAE7
:1017700053EC182B01F054FA56E735B353EC1D2BFC
:1017800051EC1B0B01F04EF941EC1A0B53EC1C2BE6
:1017900051EC180B01F050FA53EC192B01F042F9FF
:1017A00053EC1A2B01F048FA53EC182B01F044FAD1
:1017B00041EC180B53EC1E2B51EC1B0B01F032F9D2
:1017C00053EC182B01F038FA2EE753EC1C2B51EC9C
:1017D000180B01F031FA53EC192B01F023F953ECFB
:1017E000182B01F01DFA1FE70000F07F0000000039
:1017F0000000000000005043645F0900000000008A
:10180000000000000000F03F763C7935EF39EA3DFA
:101810000000E0FE422EE63FE81900000000000054
:10182000555555555555D53F000000000000E03F87
:10183000000000000000004086EBF9FF6A1800007D
:101840006018000070B504462DED028B4D1E00EBB4
:10185000C500B0EE408AF0EE608A90ED000B35F0E6
:10186000060017D053EC182B51EC100B01F0DAF8EE
:1018700041EC100B6D1E04EBC50090ED001B51EC0C
:10188000100B53EC112B00F06DFE41EC100B35F0FA
:101890000600E7D1022D36D0042D1CD0062D1CBF2A
:1018A000BDEC028B70BD53EC182B51EC100B01F00A
:1018B000B9F894ED0A1B53EC112B00F053FE53ECD6
:1018C000182B01F0AFF894ED081B53EC112B00F02E
:1018D00049FE41EC100B53EC182B51EC100B01F0AE
:1018E000A1F894ED061B53EC112B00F03BFE53ECDA
:1018F000182B01F097F894ED040B53EC102B00F02B
:1019000031FE41EC100B53EC182B51EC100B01F095
:1019100089F894ED021B53EC112B00F023FE53ECDD
:10192000182B01F07FF894ED001B53EC112B00F005
:1019300019FEBDEC028B41EC100B70BD00000000E5
:101940009FED070B10B553EC102B9FED070B51ECDF
:10195000100B00F0BBFE41EC100B10BD00000000AE
:101960000000000000000000000000000000F03F48
:1019700010B553EC102B51EC100B00F0F3FD41ECC3
:10198000100B10BD000000009FED050B10B553ECCF
:10199000102B51EC100B00F099FE41EC100B10BD18
:1019A0000000000000000000816841F00801816033
:1019B00000BF816801F008010029FAD1816841F077
:1019C0000401816000BF816801F004010029FAD19F
:1019D000704730B5012902D002291AD10CE0C36A40
:1019E00023F47003C362C36A541E4FF4700505EA02
:1019F00004542343C3620DE0836B23F440138363D9
:101A0000836B541E4FF4401505EA0454234383634B
:101A100000E000BF00BF30BD10B5012211021B481D
:101A200000F0DBF800220221184800F0D6F84FF44D
:101A3000E0420221154800F05EF8002000F0B0F806
:101A40000021124800F024F8022211460F48FFF747
:101A5000C0FF0723002211460C4800F064F807235A
:101A600001221146094800F05EF8012202210748D0
:101A700000F022F800F0DEF8044800F014F801202D
:101A800000F06AF90148FFF78FFF10BD0028014000
:101A900021B1826842F40062826003E0826822F42D
:101AA000006282607047816801F0010119B98168A4
:101AB00041F001018160704772B101F001031BB177
:101AC000836843F48013836001F0020393B1836859
:101AD00043F4004383600DE001F001031BB1836810
:101AE00023F48013836001F002031BB1836823F4A5
:101AF000004383607047012902D0022910D107E01A
:101B0000836823F46023836083681343836008E061
:101B1000836823F4E043836083681343836000E0B9
:101B200000BF00BF7047F0B50C46876BC7F3015686
:101B3000856B371B07EB8707C7F10F0C1F2707FAC9
:101B40000CF7BD43371B07EB8707C7F10F0702FAF6
:101B500007F73D4385630A2A0DD2016902EB420C67
:101B6000072707FA0CF7B94302EB420703FA07F716
:101B70003943016112E0122A10D2C168A2F10A07AA
:101B800007EB470C072707FA0CF7B943A2F10A073E
:101B900007EB470703FA07F73943C160F0BD0000C0
:101BA0000549096821F47021034A1160114609684A
:101BB00001431160704700000424014001F001025C
:101BC0001AB1826842F48002826001F002021AB106
:101BD000826842F4001282607047AAB101F48073F7
:101BE0001BB1436843F48073436001F480631BB10D
:101BF000436843F48063436001F00203CBB1836820
:101C000043F00203836014E001F480731BB1436866
:101C100023F48073436001F480631BB1436823F4B1
:101C20008063436001F002031BB1836823F0020369
:101C3000836070470348006840F400000149086071
:101C4000704700000824014030B52DED108B89B09D
:101C500004469FED3A0AB0EE408A9FED390AF0EE55
:101C6000408A9FED380AB0EE409A9FED370AB0EEF9
:101C700040FA00EE104AB8EE400A20EE0F0ADFEDFF
:101C8000330A80EE201AF0EE419A29EE890A7FEE9F
:101C9000690A80EE201AF0EE41FA18EE100A01F0FF
:101CA000B5F841EC1D0B8FEE890A10EE105A28464C
:101CB00001F0ACF8CDE900019DED000BFFF7E0FB72
:101CC0008DED020B18EE900A01F0A0F841EC1E0B0E
:101CD0009DED020B53EC102B00F0A4FE53EC1D2BDA
:101CE000CDE904019DED040B51EC100B00F03AFC22
:101CF00041EC1C0B28EE880A10EE101A084601F081
:101D000085F853EC1C2BCDE906019DED060B51EC3B
:101D1000100B00F0DBFC41EC1B0B9FED0D0B53ECAB
:101D2000102B00F089FF41EC1A0B00F0E9FB089042
:101D30009DED080A09B0BDEC108B30BD00E0764582
:101D40003313954300401C463333534000F07F4526
:101D500066666666661271400349086000BF024904
:101D600009680029FBD17047000000200448006882
:101D700020B103480068401E014908607047000018
:101D80000000002070B504460D46E0B2FFF7C4FA2B
:101D9000204670BD0AB1016100E041617047F0B5B5
:101DA0000C4616460025002204F00F0504F010072B
:101DB00047B1042E05D145F00305C76B1F43C76328
:101DC00000E03543002118E001278F401F4097B104
:101DD00002684FEA810C0F2707FA0CF7BA438F000D
:101DE00005FA07F73A43282C01D1436102E0482C59
:101DF00000D1036102604F1CB9B20829E4D3082165
:101E00001CE001278F401F40B7B14268A1F10807CD
:101E10004FEA870C0F2707FA0CF7BA43A1F108071E
:101E2000BF0005FA07F73A43282C01D1436102E0CD
:101E3000482C00D1036142604F1CB9B21029E0D395
:101E4000F0BD00002DED028B00F062FA00F0BAF94F
:101E5000FFF7E2FDFFF726FA33E002211948FFF70A
:101E6000ADFE4FF4FA60FFF777FF16493C31086882
:101E70001549FFF7A7F905462846FFF7E5FE10EEDE
:101E8000104A204600F0C2FF41EC180B53EC182B0F
:101E90000EA0FEF7C9F90B49403108681649FFF753
:101EA00091F905462846FFF7CFFE10EE104A20466E
:101EB00000F0ACFF41EC180B53EC182B0FA0FEF711
:101EC000B3F9CAE7002801401400002020746865B7
:101ED0002074656D7065726174757265204E54432F
:101EE000203120256620646567726565732043652F
:101EF0006C736975730D0A003400002020746865E6
:101F00002074656D7065726174757265204E5443FE
:101F100020322025662064656772656573204365FD
:101F20006C736975730D0A002DE9F04103460D4687
:101F3000164600240027A0462A48006800F4E06006
:101F4000B0F5E06F03D100BF4FF0040830E0254842
:101F5000006800F4E060B0F5C06F03D101274FF0D6
:101F6000030825E01F48006800F4E060B0F5A06FAA
:101F700002D10227B8461BE01A48006800F4E0606E
:101F8000B0F5806F03D103274FF0010810E015482A
:101F9000006800F4E060B0F5407F03D104274FF003
:101FA000000805E04FF4A06000F020F80227B846D2
:101FB000C7F1040005FA00F4C8F104010F20C8407D
:101FC0003040044324010848C45403F01F01012099
:101FD00088405911890001F1E021C1F80001BDE8F4
:101FE000F08100000CED00E000E400E00249014354
:101FF000024A1160704700000000FA050CED00E095
:10200000184B5968184B1940164BDA6A22F00052E7
:102010000C2820D2DFE800F0060708091F0C1F0D6E
:102020001516171800BF00BF00BF41EA803113E04A
:1020300000BF20F004004FF0805343EA803319437F
:102040000AE000BF00BF00BF20F00C0041EA803171
:1020500042F0005200E000BF00BF024B5960DA625C
:102060007047000000100240FF3FFFEF2DE9F04FE6
:102070008CB0074600200A904AA090E8004CC06847
:10208000CDE905BECDF810A007900FF21C1ADAE9D1
:10209000000ACDE9020A0FF2101ADAE9000ACDE9C6
:1020A000000A44484068C0F381000B900B9820B1AF
:1020B000012804D002283FD103E03F4A3EE03E4AD7
:1020C0003CE03C48406800F4803CBCF5803F12D1C5
:1020D0003848C06A00F08048B8F1000F01D1364C92
:1020E00000E0364C3348406800F40039B9F5003F51
:1020F00002D1334C00E0324C2E484068C0F383419B
:102100002C48406800F0006008B141F010012948F7
:10211000406800F0804008B141F020010F2901D251
:10212000891C06E00F2903D33E2901D8491C00E091
:102130003F2104FB01F201E01F4A00BF00BF1D4820
:102140004068C0F3031504A8465D22FA06F3194857
:102150004068C0F3022502A8465D23FA06F0099004
:1021600014484068C0F3C2251DF8056023FA06F044
:10217000089037B1012F06D0022F06D0032F0AD1C5
:1021800006E00A9208E00A9306E009980A9003E044
:1021900008980A9000E000BF00BF0A980CB0BDE8A4
:1021A000F08F0000000000000000000001020304A6
:1021B000060708090010024000127A00006CDC02D9
:1021C00000093D0010B540F20A6000F005F801205A
:1021D000FFF716FF10BD0000064A02EB90110968D8
:1021E00000F01F0301229A401143024B03EB9012AF
:1021F0001160704700100240002000213E4A126822
:1022000042F480323C4B1A6000BF401C3A4A1268CC
:1022100002F4003111B9B0F5006FF6D1364A1268F8
:1022200002F400320AB900BFFEE7334AD26942F035
:102230008052314BDA61314A126842F440422F4BEE
:102240001A602D4A52682C4B5A601A4652685A60DE
:102250001A46526842F480625A601A46526822F462
:1022600040325A601A46526842F440325A601A4666
:102270005268234B1A40204B5A601A465268214B31
:102280001A431D4B5A601A46126842F080721A6057
:1022900000BF194A126802F00072002AF9D0174AEA
:1022A000126842F48032154B1A6000BF134A52681C
:1022B00002F48032002AF9D0104A126842F4003247
:1022C0000E4B1A6000BF0D4A526802F40032002A19
:1022D000F9D0094A526822F00302074B5A601A46A5
:1022E000526842F002025A6000BF034A526802F08C
:1022F0000802002AF9D07047001002400070004028
:10230000FFFFC3B70000340810B5FFF775FF10BD1D
:1023100010B5124800684FF47A71B0FBF1F4601EFA
:10232000B0F1807F01D301200FE0601E4FF0E0216B
:1023300048610F214FF0FF30FFF78EF800204FF07B
:10234000E021886107200861002008B100BFFEE796
:102350000021481EFFF780F810BD0000100000208B
:1023600002698A43026170470246D06800EA0103AD
:102370001069084010B10BB1012070470020FCE744
:102380002DE9F04704460D460027B846B946002619
:102390001D49601A8C421CD006DC1C48204470B1D8
:1023A000B0F5806F1FD10FE0B0F5806F16D0B0F59B
:1023B0006C4F18D10320FFF759FE074614E00220A6
:1023C000FFF754FE07460FE00220FFF74FFE0746D7
:1023D0000AE00220FFF74AFE074605E00220FFF769
:1023E00045FE074600E000BF00BF07EB5500B0FB0D
:1023F000F5F64FF6F07006EA000806F00F0948EA15
:102400000900A060BDE8F087004C004000BCFFBFA1
:1024100001464868C0F308007047C1F308024260F3
:102420007047C16841F40051C160704710B5024661
:1024300002EB9110006801F01F040123A340184033
:1024400008B1012010BD0020FCE710B5C1F38912CE
:10245000825801F01F040123A3401A43C1F38913DA
:10246000C25010BD70B5024600230024C1F389108C
:10247000105801F01F060125B54000EA050302EBE4
:1024800091500068C1F304460125B54000EA0504F7
:1024900014B10BB1012070BD0020FCE70A460021F9
:1024A000C16821F004011143C16070470A46002150
:1024B000C16821F008011143C160704710B50029BF
:1024C0000AD00878002807D005487844FEF76AFA51
:1024D000002801D0002010BD0248784410BD000043
:1024E000320B00002A0B000081F00041704780F0A1
:1024F0000040704721F00041704720F000407047D5
:1025000021F00042A2F16052B2F5801F01F00043B9
:1025100028BFD2F17F6C0BD95FEA001C43EAC202EC
:1025200042EB507018BF704728BF20F00100704781
:10253000B2F5801FBCBF184670474FEA410C1CF52E
:10254000001F02D2084600F0D7BC70B500F014FBA3
:1025500000000089FFF7F6BF4FF00040A0F58000B3
:102560007047000010B591EA030F48BF83F00043A5
:1025700000F16A83841A71EB030C05D2121943EB44
:102580000C03001B61EB0C01DFF824E14FEA11544E
:10259000A4EB135C1EEA430F18BF9EEA445F73D09E
:1025A00023EA0E03DCF1200E21EA045143F48013E8
:1025B00032D322FA0CFE10EB0E0023FA0CFE41EB94
:1025C0000E01CCF1200E03FA0EFE10EB0E0051F1BD
:1025D0000001B1F5801FCCF1200E32D201EB045185
:1025E00012FA0EF2BDE8104058BF7047401C38BFC9
:1025F0005FEA420218BF7047002814BF20F00100B4
:1026000041F100014FEA410313F5001F38BF704745
:10261000A1F1C04100F0FEBA012A43EB0302ACF184
:10262000200CDCF11F0E32BF4FF0000E23FA0CF32A
:1026300010EB030041EB0451B4EB115FD0D0A1EBE0
:10264000045101F5801149085FEA300001EB0451A3
:102650000ED350F1000038BF12FA0EFE08D1BDE8CB
:102660001040C9E7401C38BF5FEA4202CAD1C3E745
:10267000BDE810404FEA410313F5001F38BF704713
:10268000A1F1C04100F0C6BA9EEA445F08D011EA49
:102690005E0FBDE8104004BF01F00041002070470C
:1026A000BDE8104070B500F067FA00BF64FBBE3EA5
:1026B0000000E0FF491058BFC1F140415B1058BF16
:1026C000C3F140438B42EFF3008070472DE9C041D6
:1026D00030B4DFF8A0C23CEA111418BF3CEA13146E
:1026E00000F0EC8081EA03051CEA111444EAD57479
:1026F00018BF1CEA131500F0C780A4EB05044FF0C7
:10270000004545EAC12145EAC32341EA505143EA65
:10271000525304F17F74994204F500344FEAC0200B
:102720004FEAC22208BF904200F09C804FEA136536
:102730000FF24016765D4FEA134506FB05F7C7F129
:10274000807706FB07F74FEAD737A7FB0368764287
:10275000C8F58038A7FB06CE38BFA8F1010807FBF3
:1027600008E64FF0000EA6FB028CE6FB03CEDCF180
:10277000000CCEF1004E38BFAEF1010EA6FB0C5896
:102780004FF000074FF00005E6FB0E87A1FB08C6DF
:10279000A0FB07CE16EB0E0645F10005E1FB076531
:1027A00015F1E04E7EBFA4F580345FEA46066D4128
:1027B00016F1800745F100054FEA17274FEA066634
:1027C00047EA0567A6F1DE46B6F1805F4FEA1525B8
:1027D0001FD9384624F0010C05EBC471BCF1FE6F23
:1027E00001EB0C1102D8F0BCBDE8008124425CBFB3
:1027F00001F5801E9EEAC47F02D4F0BCBDE80081D2
:10280000244238D4F0BCA1F1C041BDE8004100F041
:1028100001BA4FEAD22242EA43524FEAD323A7FB3E
:1028200002864FEAD02040EA415007FB03661EEAC9
:102830000E0F4FEAD12105FB026658BFA6EB0056EA
:10284000B6EB00564FEA520E4EEAC37E18EB0E0E60
:1028500056EB530EBDD518EB02085E417F1C55F1B7
:102860000005B6E74FF480154FF000074FF0000663
:102870004FF00008ADE7F0BC4FF0000001F1C0419F
:1028800001F00041BDE8008111EA0C1F0CEA1315AC
:1028900000D00CE013EA0C1F00F025804FF0000080
:1028A000F0BC81EA030101F00041BDE80081F0BC09
:1028B000BDE8004181EA030100F0ACB9F0BCBDE81D
:1028C000004170B500F058F9097EFC3E00F007B8F1
:1028D00081EA03014FF0000001F00041704781EAF6
:1028E000030100F097B9F0BCBDE800414FF00000D3
:1028F00021497047FFFDFBF9F7F5F4F2F0EEEDEB3F
:10290000E9E8E6E4E3E1E0DEDDDBDAD8D7D5D4D3ED
:10291000D1D0CFCDCCCBCAC8C7C6C5C4C2C1C0BF39
:10292000BEBDBCBBBAB9B8B7B6B5B4B3B2B1B0AF3F
:10293000AEADACABAAA9A8A8A7A6A5A4A3A3A2A123
:10294000A09F9F9E9D9C9C9B9A99999897979695DE
:1029500095949393929191908F8F8E8E8D8C8C8B7A
:102960008B8A898988888787868585848483838202
:10297000828181800000FF070000F87F51EA030C8C
:1029800017D41CF5801F58BFBCF5801F00F10680CE
:10299000994218BF704708BF9042704707D711F59A
:1029A000801F58BF13F5801F19D499427047894280
:1029B00070471CF5801F08D5BCF5801FF7D58B42EA
:1029C00018BF704708BF824270474FF4001C1CEBD1
:1029D000410F38BF1CEB430F01D28B42704770B5DB
:1029E00000F0CAF8922449004FF000514FF0805394
:1029F000FFF760BE10F0004248BF4042B0FA80F3DB
:102A000010FA03F10AD0C3F11D0303F580634FEA06
:102A1000415002EB035202EBD12170474FF000000E
:102A200070470000DFF848C170B51CEA111E1EBFD8
:102A30001CEA13159EEA0C0F95EA0C0F00F06F804C
:102A400081EA030423EA4C134EEAD47E21EA4C11B6
:102A500041F4801143F48013AE44A1FB024CA0FB6F
:102A60000365AEF17F7E361955EB0C05A1FB034CD7
:102A70004CF10003A0FB021C16EB0C06654153F160
:102A80000003094218BF46F0010613F4007F0BD182
:102A90004FEA03314FEA0530340341EA155140EA69
:102AA00016506FF003020AE04FEAC3214FEAC52037
:102AB000F40241EA555140EA56506FF0020202EB2F
:102AC0002E4201EB025585EACE710AD05FEA440C32
:102AD00018BF24F0004450F1000041F1000120EA49
:102AE000D47040F2FE7C624500D270BDA84214BF93
:102AF0004FF080444FF04044002E08BF0024BEF148
:102B0000806FA8BFA1F1C041BDE8704080F2828013
:102B10004FF0000001F1C04101F0004170479EEA12
:102B20000C0F0CEA131518BF95EA0C0F06D04FF0E6
:102B3000000081EA030E0EF0004170BD00F01CF8A9
:102B40008900013E00F007B800F009B84FEA430CD5
:102B50005FEA5C5C08D081EA030100F05BB84FEAF1
:102B6000410C5FEA5C5CF6D14FF000000149704710
:102B70000000FF070000F87F0EF1020E2EF0030E9A
:102B80005EF8046B364205D4012A43EB030515F5C4
:102B9000001F12D8012841EB010C1CF5001F0CD8B6
:102BA0000ED14FEAD17C15F5001F0CEB4C0C0CF14B
:102BB000020C08BF4CEBD37C04E04FF0080C01E0A2
:102BC0004FEAD37C0CEB4C0526FA05F606F0070617
:102BD000B6F1040C06D20EEB860CBDE870404CF04A
:102BE000010C6047DFE80CF0090B02024FF00041D6
:102BF0004FF00000A1F5002170BD194610460128D4
:102C000051EB010418BFD4F5001484BF002001F07B
:102C1000004170BD0808A0F500114FEA310170476E
:102C200091EA030F10B581F000413FF5A3AC83F0AA
:102C3000004300F009B8000010B591EA030F48BF47
:102C400083F000433FF596AC841A71EB030C07D276
:102C500012198CF0004C43EB0C03001B61EB0C01D0
:102C6000DFF8A4E14FEA1154A4EB135C1EEA430F12
:102C700018BF9EEA445F00F0B08023EA6E03524220
:102C800021EA0451C3EB6E0338BF5B1EDCF1200E5A
:102C900025D322FA0CFE10EB0E0043FA0CFE41EB9A
:102CA0000E01CCF1200E03FA0EFE10EB0E0051F1D6
:102CB0000001CCF1200E29D412FA0EF201EB0451DE
:102CC000BDE8104058BF7047401C1CBFB2F1004F18
:102CD000704700280CBF491C20F00100704712EB20
:102CE000020E43EB030218BF4FF0010E4EEA420200
:102CF000ACF1200CDCF11E0E54D943FA0CFE10EBA3
:102D00000E0051F1FF31CCF11E0ED5D50EF1010EA2
:102D100012FA0EFE404141EB010101EB445C5FEA17
:102D20005C5C10D910EBDE7001EB045138BFBEF1D2
:102D3000004FBDE8104018BF704700280CBF491C69
:102D400020F00100704730D24FEAD42C11F5001169
:102D500024F400641BD0B1FA81F20B3AA41AA41E29
:102D6000D2F12003914030FA03F31943904001EB74
:102D7000CC71002C01EB0451BDE81040A8BF704796
:102D800001F1C0414FF0000001F000417047B0FA7E
:102D900080F310FA03F100D110BDE41A173C480586
:102DA000C90AE4E701EB045110BD491001EB0451DD
:102DB000BDE810404FEA300002E04FF000017047DC
:102DC0004A0008BF0042F8D0B2F5001F28BF704784
:102DD00001F000414FF0000070479EEA445F07D0C9
:102DE00011EA5E0FBDE8104004BF002100207047CB
:102DF000BDE8104070B5FFF7BFFE00BF40DFF63EF4
:102E000083F00041104670470000E0FF43004FEAA6
:102E1000D30C4FEA3C0C43401FBF40070CF16051FC
:102E200013F0FE4F70471CF0006F03D100200CF030
:102E3000004170470CF0004343EA507010B540EA7F
:102E4000CC0000F00EF800BF000000924FEA000135
:102E5000FFF7E0BE4FF000414FF00000A1F5002168
:102E600070470EF1020E2EF0030E5EF8044B244262
:102E700004D44FEA4102B2F17F4F11D84FEA400328
:102E8000B3F17F4F0CD80ED14FEAD07CB2F17F4F17
:102E90000CEB4C0C0CF1020C08BF4CEBD17C04E0A9
:102EA0004FF0080C01E04FEAD17C0CEB4C0324FA04
:102EB00003F404F00704B4F1040C06D20EEB840C06
:102EC000BDE810404CF0010C6047DFE80CF007084B
:102ED00002024FF00040A0F5800010BD08464200FD
:102EE00018BFD2F1807288BF00F0004010BD4FF0D3
:102EF0004070E1EE100A7047FF2141EAD050C00552
:102F00007047FDF7B8BA000004FA97999999D93F2C
:102F1000AF788E1DC571CC3F9FC678D0099AC33F4C
:102F2000935555555555E53F599322942449D23F21
:102F3000DE03CB966446C73F44523EDF12F1C23FE8
:102F4000000000000000000002400000000000A09F
:102F50000000000005400000000000C80000000064
:102F60000C4000000000409C0000000019400000E0
:102F70000020BCBE0000000034400000BFC91B8E12
:102F800000000004B5400000504BCFD06607E2CFF0
:102F9000010000006C4100003E8251AADFEEA73420
:102FA00001000000D9420000DCB5A0E23A301F97D2
:102FB000FFFFFFFFB4450000FD25A0C8E9A3C14FF6
:102FC000FFFFFFFFFF3F0000000000800000000047
:102FD000FF3F0000000000800000000018300008E3
:102FE00000000020140000006C0100082C300008D4
:102FF0001400002004090000880100081C000000E3
:1030000043000000F8FFFFFF0C0000000E0000006E
:103010000F0000002E000000000000000000000073
:0C3020000000000000000000000E270768
:0400000508000131BD
:00000001FF
