:020000040800F2
:1000000008070020AD010008B5010008B70100088D
:10001000B9010008BB010008BD0100080000000094
:10002000000000000000000000000000BF01000808
:10003000C101000800000000C3010008C50100085C
:10004000C7010008C7010008C7010008C701000870
:10005000C7010008C7010008C7010008C701000860
:10006000C7010008C7010008C7010008C701000850
:10007000C7010008C7010008C7010008C701000840
:10008000C7010008C7010008C7010008C701000830
:10009000C7010008C7010008C7010008C701000820
:1000A000C7010008C7010008C7010008C701000810
:1000B000C7010008C7010008C7010008C701000800
:1000C000C7010008C7010008C7010008C7010008F0
:1000D000C7010008A11A00085D1B0008991B000851
:1000E000C7010008C7010008C701000800F002F8B6
:1000F00000F04DF80AA090E8000C82448344AAF175
:100100000107DA4501D100F042F8AFF2090EBAE872
:100110000F0013F0010F18BFFB1A43F0010318473B
:10012000941D0000B41D0000103A24BF78C878C1A7
:10013000FAD8520724BF30C830C144BF04680C60ED
:10014000704700000023002400250026103A28BF35
:1001500078C1FBD8520728BF30C148BF0B60704739
:10016000662901F00286642900F04C80782900F0AD
:100170008580002070471FB500F026FC0400002099
:10018000002101F065FDE0601FBD10B510BD00F05D
:1001900033FD1146FFF7EFFF01F04FFD00F051FD79
:1001A00003B4FFF7F2FF03BC00F094FD0948804759
:1001B00009480047FEE7FEE7FEE7FEE7FEE7FEE749
:1001C000FEE7FEE7FEE7FEE704480549054A064B61
:1001D00070470000291A0008ED00000808010020FF
:1001E0000807002008030020080300200FB404497A
:1001F00010B503AA029800F0A3FB10BC5DF814FB35
:100200000C0000202DE9F0410646002410687529F5
:10021000314616A510D0AFF30080002802DA404224
:1002200013A507E031688A0701D512A502E0490746
:1002300004D511A5012401E0AFF3008000210A22BA
:1002400006F1240709E0B0FBF2FCB0FBF2F302FB7D
:100250001C00303078541846491C0028F3D123463E
:100260002A463046BDE8F04100F003B90000000026
:100270002D0000002B0000002000000070B5044697
:100280000D4621461068AFF300802188090502D58C
:100290000F4A7A4402E00E4A7A440E32002104F1F9
:1002A000240305E000F00F060009965D5E54491C2A
:1002B0000028F7D120780023000704D5702D02D044
:1002C00009B1022311322046BDE8704000F0D1B8D8
:1002D000D81A00002DE9F0474FF0000A894604467D
:1002E000C0F820A02046E1688847002876D025285D
:1002F00006D0D4E901219047206A401C2062F1E732
:10030000E168204600258847C4F81CA0064600275F
:10031000C4F818A02A2E09D0304601F080FC38B36A
:1003200004EB8708303EC8F8186019E059F8041B40
:10033000204604EB87029161E1688847012F064659
:1003400018D1E069002820DA25F020051DE0D8F852
:10035000180000EB800006EB40003038C8F81800A9
:100360002046E1688847064601F059FC0028EED196
:10037000012F0AD02E2E08D12046E16888477F1C25
:100380000646022F45F02005C4DBA069002803DAE9
:10039000404245F00105A061E80701D025F01005B5
:1003A000B6B1A6F14100192802D8203645F40065FF
:1003B0004A463146204625604D46FFF7D1FE58B1EA
:1003C000012806D0ED1D25F0070000F1080989E796
:1003D00004E005F1040985E730468AE7206ABDE8B4
:1003E000F087032A40F2308010F0030C00F01580F3
:1003F00011F8013BBCF1020F624498BF11F801CB28
:1004000000F8013B38BF11F8013BA2F1040298BF8C
:1004100000F801CB38BF00F8013B11F0030300F0F6
:10042000A182083AC0F0088051F8043B083A51F81C
:1004300004CBA0E80810F5E7121D5CBF51F8043B9F
:1004400040F8043BAFF30080D20724BF11F8013B12
:1004500011F801CB48BF11F8012B24BF00F8013B74
:1004600000F801CB48BF00F8012B70477047704778
:1004700070472DE9F0470D4699469246044600F133
:1004800024080168880604D5E06921F01001216084
:1004900000E00120A84201DD471B00E00027A16920
:1004A0007A1902EB0900081AA0612078C00602D46C
:1004B0002046AFF30080002608E0D4E901211AF8B5
:1004C00006009047206A401C761C20624E45F4DBF3
:1004D0002078C0060AD52046AFF3008006E0D4E9B4
:1004E000012130209047206A401C2062381EA7F16D
:1004F0000107F4DC07E0D4E9012118F80500904772
:10050000206A401C2062281EA5F10105F3DC20466C
:10051000AFF300802078000602D50220BDE8F08706
:100520000120FBE770472DE9FF4F0C461E464FF0B8
:10053000FF378BB0D2E90001DDF860800A908A466F
:10054000C1F30A5505B93D46002108464FF00000A9
:10055000BAF1000F00F4400005DA00EB80004FF420
:10056000400101EA50004FEA9059B9F1010F00DD56
:10057000B9460A9850EA4A000ED044F61050A5F247
:10058000FF3545432F14B8F1000F1ED07542291EC8
:100590001EDDC9F100021CE0B8F1010F4FF00000B0
:1005A00001D0302103E0F24305E02154401CB04269
:1005B000FBDB30460022002121540B99C1F8088052
:1005C000C1E900200FB0BDE8F08FBD1B6D1CDEE758
:1005D0004A4600DA694206A800F098FA06AB93E8AA
:1005E000070003AB83E8070050460A9900F079FB47
:1005F0008DE80700A0F500501F3800900398002DEB
:1006000009DD42F21F014A46084403A903906846E7
:1006100000F0D8FD08E0A0F500504A461F3803A9B5
:100620000390684600F0E2FD8DE807000004000C2E
:1006300003D04FF0FF30410800E01046B8F1000F42
:1006400003D00022009215461EE0751E05D400F06E
:10065000BFF9303262556D1EF9D5B3460122084309
:1006600002D000227F1C04E02078302801D1002233
:100670007F1E002A099786D01DE0112D07DA00F0B1
:10068000A7F9303262556D1C50EA0102F5D10843DA
:1006900002D00098C8B10EE00021681E05E0235C7E
:1006A000625C63542254401E491C8142F7DBAB4616
:1006B000A81B401E0990002004F80B000B98099A13
:1006C000C0F80880C0E9002B7CE711264FF0000835
:1006D00059E72DE9F04F88460446D21D22F0070164
:1006E00091B0D1E90001CDE90A0101F077FA0246A3
:1006F0000B98C00F01D02D2007E02068810701D59D
:100700002B2002E0202101EAC000032A099001D039
:10071000072A05DB03464146204600F0B7F90BE106
:100720002078800601D5E06900E00620B8F1650F69
:10073000814606D0B8F1660F18D0B8F1670F70D1B6
:1007400031E00020B9F1110F009001DB112301E02D
:1007500009F101030AAA01A90CA8FFF7E4FEDDE9EB
:100760000C70002609F10105834647E001204B4645
:1007700000904FF000470AAA01A90CA8FFF7D3FE8A
:10078000DDE90DB00C995D46002610B909F10100B4
:100790000D18B9EB050003D4C0F1FF3609F10105CE
:1007A000A5EB09002BE0B9F1010F01DA4FF00109C7
:1007B0000020B9F1110F0090484601DD112300E03F
:1007C00003460AAA01A90CA8FFF7ADFEDDE90C70EB
:1007D0004D4600268346207800070AD4AB4500DA50
:1007E0005D4601A8012D04DD411911F8011C3029D5
:1007F00007D04F4502DA17F1040F04DA01208246D0
:100800000FE06D1EEEE7002F02DCED1B3E4403E01F
:10081000781CA84200DD7D1CB81B00F1010A4FF0D6
:1008200000472078000703D4AA4501DB4FF0FF3AC8
:100830000021B7F1004F0DF143088DF8431024D08B
:1008400002202B23002F01DA7F422D230A21021ED2
:10085000A0F1010000DC5FB197FBF1FC97FBF1F226
:1008600001FB1C7C17460CF1300C08F801CDEEE7BB
:10087000A8F1010003702188090501D5452100E098
:100880006521A0F1010800F8011C09980FA9A1EB4E
:100890000807FF1D00B10120411901EBEA70A169B1
:1008A0003844081A401EA0612078C00602D42046B1
:1008B000AFF30080099828B1D4E901219047206A5C
:1008C000401C20622078C00622D52046AFF300806D
:1008D0001EE0002E04DBB34502DD01A8805D00E0D0
:1008E0003020D4E901219047206A401C2062761C08
:1008F000AAF101005FEA000A0AD100F065F8C068B9
:100900000168405CD4E901219047206A401C2062C4
:10091000281EA5F10105DCDC07E0D4E9012118F867
:10092000010B9047206A401C2062381EA7F1010786
:10093000F3DC2046AFF30080032011B043E6000053
:10094000074B70B50D467B4400F08DF804462846F1
:1009500000F04AF910B14FF0FF3070BD204670BD75
:10096000E312000010B5203AC0F00B80B1E8185037
:10097000203AA0E81850B1E81850A0E81850BFF489
:10098000F5AF5FEA027C24BFB1E81850A0E8185028
:1009900044BF18C918C0BDE810405FEA827C24BF7C
:1009A00051F8043B40F8043B08BF7047D20728BF0A
:1009B00031F8023B48BF11F8012B28BF20F8023B59
:1009C00048BF00F8012B704700487047C80000205E
:1009D00030B5B0F10A024FEA900E71F100034EEA11
:1009E000817EB0EB0E0061EB91014FEA101E4EEAE2
:1009F000017E10EB0E0041EB11114FEA102E4EEA72
:100A0000016E10EB0E0041EB11214FEA104E4EEA41
:100A1000014E10EB0E0041EB1141401841F1000175
:100A20004FEAD00040EA41704FEAD10110EB800557
:100A30004FEA810444EA907444EB01046D1944EBDD
:100A40000404521BA3414FF0000348BF0A3200D5F3
:100A500030BD401C41F1000130BD000001694A1C5D
:100A600002610878704700B58FB0CDE901310021EF
:100A7000059105497944CDE9031011466846FFF711
:100A800029FC0FB000BD0000E5FFFFFF2DE9F0419C
:100A90001F46044603260168072A01F4006004DBB0
:100AA00008B116A505E016A503E008B115A500E0FC
:100AB00015A521F010002060A069C01EA0610FB133
:100AC000401EA0612046AFF300804FB1D4E9012160
:100AD00038469047206A401C2062C01C206206E015
:100AE000206AFAE7D4E9012115F8010B9047761E38
:100AF000F8D22046AFF30080BDE8F0814E414E00B1
:100B00006E616E00494E4600696E66002DE9F04741
:100B1000814616468AB0334878440DC88DE80D00EA
:100B200030487844801C03AC0DC884E80D0041F6C1
:100B30009B300844372190FBF1F290FBF1F5A5F1D1
:100B4000800501FB12041B3C02D56442012000E039
:100B50000020DFF890A080460027FA44AAF1BE0AE0
:100B60000DE0E00709D03246684607EB47010AEB83
:100B7000810100F03BFB8DE8070064107F1C002C16
:100B8000EFD1184F7F44AC3F18E0E80714D007EBD3
:100B900004100DF1180A90E80E008AE80E00C068F3
:100BA000F04201D198190890324606A903A800F036
:100BB0001DFB03AB83E807006D10641C002DE4D11E
:100BC00032466946B8F1000F03A802D000F0FAFAE5
:100BD00001E000F00BFBC9E90001C9F808200AB0E8
:100BE000BDE8F087F8120000007B00F0800070473D
:100BF00000487047A80000207546FFF7F9FFAE4691
:100C000005006946534620F00700854618B020B518
:100C1000FFF7DAFABDE820404FF000064FF000077A
:100C20004FF000084FF0000B21F00701AC46ACE894
:100C3000C009ACE8C009ACE8C009ACE8C0098D4601
:100C4000704710B50446AFF300802046BDE8104061
:100C5000FFF7A6BA4FF0013C50F8042B51F8043BC3
:100C60009A4221D1A2EB0C03934313EACC1317D180
:100C700050F8042B51F8043B9A4215D1A2EB0C0317
:100C8000934313EACC130BD150F8042B51F8043BD7
:100C90009A4209D1A2EB0C03934313EACC13DBD0A5
:100CA0004FF00000704700BFD01A01BAB1FA81F1CD
:100CB00001F0180122FA01F0CB40C1F12001DBB2B2
:100CC000C0B2C01A2CFA01F3D11A914311EAC31130
:100CD000E6D1704701491820ABBEFEE726000200AE
:100CE00070475FEA400C08BF91F0000F4FEA8C2379
:100CF0004FEAC12243EA51514FEA1C5018BF00F598
:100D0000F0404FEA300018BF41F000415FEA6C5CF0
:100D100000F02980BCF1FF3F08BF40F080407047E1
:100D2000130C06BF12044FF0100C4FF0000C130E02
:100D300004BF12020CF1080C130F04BF12010CF1D6
:100D4000040C930F04BF92000CF1020CD30F04BFEC
:100D500052000CF1010C11464FF00002A0F11F00EF
:100D6000A0EB0C00704711F0004F08BF704731F046
:100D700000413FF4D5AF0B0C06BF09044FF0100C37
:100D80004FF0000C0B0E04BF09020CF1080C0B0F06
:100D900004BF09010CF1040C8B0F04BF89000CF196
:100DA000020CCB0F04BF49000CF1010CCCF1200365
:100DB000A0EB0C0022FA03F302FA0CF241EA030161
:100DC00000F10100704720F07F4C80EA030023F01F
:100DD0007F47ACEB070303F57C5300F0004003F1C1
:100DE000FF032DE980494FEA154B09B44FEA14433C
:100DF00025EA0B4E24EA03480FF2042606EB1327DC
:100E000049083E785FEA320203FB0667C7F5000730
:100E100007FB06F64FEA54374FEAD64606F10206BC
:100E200007FB066CCCF1005C4FEA1C472CEA074C30
:100E300007FB06F40CFB06F504EB15464FEA961685
:100E400034BF00204FF000404FEAD13706FB07FCCB
:100E50004FEA1C4C0CFB0BF7D21B03FB0CF761EBAE
:100E600007010CFB0EF7B0EB074072EB17420CFBCF
:100E700008F734BFA2EB0742B2EB074261EB174120
:100E80004FEA0C444FEA910706FB07FC4FEA1C4C63
:100E90000CFB0BF7B0EBC74072EB573203FB0CF7C0
:100EA00034BFA2EBC742B2EBC74261EB57310CFB38
:100EB0000EF7B0EBC70072EB57720CFB08F734BFAC
:100EC000A2EBC702B2EBC70261EB5771039F4FEA77
:100ED000816141EA921104EBCC044FEAD1374FEA29
:100EE000826206FB07FC42EA90124FEA80604FEAFA
:100EF0001C4C0CFB0BF7D21B03FB0CF761EB07013F
:100F00000CFB0EF7B0EB074072EB17420CFB08F737
:100F100034BFA2EB0742B2EB074261EB17414FEA45
:100F20008C554FEA910704EB9C2406FB07FC4FEA23
:100F30001C4C0CFB0BF7B0EBC74072EB573203FBBA
:100F40000CF734BFA2EBC742B2EBC74261EB57319B
:100F50000CFB0EF7B0EBC70072EB57720CFB08F7F7
:100F600034BFA2EBC702B2EBC70261EB577115EBBE
:100F70004C254FEA816141EA92114FEA82624FEAC1
:100F8000D13742EA901206FB07FC44F100044FEA15
:100F900080604FEA1C4C0CFB0BF7D21B03FB0CF7D9
:100FA00061EB07010CFB0EF7B0EB074072EB174249
:100FB0000CFB08F734BFA2EB0742B2EB074261EB30
:100FC000174115EB1C154FEA813141EA92414FEA76
:100FD000823242EA90424FEA80304FEA0C7644F186
:100FE000000448EA03434EEA0B484FF0000EB2EB10
:100FF000080C71EB030724BF624639464EEB0E0E18
:101000004FF0000B0018524149414BEB0B0BB2EB78
:10101000080C71EB03077BF1000B24BF62463946D5
:101020004EEB0E0E4FF0000B0018524149414BEBB6
:101030000B0BB2EB080C71EB03077BF1000B24BF29
:10104000624639464EEB0E0E51EA020718BF46F0D3
:10105000010616EB0E7655F1000254F1000103D59E
:10106000BDE88901BDE80088BDE88901BDE8004808
:10107000B619524141EB0101A3F101037047808091
:101080007F7E7D7C7B7A79787776767574737271E2
:1010900071706F6E6E6D6C6C6B6A6A69686867669A
:1010A00066656464636362616160605F5F5E5E5D2C
:1010B0005D5C5C5B5B5A5A595958585757565655A0
:1010C00055555454535352525251515050504F4F02
:1010D0004F4E4E4D4D4D4C4C4C4B4B4B4A4A4A4952
:1010E0004949484848474747474646464545454495
:1010F0004444444343434342424242414141002B22
:1011000026D4770021D01CB54FEA370703B44FF03F
:1011100010004FF010014FF000000FBCBDE8104070
:101120000BF1010BBBF1010F08BF5FEA170722BFEC
:1011300012F1010211F101014FF0004143F10003EE
:1011400000F0004043EA00007047F9D35708DAE79F
:1011500046EA064613F1400F4FEA16461FDD13F12B
:10116000200FDFBF16430A46002120335B42C8D060
:10117000C3F1200746EA064602FA07F74FEA164689
:1011800046EA0706C3F1200722FA03F201FA07F73D
:1011900021FA03F14FF0000342EA0702B1E746EA01
:1011A000020646EA06464FEA164646EA0106BCBF74
:1011B00046EA0646360C4FF000034FF000024FF0AF
:1011C00000019EE72DE9C048934630B491E838000D
:1011D00007C831EA400C48BF34EA430C03D5FFF797
:1011E000F2FDFFF78CFFF0BCBDE800882DE9C04898
:1011F000934630B491E8380007C810F0804F08BF1C
:1012000013F0804F03D100F005F8FFF778FFF0BC32
:10121000BDE8008820F07F4780EA030023F07F4C80
:1012200007EB0C03A3F57C5300F00040A3F1FE0391
:1012300092F0000F00F0B38095F0000F00F077807F
:101240002DE901494FEA11404FEA144621EA0048CE
:1012500000FB06FC24EA064708FB06F607FB08F835
:1012600000FB07F718EB06484CEB164C4FEA124B05
:1012700018EB07484FEA15464CEB174022EA0B4E95
:101280000BFB06FC25EA06470EFB06F607FB0EFEE7
:101290000BFB07F71EEB064E4CEB164C4FF000060F
:1012A0001EEB074E4CEB174B18EB0B0840F1000000
:1012B00018EB0E0B58EB000840F100008F1A4FF0AE
:1012C00000013CBFC943661B14BFB5EB040C0021F1
:1012D0003CBFC943F61B4FEA17444EEA8E0E27EA7D
:1012E00004454FEA1C4704FB07622CEA074C05FB48
:1012F00007F70CFB05F604FB0CFC16EB074642EB6C
:10130000174216EB0C4642EB1C421BEB060658EB51
:101310000202414146EA9E0601D5BDE80189B6199F
:10132000524141EB0101A3F10103BDE801894FEAFC
:1013300014454FEA114724EA054621EA074C05FB0C
:1013400007F406FB07F70CFB06F105FB0CFC11EBA1
:10135000074144EB17444FEA124711EB0C4144EBB1
:101360001C4422EA074C05FB07F206FB07F70CFBBF
:1013700006F605FB0CFC16EB074642EB174216EB94
:101380000C4642EB1C456A1854F1000148BF7047F7
:10139000B619524141EB0101A3F10103704795F0E9
:1013A000000F37D04FEA11424FEA144721EA0246B4
:1013B00024EA074C02FB07F106FB07F70CFB06F4D7
:1013C00002FB0CFC14EB074441EB17414FEA1547B5
:1013D00014EB0C4441EB1C4125EA074C02FB07F5DA
:1013E00006FB07F70CFB06F602FB0CFC16EB0746A8
:1013F00045EB174516EB0C4645EB1C42121951F113
:10140000000148BF7047B619524141EB0101A3F1F9
:10141000010370474FEA14454FEA114724EA054695
:1014200021EA074C05FB07F106FB07F70CFB06F268
:101430004FF0000605FB0CFC12EB074241EB174195
:1014400012EB0C4251EB1C4148BF7047921841EB24
:101450000101A3F10103704770B588B000F00CFBE7
:10146000314DC0B22870002600285AD02F4806708F
:101470002F48C178807800F0CEF868802C4C012885
:1014800006D0022819D003282CD0042849D139E0ED
:1014900027492748323100F07AF854F8420F00907B
:1014A0006068234901901822323102A8FEF799FFA3
:1014B00002A80FC800F0B0F933E01D491C483231D2
:1014C00000F065F854F8420F0090606818490190E8
:1014D0001822323102A8FEF784FF02A80FC800F0DC
:1014E0009BF91EE0124912484A3100F023F81049D6
:1014F0000E224A3104A8FEF774FF04A80FC800F0BA
:10150000F1F80EE00A490A484A3100F013F8084998
:101510000E224A3104A8FEF764FF04A80FC800F0A9
:10152000E1F82E7008B070BD10000020010000200E
:101530005000002070B504460D466178207800F018
:101540006AF82880E178A07800F065F86880617911
:10155000207900F060F8A880E179A07900F05BF8CC
:10156000E880617A207A00F056F82881A17A0B2071
:10157000A9726988042902D1E17A0C20E972211844
:10158000205C497800F047F8A881002070BD70B554
:1015900004460D466178207800F03DF82880E17817
:1015A000A07800F038F868806179207900F033F88D
:1015B000A880E179A07900F02EF8E88068880128F9
:1015C0000DD0A888012811D0A17A0B20A97221186A
:1015D000205C497800F01FF8E882002070BD617A35
:1015E000207A00F018F828810A20F0E7A07AA87283
:1015F000E07AE872207B2873617B0E206973E6E74E
:1016000008B58DF803008DF802108DF801208DF8D3
:101610000030009808BD08B58DF800008DF8011065
:10162000BDF8000008BD000010B512498A6942F0FB
:1016300004028A61104A136843F4966313608A694E
:1016400042F480428A610D490968B1FBF0F2B1FBB6
:10165000F0F00B4962F3030008800C1D208840F075
:101660002C002080252000F0CDFA208840F4005086
:10167000208010BD0010024004080140140000202A
:101680000838014010B513498A6942F004028A61A2
:10169000114A136843F496431360CA6942F4003256
:1016A000CA610E490968B1FBF0F24000B1FBF0F0ED
:1016B0000B4962F3030008800C1D208840F02C00C9
:1016C0002080262000F09EFA208840F400502080E0
:1016D00010BD00000010024000080140140000206E
:1016E000084400401FB51B48FEF780FD1AA0FEF716
:1016F0007DFDBDF800101FA0FEF778FDBDF802408B
:1017000021A02146FEF772FDBDF8041023A0FEF7CC
:101710006DFDBDF8061026A0FEF768FDBDF80810A7
:1017200028A0FEF763FD9DF80A102BA0FEF75EFDD2
:10173000042C04D19DF80B102CA0FEF757FDBDF82A
:101740000C102FA0FEF752FD04B03248BDE8104047
:10175000FEF74CBD2C1E00080909094672616D6533
:101760002044657669636520446574656374200A66
:101770000000000053746172744672616D65202030
:10178000203A25780A000000547970654D6573731E
:1017900061676520203A25780A0000005479706559
:1017A0004465766963652020203A25780A000000A8
:1017B0004C656E677468446174612020203A25642A
:1017C0000A0000004465766963654E616D652020FE
:1017D000203A25780A000000436F6D6D616E6454F5
:1017E00079706520203A25780A00000053746174EE
:1017F0007573446576696365203A25780A000000B0
:10180000436865636B4672616D652020203A2578D8
:101810000A000000701E00080FB470B52448FEF7DF
:10182000E5FC24A0FEF7E2FCBDF8101028A0FEF7AE
:10183000DDFCBDF812402BA02146FEF7D7FCBDF819
:1018400014502DA02946FEF7D1FCBDF816102FA08C
:10185000FEF7CCFC012C02D0022C0ED105E0BDF825
:1018600018102FA0FEF7C2FC07E09DF81A00012D0A
:101870000ED001462FA0FEF7B9FCBDF8261032A00D
:10188000FEF7B4FC70BC35485DF814EBFEF7AEBC57
:101890009DF81D309DF81C209DF81B10FFF7B0FE31
:1018A00000F0F2F902460B462DA0FEF79FFCE4E79C
:1018B0002C1E00080909094672616D652053656E8A
:1018C000736F7220446574656374200A0000000021
:1018D00053746172744672616D6520203A202578D8
:1018E0000A000000547970654D6573736167652067
:1018F0003A2025780A0000005479706544657669BD
:10190000636520203A2025780A0000004C656E6748
:1019100074684461746120203A2025640A00000044
:1019200053656E736F724E616D6520203A20257885
:101930000A00000044617461202020202020202023
:101940003A2025640A000000436865636B467261B3
:101950006D6520203A2025780A000000701E0008DE
:101960004461746120202020202020203A20252E50
:1019700033660A00AFF300800CB50022019200929A
:101980002748016841F4803101604FF4A063016889
:1019900001F4003100910199491C0191009911B99C
:1019A00001999942F3D10168890302D5012100917F
:1019B00000E000920099012930D11A490A6842F0EA
:1019C00010020A600A6822F007020A600A6842F000
:1019D00002020A604168416041684160416841F427
:1019E00080614160416821F47C114160416841F4AB
:1019F000E8114160016841F080710160016889016E
:101A0000FCD5416821F003014160416841F00201C9
:101A100041604168C1F381010229FAD10CBD000087
:101A2000001002400020024010B50F48016841F04C
:101A30000101016041680D4A1140416001680C4A92
:101A400011400160016821F480210160416821F4A6
:101A5000FE0141604FF41F018160FFF78BFF0549D4
:101A60004FF00060086010BD001002400000FFF859
:101A7000FFFFF6FE08ED00E003484178012901D0A0
:101A8000002070470089704700000020034908804B
:101A9000081F01880906FCD5704700000444004077
:101AA00070B52B480188890616D500F093F8C0B2AE
:101AB000284C002501232178274A05290CD2DFE88C
:101AC00001F0030C16203B00E1885054491C88B2F9
:101AD000E080022800D1237070BDE1885054491C79
:101AE00088B2E0800428F7D10220207070BDE18820
:101AF0005054491C88B2E0800628F7D1032020709A
:101B000070BDE1885054491C88B2E0800828F7D1A4
:101B1000D1799079FFF77FFD083080B22081E1888C
:101B2000082904D1182802D20420207070BD18287A
:101B3000FCD9E580257070BDE1885054491C88B2FD
:101B4000E08021898842F6D1E5802570637070BD00
:101B50000038014000000020500000200B480088A1
:101B600080060BD50948001D0088C1B2094A084B00
:101B70000A29D07803D01954401CD0707047002136
:101B8000195401209070D17070470000004400404B
:101B900028000020000000200B48008880060BD59C
:101BA0000948001D0088C1B2094A084B0A2950792A
:101BB00003D01954401C5071704700211954012062
:101BC0001071517170470000004800403C00002037
:101BD000000000208088C0F308007047490050EAE8
:101BE000C12018BF04204A0D18BF40F0010040F288
:101BF000FF72B2EB515F08BF40F00200012808BF3E
:101C000005207047002809DB00F01F0201219140E8
:101C10004009800000F1E020C0F800117047303822
:101C20000A2801D2012070470020704700B5024603
:101C3000D0B2FFF72BFF104600BD4FF416542046DC
:101C4000FFF7F2FC2046FFF71DFDFFF705FCFCE760
:101C500010B500290AD00878002807D00548784434
:101C6000FEF7F8FF002801D0002010BD024878449C
:101C700010BD0000760200006E0200000808A0F50A
:101C800000114FEA3101704743004FEAD30C4FEA8D
:101C90003C0C43401FBF40070CF1605113F0FE4F56
:101CA00070471CF0006F03D100200CF0004170471A
:101CB0000CF0004343EA507010B540EACC0000F04D
:101CC0000EF800BF000000924FEA0001FFF7D6BFF8
:101CD0004FF000414FF00000A1F5002170470EF1D8
:101CE000020E2EF0030E5EF8044B244204D44FEA99
:101CF0004102B2F17F4F11D84FEA4003B3F17F4F59
:101D00000CD80ED14FEAD07CB2F17F4F0CEB4C0CCB
:101D10000CF1020C08BF4CEBD17C04E04FF0080C36
:101D200001E04FEAD17C0CEB4C0324FA03F404F0FD
:101D30000704B4F1040C06D20EEB840CBDE810408D
:101D40004CF0010C6047DFE80CF0070802024FF08E
:101D50000040A0F5800010BD0846420018BFD2F137
:101D6000807288BF00F0004010BDFEF7B2BC303179
:101D700032333435363738394142434445464030B2
:101D80005800303132333435363738396162636464
:101D9000656640307800000002400000000000A0AE
:101DA0000000000005400000000000C80000000026
:101DB0000C4000000000409C0000000019400000A2
:101DC0000020BCBE0000000034400000BFC91B8ED4
:101DD00000000004B5400000504BCFD06607E2CFB2
:101DE000010000006C4100003E8251AADFEEA734E2
:101DF00001000000D9420000DCB5A0E23A301F9794
:101E0000FFFFFFFFB4450000FD25A0C8E9A3C14FB7
:101E1000FFFFFFFFFF3F0000000000800000000008
:101E2000FF3F000000000080000000000A2D2D2D63
:101E30002D2D2D2D2D2D2D2D2D2D2D2D2D2D2D2DD2
:101E40002D2D2D2D2D2D2D2D2D2D2D2D2D2D2D2DC2
:101E50002D2D2D2D2D2D2D2D2D2D2D2D2D2D2D2DB2
:101E60002D2D2D2D2D2D2D2D2D2D2D2D2D2D0A00F2
:101E70002D2D2D2D2D2D2D2D2D2D2D2D2D2D2D2D92
:101E80002D2D2D2D2D2D2D2D2D2D2D2D2D2D2D2D82
:101E90002D2D2D2D2D2D2D2D2D2D2D2D2D2D2D2D72
:101EA0002D2D2D2D2D2D2D2D2D2D2D2D2D2D2D2D62
:101EB0002D000000F01E0008000000202800000097
:101EC00028010008181F000828000020E006000074
:101ED000440100081C00000043000000F8FFFFFF61
:101EE0000C0000000E0000000F0000002E0000009B
:101EF00000000000000000000000000000000000E2
:101F00000000000000A24A040000000000000000E1
:081F10000102030406070809A1
:04000005080000ED02
:00000001FF
